{
  "contractName": "Dispatch",
  "abi": [
    {
      "constant": true,
      "inputs": [],
      "name": "db",
      "outputs": [
        {
          "name": "",
          "type": "address"
        }
      ],
      "payable": false,
      "stateMutability": "view",
      "type": "function"
    },
    {
      "constant": false,
      "inputs": [],
      "name": "updateDependencies",
      "outputs": [],
      "payable": false,
      "stateMutability": "nonpayable",
      "type": "function"
    },
    {
      "constant": true,
      "inputs": [],
      "name": "owner",
      "outputs": [
        {
          "name": "",
          "type": "address"
        }
      ],
      "payable": false,
      "stateMutability": "view",
      "type": "function"
    },
    {
      "constant": true,
      "inputs": [],
      "name": "bondage",
      "outputs": [
        {
          "name": "",
          "type": "address"
        }
      ],
      "payable": false,
      "stateMutability": "view",
      "type": "function"
    },
    {
      "constant": false,
      "inputs": [],
      "name": "selfDestruct",
      "outputs": [],
      "payable": false,
      "stateMutability": "nonpayable",
      "type": "function"
    },
    {
      "constant": true,
      "inputs": [],
      "name": "bondageAddress",
      "outputs": [
        {
          "name": "",
          "type": "address"
        }
      ],
      "payable": false,
      "stateMutability": "view",
      "type": "function"
    },
    {
      "constant": false,
      "inputs": [
        {
          "name": "newOwner",
          "type": "address"
        }
      ],
      "name": "transferOwnership",
      "outputs": [],
      "payable": false,
      "stateMutability": "nonpayable",
      "type": "function"
    },
    {
      "inputs": [
        {
          "name": "c",
          "type": "address"
        }
      ],
      "payable": false,
      "stateMutability": "nonpayable",
      "type": "constructor"
    },
    {
      "anonymous": false,
      "inputs": [
        {
          "indexed": true,
          "name": "id",
          "type": "uint256"
        },
        {
          "indexed": true,
          "name": "provider",
          "type": "address"
        },
        {
          "indexed": true,
          "name": "subscriber",
          "type": "address"
        },
        {
          "indexed": false,
          "name": "query",
          "type": "string"
        },
        {
          "indexed": false,
          "name": "endpoint",
          "type": "bytes32"
        },
        {
          "indexed": false,
          "name": "endpointParams",
          "type": "bytes32[]"
        },
        {
          "indexed": false,
          "name": "onchainSubscriber",
          "type": "bool"
        }
      ],
      "name": "Incoming",
      "type": "event"
    },
    {
      "anonymous": false,
      "inputs": [
        {
          "indexed": true,
          "name": "subscriber",
          "type": "address"
        },
        {
          "indexed": true,
          "name": "provider",
          "type": "address"
        },
        {
          "indexed": true,
          "name": "endpoint",
          "type": "bytes32"
        }
      ],
      "name": "FulfillQuery",
      "type": "event"
    },
    {
      "anonymous": false,
      "inputs": [
        {
          "indexed": true,
          "name": "id",
          "type": "uint256"
        },
        {
          "indexed": true,
          "name": "subscriber",
          "type": "address"
        },
        {
          "indexed": true,
          "name": "provider",
          "type": "address"
        },
        {
          "indexed": false,
          "name": "response",
          "type": "bytes32[]"
        }
      ],
      "name": "OffchainResponse",
      "type": "event"
    },
    {
      "anonymous": false,
      "inputs": [
        {
          "indexed": true,
          "name": "id",
          "type": "uint256"
        },
        {
          "indexed": true,
          "name": "subscriber",
          "type": "address"
        },
        {
          "indexed": true,
          "name": "provider",
          "type": "address"
        },
        {
          "indexed": false,
          "name": "response",
          "type": "int256[]"
        }
      ],
      "name": "OffchainResponseInt",
      "type": "event"
    },
    {
      "anonymous": false,
      "inputs": [
        {
          "indexed": true,
          "name": "id",
          "type": "uint256"
        },
        {
          "indexed": true,
          "name": "subscriber",
          "type": "address"
        },
        {
          "indexed": true,
          "name": "provider",
          "type": "address"
        },
        {
          "indexed": false,
          "name": "response1",
          "type": "string"
        }
      ],
      "name": "OffchainResult1",
      "type": "event"
    },
    {
      "anonymous": false,
      "inputs": [
        {
          "indexed": true,
          "name": "id",
          "type": "uint256"
        },
        {
          "indexed": true,
          "name": "subscriber",
          "type": "address"
        },
        {
          "indexed": true,
          "name": "provider",
          "type": "address"
        },
        {
          "indexed": false,
          "name": "response1",
          "type": "string"
        },
        {
          "indexed": false,
          "name": "response2",
          "type": "string"
        }
      ],
      "name": "OffchainResult2",
      "type": "event"
    },
    {
      "anonymous": false,
      "inputs": [
        {
          "indexed": true,
          "name": "id",
          "type": "uint256"
        },
        {
          "indexed": true,
          "name": "subscriber",
          "type": "address"
        },
        {
          "indexed": true,
          "name": "provider",
          "type": "address"
        },
        {
          "indexed": false,
          "name": "response1",
          "type": "string"
        },
        {
          "indexed": false,
          "name": "response2",
          "type": "string"
        },
        {
          "indexed": false,
          "name": "response3",
          "type": "string"
        }
      ],
      "name": "OffchainResult3",
      "type": "event"
    },
    {
      "anonymous": false,
      "inputs": [
        {
          "indexed": true,
          "name": "id",
          "type": "uint256"
        },
        {
          "indexed": true,
          "name": "subscriber",
          "type": "address"
        },
        {
          "indexed": true,
          "name": "provider",
          "type": "address"
        },
        {
          "indexed": false,
          "name": "response1",
          "type": "string"
        },
        {
          "indexed": false,
          "name": "response2",
          "type": "string"
        },
        {
          "indexed": false,
          "name": "response3",
          "type": "string"
        },
        {
          "indexed": false,
          "name": "response4",
          "type": "string"
        }
      ],
      "name": "OffchainResult4",
      "type": "event"
    },
    {
      "anonymous": false,
      "inputs": [
        {
          "indexed": true,
          "name": "id",
          "type": "uint256"
        },
        {
          "indexed": true,
          "name": "subscriber",
          "type": "address"
        },
        {
          "indexed": true,
          "name": "provider",
          "type": "address"
        }
      ],
      "name": "CanceledRequest",
      "type": "event"
    },
    {
      "anonymous": false,
      "inputs": [
        {
          "indexed": true,
          "name": "id",
          "type": "uint256"
        },
        {
          "indexed": true,
          "name": "subscriber",
          "type": "address"
        },
        {
          "indexed": true,
          "name": "provider",
          "type": "address"
        }
      ],
      "name": "RevertCancelation",
      "type": "event"
    },
    {
      "anonymous": false,
      "inputs": [
        {
          "indexed": true,
          "name": "previousOwner",
          "type": "address"
        },
        {
          "indexed": true,
          "name": "newOwner",
          "type": "address"
        }
      ],
      "name": "OwnershipTransferred",
      "type": "event"
    },
    {
      "constant": false,
      "inputs": [
        {
          "name": "provider",
          "type": "address"
        },
        {
          "name": "userQuery",
          "type": "string"
        },
        {
          "name": "endpoint",
          "type": "bytes32"
        },
        {
          "name": "endpointParams",
          "type": "bytes32[]"
        }
      ],
      "name": "query",
      "outputs": [
        {
          "name": "id",
          "type": "uint256"
        }
      ],
      "payable": false,
      "stateMutability": "nonpayable",
      "type": "function"
    },
    {
      "constant": false,
      "inputs": [
        {
          "name": "id",
          "type": "uint256"
        }
      ],
      "name": "cancelQuery",
      "outputs": [],
      "payable": false,
      "stateMutability": "nonpayable",
      "type": "function"
    },
    {
      "constant": false,
      "inputs": [
        {
          "name": "id",
          "type": "uint256"
        },
        {
          "name": "response",
          "type": "bytes32[]"
        }
      ],
      "name": "respondBytes32Array",
      "outputs": [
        {
          "name": "",
          "type": "bool"
        }
      ],
      "payable": false,
      "stateMutability": "nonpayable",
      "type": "function"
    },
    {
      "constant": false,
      "inputs": [
        {
          "name": "id",
          "type": "uint256"
        },
        {
          "name": "response",
          "type": "int256[]"
        }
      ],
      "name": "respondIntArray",
      "outputs": [
        {
          "name": "",
          "type": "bool"
        }
      ],
      "payable": false,
      "stateMutability": "nonpayable",
      "type": "function"
    },
    {
      "constant": false,
      "inputs": [
        {
          "name": "id",
          "type": "uint256"
        },
        {
          "name": "response",
          "type": "string"
        }
      ],
      "name": "respond1",
      "outputs": [
        {
          "name": "",
          "type": "bool"
        }
      ],
      "payable": false,
      "stateMutability": "nonpayable",
      "type": "function"
    },
    {
      "constant": false,
      "inputs": [
        {
          "name": "id",
          "type": "uint256"
        },
        {
          "name": "response1",
          "type": "string"
        },
        {
          "name": "response2",
          "type": "string"
        }
      ],
      "name": "respond2",
      "outputs": [
        {
          "name": "",
          "type": "bool"
        }
      ],
      "payable": false,
      "stateMutability": "nonpayable",
      "type": "function"
    },
    {
      "constant": false,
      "inputs": [
        {
          "name": "id",
          "type": "uint256"
        },
        {
          "name": "response1",
          "type": "string"
        },
        {
          "name": "response2",
          "type": "string"
        },
        {
          "name": "response3",
          "type": "string"
        }
      ],
      "name": "respond3",
      "outputs": [
        {
          "name": "",
          "type": "bool"
        }
      ],
      "payable": false,
      "stateMutability": "nonpayable",
      "type": "function"
    },
    {
      "constant": false,
      "inputs": [
        {
          "name": "id",
          "type": "uint256"
        },
        {
          "name": "response1",
          "type": "string"
        },
        {
          "name": "response2",
          "type": "string"
        },
        {
          "name": "response3",
          "type": "string"
        },
        {
          "name": "response4",
          "type": "string"
        }
      ],
      "name": "respond4",
      "outputs": [
        {
          "name": "",
          "type": "bool"
        }
      ],
      "payable": false,
      "stateMutability": "nonpayable",
      "type": "function"
    },
    {
      "constant": true,
      "inputs": [
        {
          "name": "id",
          "type": "uint256"
        }
      ],
      "name": "getProvider",
      "outputs": [
        {
          "name": "",
          "type": "address"
        }
      ],
      "payable": false,
      "stateMutability": "view",
      "type": "function"
    },
    {
      "constant": true,
      "inputs": [
        {
          "name": "id",
          "type": "uint256"
        }
      ],
      "name": "getSubscriber",
      "outputs": [
        {
          "name": "",
          "type": "address"
        }
      ],
      "payable": false,
      "stateMutability": "view",
      "type": "function"
    },
    {
      "constant": true,
      "inputs": [
        {
          "name": "id",
          "type": "uint256"
        }
      ],
      "name": "getEndpoint",
      "outputs": [
        {
          "name": "",
          "type": "bytes32"
        }
      ],
      "payable": false,
      "stateMutability": "view",
      "type": "function"
    },
    {
      "constant": true,
      "inputs": [
        {
          "name": "id",
          "type": "uint256"
        }
      ],
      "name": "getStatus",
      "outputs": [
        {
          "name": "",
          "type": "uint8"
        }
      ],
      "payable": false,
      "stateMutability": "view",
      "type": "function"
    },
    {
      "constant": true,
      "inputs": [
        {
          "name": "id",
          "type": "uint256"
        }
      ],
      "name": "getCancel",
      "outputs": [
        {
          "name": "",
          "type": "uint256"
        }
      ],
      "payable": false,
      "stateMutability": "view",
      "type": "function"
    },
    {
      "constant": true,
      "inputs": [
        {
          "name": "id",
          "type": "uint256"
        }
      ],
      "name": "getUserQuery",
      "outputs": [
        {
          "name": "",
          "type": "string"
        }
      ],
      "payable": false,
      "stateMutability": "view",
      "type": "function"
    },
    {
      "constant": true,
      "inputs": [
        {
          "name": "id",
          "type": "uint256"
        }
      ],
      "name": "getSubscriberOnchain",
      "outputs": [
        {
          "name": "",
          "type": "bool"
        }
      ],
      "payable": false,
      "stateMutability": "view",
      "type": "function"
    }
  ],
  "bytecode": "0x608060405234801561001057600080fd5b506040516020806148c78339810180604052810190808051906020019092919050505080336000806101000a81548173ffffffffffffffffffffffffffffffffffffffff021916908373ffffffffffffffffffffffffffffffffffffffff16021790555080600160006101000a81548173ffffffffffffffffffffffffffffffffffffffff021916908373ffffffffffffffffffffffffffffffffffffffff16021790555080600260006101000a81548173ffffffffffffffffffffffffffffffffffffffff021916908373ffffffffffffffffffffffffffffffffffffffff16021790555050506147c0806101076000396000f300608060405260043610610128576000357c0100000000000000000000000000000000000000000000000000000000900463ffffffff168063027521ce1461012d5780630cbe69a11461016e57806325df1e77146101cb5780633485d34c1461023857806337a8c560146102dd5780633b90dfa8146103225780634d655aff146103af5780635c42d079146104065780635c622a0e146104735780636843581c146104c25780636e5ecdff1461051f5780637237dc0b146105365780637de7cc66146105635780638da5cb5b146105f85780638ed200211461064f578063937bbc4a146106a65780639cb8a26a146106ef578063dc7317c914610706578063e00dbb41146107ac578063ef05ab0b14610803578063f2fde38b14610860578063fedea288146108a3575b600080fd5b34801561013957600080fd5b5061015860048036038101908080359060200190929190505050610918565b6040518082815260200191505060405180910390f35b34801561017a57600080fd5b506101b160048036038101908080359060200190929190803590602001908201803590602001919091929391929390505050610ac6565b604051808215151515815260200191505060405180910390f35b3480156101d757600080fd5b506101f660048036038101908080359060200190929190505050610c79565b604051808273ffffffffffffffffffffffffffffffffffffffff1673ffffffffffffffffffffffffffffffffffffffff16815260200191505060405180910390f35b34801561024457600080fd5b506102c360048036038101908080359060200190929190803590602001908201803590602001919091929391929390803590602001908201803590602001919091929391929390803590602001908201803590602001919091929391929390803590602001908201803590602001919091929391929390505050610e27565b604051808215151515815260200191505060405180910390f35b3480156102e957600080fd5b50610308600480360381019080803590602001909291905050506110a6565b604051808215151515815260200191505060405180910390f35b34801561032e57600080fd5b506103956004803603810190808035906020019092919080359060200190820180359060200191909192939192939080359060200190820180359060200191909192939192939080359060200190820180359060200191909192939192939050505061126a565b604051808215151515815260200191505060405180910390f35b3480156103bb57600080fd5b506103c46114a3565b604051808273ffffffffffffffffffffffffffffffffffffffff1673ffffffffffffffffffffffffffffffffffffffff16815260200191505060405180910390f35b34801561041257600080fd5b50610431600480360381019080803590602001909291905050506114c9565b604051808273ffffffffffffffffffffffffffffffffffffffff1673ffffffffffffffffffffffffffffffffffffffff16815260200191505060405180910390f35b34801561047f57600080fd5b5061049e60048036038101908080359060200190929190505050611677565b604051808260028111156104ae57fe5b60ff16815260200191505060405180910390f35b3480156104ce57600080fd5b5061050560048036038101908080359060200190929190803590602001908201803590602001919091929391929390505050611830565b604051808215151515815260200191505060405180910390f35b34801561052b57600080fd5b506105346119dd565b005b34801561054257600080fd5b5061056160048036038101908080359060200190929190505050611aac565b005b34801561056f57600080fd5b506105e2600480360381019080803573ffffffffffffffffffffffffffffffffffffffff1690602001909291908035906020019082018035906020019190919293919293908035600019169060200190929190803590602001908201803590602001919091929391929390505050611dcd565b6040518082815260200191505060405180910390f35b34801561060457600080fd5b5061060d612439565b604051808273ffffffffffffffffffffffffffffffffffffffff1673ffffffffffffffffffffffffffffffffffffffff16815260200191505060405180910390f35b34801561065b57600080fd5b5061066461245e565b604051808273ffffffffffffffffffffffffffffffffffffffff1673ffffffffffffffffffffffffffffffffffffffff16815260200191505060405180910390f35b3480156106b257600080fd5b506106d160048036038101908080359060200190929190505050612484565b60405180826000191660001916815260200191505060405180910390f35b3480156106fb57600080fd5b50610704612632565b005b34801561071257600080fd5b50610731600480360381019080803590602001909291905050506126c7565b6040518080602001828103825283818151815260200191508051906020019080838360005b83811015610771578082015181840152602081019050610756565b50505050905090810190601f16801561079e5780820380516001836020036101000a031916815260200191505b509250505060405180910390f35b3480156107b857600080fd5b506107c16128cb565b604051808273ffffffffffffffffffffffffffffffffffffffff1673ffffffffffffffffffffffffffffffffffffffff16815260200191505060405180910390f35b34801561080f57600080fd5b50610846600480360381019080803590602001909291908035906020019082018035906020019190919293919293905050506128f1565b604051808215151515815260200191505060405180910390f35b34801561086c57600080fd5b506108a1600480360381019080803573ffffffffffffffffffffffffffffffffffffffff169060200190929190505050612aa4565b005b3480156108af57600080fd5b506108fe60048036038101908080359060200190929190803590602001908201803590602001919091929391929390803590602001908201803590602001919091929391929390505050612bf9565b604051808215151515815260200191505060405180910390f35b6000600560009054906101000a900473ffffffffffffffffffffffffffffffffffffffff1673ffffffffffffffffffffffffffffffffffffffff16632ecb0d648360405160200180807f7175657269657300000000000000000000000000000000000000000000000000815250600701828152602001807f63616e63656c426c6f636b000000000000000000000000000000000000000000815250600b019150506040516020818303038152906040526040518082805190602001908083835b6020831015156109fd57805182526020820191506020810190506020830392506109d8565b6001836020036101000a03801982511681845116808217855250505050505090500191505060405180910390206040518263ffffffff167c0100000000000000000000000000000000000000000000000000000000028152600401808260001916600019168152602001915050602060405180830381600087803b158015610a8457600080fd5b505af1158015610a98573d6000803e3d6000fd5b505050506040513d6020811015610aae57600080fd5b81019080805190602001909291905050509050919050565b60003373ffffffffffffffffffffffffffffffffffffffff16610ae8856114c9565b73ffffffffffffffffffffffffffffffffffffffff16141580610b115750610b0f84612dec565b155b15610b1b57600080fd5b610b24846110a6565b15610be257610b3284610c79565b73ffffffffffffffffffffffffffffffffffffffff166363b41fe98585856040518463ffffffff167c0100000000000000000000000000000000000000000000000000000000028152600401808481526020018060200182810382528484828181526020019250602002808284378201915050945050505050600060405180830381600087803b158015610bc557600080fd5b505af1158015610bd9573d6000803e3d6000fd5b50505050610c6e565b3373ffffffffffffffffffffffffffffffffffffffff16610c0285610c79565b73ffffffffffffffffffffffffffffffffffffffff16857f92d44f3550f6aeaab26241971266a417e4385691402c27c5a1bf69b2c19210c68686604051808060200182810382528484828181526020019250602002808284378201915050935050505060405180910390a45b600190509392505050565b6000600560009054906101000a900473ffffffffffffffffffffffffffffffffffffffff1673ffffffffffffffffffffffffffffffffffffffff16632ecb0d648360405160200180807f7175657269657300000000000000000000000000000000000000000000000000815250600701828152602001807f7375627363726962657200000000000000000000000000000000000000000000815250600a019150506040516020818303038152906040526040518082805190602001908083835b602083101515610d5e5780518252602082019150602081019050602083039250610d39565b6001836020036101000a03801982511681845116808217855250505050505090500191505060405180910390206040518263ffffffff167c0100000000000000000000000000000000000000000000000000000000028152600401808260001916600019168152602001915050602060405180830381600087803b158015610de557600080fd5b505af1158015610df9573d6000803e3d6000fd5b505050506040513d6020811015610e0f57600080fd5b81019080805190602001909291905050509050919050565b60003373ffffffffffffffffffffffffffffffffffffffff16610e498b6114c9565b73ffffffffffffffffffffffffffffffffffffffff16141580610e725750610e708a612dec565b155b15610e7c57600080fd5b610e858a6110a6565b15610fa657610e938a610c79565b73ffffffffffffffffffffffffffffffffffffffff1663a267cf078b8b8b8b8b8b8b8b8b6040518a63ffffffff167c0100000000000000000000000000000000000000000000000000000000028152600401808a81526020018060200180602001806020018060200185810385528d8d82818152602001925080828437820191505085810384528b8b82818152602001925080828437820191505085810383528989828181526020019250808284378201915050858103825287878281815260200192508082843782019150509d5050505050505050505050505050600060405180830381600087803b158015610f8957600080fd5b505af1158015610f9d573d6000803e3d6000fd5b50505050611095565b3373ffffffffffffffffffffffffffffffffffffffff16610fc68b610c79565b73ffffffffffffffffffffffffffffffffffffffff168b7f5e141f0f2db9b2fa0d44e60384103676292be03cac75671374ea23e719dcd64b8c8c8c8c8c8c8c8c604051808060200180602001806020018060200185810385528d8d82818152602001925080828437820191505085810384528b8b82818152602001925080828437820191505085810383528989828181526020019250808284378201915050858103825287878281815260200192508082843782019150509c5050505050505050505050505060405180910390a45b600190509998505050505050505050565b600080600560009054906101000a900473ffffffffffffffffffffffffffffffffffffffff1673ffffffffffffffffffffffffffffffffffffffff16632ecb0d648460405160200180807f7175657269657300000000000000000000000000000000000000000000000000815250600701828152602001807f6f6e636861696e537562736372696265720000000000000000000000000000008152506011019150506040516020818303038152906040526040518082805190602001908083835b60208310151561118c5780518252602082019150602081019050602083039250611167565b6001836020036101000a03801982511681845116808217855250505050505090500191505060405180910390206040518263ffffffff167c0100000000000000000000000000000000000000000000000000000000028152600401808260001916600019168152602001915050602060405180830381600087803b15801561121357600080fd5b505af1158015611227573d6000803e3d6000fd5b505050506040513d602081101561123d57600080fd5b810190808051906020019092919050505090506001811461125f576000611262565b60015b915050919050565b60003373ffffffffffffffffffffffffffffffffffffffff1661128c896114c9565b73ffffffffffffffffffffffffffffffffffffffff161415806112b557506112b388612dec565b155b156112bf57600080fd5b6112c8886110a6565b156113c7576112d688610c79565b73ffffffffffffffffffffffffffffffffffffffff1663d936a327898989898989896040518863ffffffff167c01000000000000000000000000000000000000000000000000000000000281526004018088815260200180602001806020018060200184810384528a8a82818152602001925080828437820191505084810383528888828181526020019250808284378201915050848103825286868281815260200192508082843782019150509a5050505050505050505050600060405180830381600087803b1580156113aa57600080fd5b505af11580156113be573d6000803e3d6000fd5b50505050611494565b3373ffffffffffffffffffffffffffffffffffffffff166113e789610c79565b73ffffffffffffffffffffffffffffffffffffffff16897f5d15dbf2e2e3132b5a4fa750a08fbdc88bde1149224a6b1de740e50804707ef28a8a8a8a8a8a6040518080602001806020018060200184810384528a8a8281815260200192508082843782019150508481038352888882818152602001925080828437820191505084810382528686828181526020019250808284378201915050995050505050505050505060405180910390a45b60019050979650505050505050565b600560009054906101000a900473ffffffffffffffffffffffffffffffffffffffff1681565b6000600560009054906101000a900473ffffffffffffffffffffffffffffffffffffffff1673ffffffffffffffffffffffffffffffffffffffff16632ecb0d648360405160200180807f7175657269657300000000000000000000000000000000000000000000000000815250600701828152602001807f70726f76696465720000000000000000000000000000000000000000000000008152506008019150506040516020818303038152906040526040518082805190602001908083835b6020831015156115ae5780518252602082019150602081019050602083039250611589565b6001836020036101000a03801982511681845116808217855250505050505090500191505060405180910390206040518263ffffffff167c0100000000000000000000000000000000000000000000000000000000028152600401808260001916600019168152602001915050602060405180830381600087803b15801561163557600080fd5b505af1158015611649573d6000803e3d6000fd5b505050506040513d602081101561165f57600080fd5b81019080805190602001909291905050509050919050565b6000600560009054906101000a900473ffffffffffffffffffffffffffffffffffffffff1673ffffffffffffffffffffffffffffffffffffffff16632ecb0d648360405160200180807f7175657269657300000000000000000000000000000000000000000000000000815250600701828152602001807f73746174757300000000000000000000000000000000000000000000000000008152506006019150506040516020818303038152906040526040518082805190602001908083835b60208310151561175c5780518252602082019150602081019050602083039250611737565b6001836020036101000a03801982511681845116808217855250505050505090500191505060405180910390206040518263ffffffff167c0100000000000000000000000000000000000000000000000000000000028152600401808260001916600019168152602001915050602060405180830381600087803b1580156117e357600080fd5b505af11580156117f7573d6000803e3d6000fd5b505050506040513d602081101561180d57600080fd5b8101908080519060200190929190505050600281111561182957fe5b9050919050565b60003373ffffffffffffffffffffffffffffffffffffffff16611852856114c9565b73ffffffffffffffffffffffffffffffffffffffff1614158061187b575061187984612dec565b155b1561188557600080fd5b61188e846110a6565b156119495761189c84610c79565b73ffffffffffffffffffffffffffffffffffffffff1663b69a375d8585856040518463ffffffff167c0100000000000000000000000000000000000000000000000000000000028152600401808481526020018060200182810382528484828181526020019250808284378201915050945050505050600060405180830381600087803b15801561192c57600080fd5b505af1158015611940573d6000803e3d6000fd5b505050506119d2565b3373ffffffffffffffffffffffffffffffffffffffff1661196985610c79565b73ffffffffffffffffffffffffffffffffffffffff16857f61ca5cd516a9a4012e4c147542d38223206ca531953abcb3272f579768d9dfb08686604051808060200182810382528484828181526020019250808284378201915050935050505060405180910390a45b600190509392505050565b600160009054906101000a900473ffffffffffffffffffffffffffffffffffffffff1673ffffffffffffffffffffffffffffffffffffffff163373ffffffffffffffffffffffffffffffffffffffff16141515611aa2576040517f08c379a00000000000000000000000000000000000000000000000000000000081526004018080602001828103825260208152602001807f4572726f723a20436f6f7264696e61746f72204f6e6c792046756e6374696f6e81525060200191505060405180910390fd5b611aaa6132b9565b565b6000806000611aba84610c79565b9250611ac5846114c9565b9150611ad084612484565b90503373ffffffffffffffffffffffffffffffffffffffff168373ffffffffffffffffffffffffffffffffffffffff16141515611b75576040517f08c379a00000000000000000000000000000000000000000000000000000000081526004018080602001828103825260178152602001807f4572726f723a2057726f6e67207375627363726962657200000000000000000081525060200191505060405180910390fd5b60006002811115611b8257fe5b611b8b85611677565b6002811115611b9657fe5b141515611c0b576040517f08c379a000000000000000000000000000000000000000000000000000000000815260040180806020018281038252601b8152602001807f4572726f723a205175657279206973206e6f742070656e64696e67000000000081525060200191505060405180910390fd5b611c1684600161359e565b600360009054906101000a900473ffffffffffffffffffffffffffffffffffffffff1673ffffffffffffffffffffffffffffffffffffffff1663f6dfac2584848460016040518563ffffffff167c0100000000000000000000000000000000000000000000000000000000028152600401808573ffffffffffffffffffffffffffffffffffffffff1673ffffffffffffffffffffffffffffffffffffffff1681526020018473ffffffffffffffffffffffffffffffffffffffff1673ffffffffffffffffffffffffffffffffffffffff1681526020018360001916600019168152602001828152602001945050505050602060405180830381600087803b158015611d2057600080fd5b505af1158015611d34573d6000803e3d6000fd5b505050506040513d6020811015611d4a57600080fd5b810190808051906020019092919050505050611d65846114c9565b73ffffffffffffffffffffffffffffffffffffffff16611d8485610c79565b73ffffffffffffffffffffffffffffffffffffffff16857f4030457f4368d74748ca5f9c90692bd6c8a018884ddca38fcbce9e02179e777e60405160405180910390a450505050565b600080600080600360009054906101000a900473ffffffffffffffffffffffffffffffffffffffff1673ffffffffffffffffffffffffffffffffffffffff1663bbee3694338c8a6040518463ffffffff167c0100000000000000000000000000000000000000000000000000000000028152600401808473ffffffffffffffffffffffffffffffffffffffff1673ffffffffffffffffffffffffffffffffffffffff1681526020018373ffffffffffffffffffffffffffffffffffffffff1673ffffffffffffffffffffffffffffffffffffffff16815260200182600019166000191681526020019350505050602060405180830381600087803b158015611ed457600080fd5b505af1158015611ee8573d6000803e3d6000fd5b505050506040513d6020811015611efe57600080fd5b81019080805190602001909291905050509250611f1a8a613bee565b9150611f2533613bee565b905060018310151561239857600360009054906101000a900473ffffffffffffffffffffffffffffffffffffffff1673ffffffffffffffffffffffffffffffffffffffff166316614c98338c8a60016040518563ffffffff167c0100000000000000000000000000000000000000000000000000000000028152600401808573ffffffffffffffffffffffffffffffffffffffff1673ffffffffffffffffffffffffffffffffffffffff1681526020018473ffffffffffffffffffffffffffffffffffffffff1673ffffffffffffffffffffffffffffffffffffffff1681526020018360001916600019168152602001828152602001945050505050602060405180830381600087803b15801561203b57600080fd5b505af115801561204f573d6000803e3d6000fd5b505050506040513d602081101561206557600080fd5b81019080805190602001909291905050505043428a8a338e6040516020018087815260200186815260200185858082843782019150508373ffffffffffffffffffffffffffffffffffffffff1673ffffffffffffffffffffffffffffffffffffffff166c010000000000000000000000000281526014018273ffffffffffffffffffffffffffffffffffffffff1673ffffffffffffffffffffffffffffffffffffffff166c0100000000000000000000000002815260140196505050505050506040516020818303038152906040526040518082805190602001908083835b6020831015156121695780518252602082019150602081019050602083039250612144565b6001836020036101000a03801982511681845116808217855250505050505090500191505060405180910390206001900493506121dc848b338a8d8d8080601f01602080910402602001604051908101604052809392919081815260200183838082843782019150505050505086613c01565b81156122d1578973ffffffffffffffffffffffffffffffffffffffff1663de261583858b8b8b8b8b886040518863ffffffff167c010000000000000000000000000000000000000000000000000000000002815260040180888152602001806020018660001916600019168152602001806020018415151515815260200183810383528989828181526020019250808284378201915050838103825286868281815260200192506020028082843782019150509950505050505050505050600060405180830381600087803b1580156122b457600080fd5b505af11580156122c8573d6000803e3d6000fd5b50505050612393565b3373ffffffffffffffffffffffffffffffffffffffff168a73ffffffffffffffffffffffffffffffffffffffff16857f69741cc3ec0270f258feb6b53b42ef1e7d2251a3c8eea4f6ba1f72bd4b7beba78c8c8c8c8c8960405180806020018660001916600019168152602001806020018415151515815260200183810383528989828181526020019250808284378201915050838103825286868281815260200192506020028082843782019150509850505050505050505060405180910390a45b61242c565b6040517f08c379a00000000000000000000000000000000000000000000000000000000081526004018080602001828103825260228152602001807f5375627363726962657220646f6573206e6f74206861766520616e7920646f7481526020017f732e00000000000000000000000000000000000000000000000000000000000081525060400191505060405180910390fd5b5050509695505050505050565b6000809054906101000a900473ffffffffffffffffffffffffffffffffffffffff1681565b600360009054906101000a900473ffffffffffffffffffffffffffffffffffffffff1681565b6000600560009054906101000a900473ffffffffffffffffffffffffffffffffffffffff1673ffffffffffffffffffffffffffffffffffffffff1663a6ed563e8360405160200180807f7175657269657300000000000000000000000000000000000000000000000000815250600701828152602001807f656e64706f696e740000000000000000000000000000000000000000000000008152506008019150506040516020818303038152906040526040518082805190602001908083835b6020831015156125695780518252602082019150602081019050602083039250612544565b6001836020036101000a03801982511681845116808217855250505050505090500191505060405180910390206040518263ffffffff167c0100000000000000000000000000000000000000000000000000000000028152600401808260001916600019168152602001915050602060405180830381600087803b1580156125f057600080fd5b505af1158015612604573d6000803e3d6000fd5b505050506040513d602081101561261a57600080fd5b81019080805190602001909291905050509050919050565b6000809054906101000a900473ffffffffffffffffffffffffffffffffffffffff1673ffffffffffffffffffffffffffffffffffffffff163373ffffffffffffffffffffffffffffffffffffffff1614151561268d57600080fd5b6000809054906101000a900473ffffffffffffffffffffffffffffffffffffffff1673ffffffffffffffffffffffffffffffffffffffff16ff5b6060600560009054906101000a900473ffffffffffffffffffffffffffffffffffffffff1673ffffffffffffffffffffffffffffffffffffffff1663986e791a8360405160200180807f7175657269657300000000000000000000000000000000000000000000000000815250600701828152602001807f75736572517565727900000000000000000000000000000000000000000000008152506009019150506040516020818303038152906040526040518082805190602001908083835b6020831015156127ac5780518252602082019150602081019050602083039250612787565b6001836020036101000a03801982511681845116808217855250505050505090500191505060405180910390206040518263ffffffff167c0100000000000000000000000000000000000000000000000000000000028152600401808260001916600019168152602001915050600060405180830381600087803b15801561283357600080fd5b505af1158015612847573d6000803e3d6000fd5b505050506040513d6000823e3d601f19601f82011682018060405250602081101561287157600080fd5b81019080805164010000000081111561288957600080fd5b8281019050602081018481111561289f57600080fd5b81518560018202830111640100000000821117156128bc57600080fd5b50509291905050509050919050565b600460009054906101000a900473ffffffffffffffffffffffffffffffffffffffff1681565b60003373ffffffffffffffffffffffffffffffffffffffff16612913856114c9565b73ffffffffffffffffffffffffffffffffffffffff1614158061293c575061293a84612dec565b155b1561294657600080fd5b61294f846110a6565b15612a0d5761295d84610c79565b73ffffffffffffffffffffffffffffffffffffffff166399ff48af8585856040518463ffffffff167c0100000000000000000000000000000000000000000000000000000000028152600401808481526020018060200182810382528484828181526020019250602002808284378201915050945050505050600060405180830381600087803b1580156129f057600080fd5b505af1158015612a04573d6000803e3d6000fd5b50505050612a99565b3373ffffffffffffffffffffffffffffffffffffffff16612a2d85610c79565b73ffffffffffffffffffffffffffffffffffffffff16857f9f77e7a9a5b13a5eb3acd7d32b8bffc55d7eb27f4ac09a5b804feaf2bab4c74d8686604051808060200182810382528484828181526020019250602002808284378201915050935050505060405180910390a45b600190509392505050565b6000809054906101000a900473ffffffffffffffffffffffffffffffffffffffff1673ffffffffffffffffffffffffffffffffffffffff163373ffffffffffffffffffffffffffffffffffffffff16141515612aff57600080fd5b600073ffffffffffffffffffffffffffffffffffffffff168173ffffffffffffffffffffffffffffffffffffffff1614151515612b3b57600080fd5b8073ffffffffffffffffffffffffffffffffffffffff166000809054906101000a900473ffffffffffffffffffffffffffffffffffffffff1673ffffffffffffffffffffffffffffffffffffffff167f8be0079c531659141344cd1fd0a4f28419497f9722a3daafe3b4186f6b6457e060405160405180910390a3806000806101000a81548173ffffffffffffffffffffffffffffffffffffffff021916908373ffffffffffffffffffffffffffffffffffffffff16021790555050565b60003373ffffffffffffffffffffffffffffffffffffffff16612c1b876114c9565b73ffffffffffffffffffffffffffffffffffffffff16141580612c445750612c4286612dec565b155b15612c4e57600080fd5b612c57866110a6565b15612d3457612c6586610c79565b73ffffffffffffffffffffffffffffffffffffffff1663f5795cd587878787876040518663ffffffff167c01000000000000000000000000000000000000000000000000000000000281526004018086815260200180602001806020018381038352878782818152602001925080828437820191505083810382528585828181526020019250808284378201915050975050505050505050600060405180830381600087803b158015612d1757600080fd5b505af1158015612d2b573d6000803e3d6000fd5b50505050612ddf565b3373ffffffffffffffffffffffffffffffffffffffff16612d5487610c79565b73ffffffffffffffffffffffffffffffffffffffff16877ff34afe5c6e139b15c1ff3b929a198532242d2d8727db2099925e4e2d8a8fc681888888886040518080602001806020018381038352878782818152602001925080828437820191505083810382528585828181526020019250808284378201915050965050505050505060405180910390a45b6001905095945050505050565b600080600080600080612dfe87611677565b945060016002811115612e0d57fe5b856002811115612e1957fe5b14151515612e8f576040517f08c379a000000000000000000000000000000000000000000000000000000000815260040180806020018281038252601f8152602001807f4572726f723a2053746174757320616c72656164792066756c66696c6c65640081525060200191505060405180910390fd5b612e9887610c79565b9350612ea3876114c9565b9250612eae87612484565b9150600280811115612ebc57fe5b856002811115612ec857fe5b14156130fd57612ed787610918565b90508043141515612f50576040517f08c379a00000000000000000000000000000000000000000000000000000000081526004018080602001828103825260158152602001807f4572726f723a2043616e63656c2069676e6f726564000000000000000000000081525060200191505060405180910390fd5b612f5b87600061359e565b600360009054906101000a900473ffffffffffffffffffffffffffffffffffffffff1673ffffffffffffffffffffffffffffffffffffffff166316614c9885858560016040518563ffffffff167c0100000000000000000000000000000000000000000000000000000000028152600401808573ffffffffffffffffffffffffffffffffffffffff1673ffffffffffffffffffffffffffffffffffffffff1681526020018473ffffffffffffffffffffffffffffffffffffffff1673ffffffffffffffffffffffffffffffffffffffff1681526020018360001916600019168152602001828152602001945050505050602060405180830381600087803b15801561306557600080fd5b505af1158015613079573d6000803e3d6000fd5b505050506040513d602081101561308f57600080fd5b8101908080519060200190929190505050508273ffffffffffffffffffffffffffffffffffffffff168473ffffffffffffffffffffffffffffffffffffffff16887f01aa7d984ab9ef683cf842c6260f8c3d4e2c2c4a32bfa5120bf0f6bcd51225f060405160405180910390a45b613106876145fb565b600360009054906101000a900473ffffffffffffffffffffffffffffffffffffffff1673ffffffffffffffffffffffffffffffffffffffff16633b058aa785858560016040518563ffffffff167c0100000000000000000000000000000000000000000000000000000000028152600401808573ffffffffffffffffffffffffffffffffffffffff1673ffffffffffffffffffffffffffffffffffffffff1681526020018473ffffffffffffffffffffffffffffffffffffffff1673ffffffffffffffffffffffffffffffffffffffff1681526020018360001916600019168152602001828152602001945050505050602060405180830381600087803b15801561321057600080fd5b505af1158015613224573d6000803e3d6000fd5b505050506040513d602081101561323a57600080fd5b81019080805190602001909291905050505081600019168373ffffffffffffffffffffffffffffffffffffffff168573ffffffffffffffffffffffffffffffffffffffff167fd2acd679e4b12e04dac69f514df2934d7bdb622acd5b5ebaea14f3dd70c3d58a60405160405180910390a4600195505050505050919050565b6000600260009054906101000a900473ffffffffffffffffffffffffffffffffffffffff1673ffffffffffffffffffffffffffffffffffffffff1663358177736040518163ffffffff167c01000000000000000000000000000000000000000000000000000000000281526004018080602001828103825260088152602001807f4441544142415345000000000000000000000000000000000000000000000000815250602001915050602060405180830381600087803b15801561337d57600080fd5b505af1158015613391573d6000803e3d6000fd5b505050506040513d60208110156133a757600080fd5b8101908080519060200190929190505050905080600560006101000a81548173ffffffffffffffffffffffffffffffffffffffff021916908373ffffffffffffffffffffffffffffffffffffffff160217905550600260009054906101000a900473ffffffffffffffffffffffffffffffffffffffff1673ffffffffffffffffffffffffffffffffffffffff1663358177736040518163ffffffff167c01000000000000000000000000000000000000000000000000000000000281526004018080602001828103825260078152602001807f424f4e4441474500000000000000000000000000000000000000000000000000815250602001915050602060405180830381600087803b1580156134bd57600080fd5b505af11580156134d1573d6000803e3d6000fd5b505050506040513d60208110156134e757600080fd5b8101908080519060200190929190505050600460006101000a81548173ffffffffffffffffffffffffffffffffffffffff021916908373ffffffffffffffffffffffffffffffffffffffff160217905550600460009054906101000a900473ffffffffffffffffffffffffffffffffffffffff16600360006101000a81548173ffffffffffffffffffffffffffffffffffffffff021916908373ffffffffffffffffffffffffffffffffffffffff16021790555050565b80156138c857600560009054906101000a900473ffffffffffffffffffffffffffffffffffffffff1673ffffffffffffffffffffffffffffffffffffffff166354c552db8360405160200180807f7175657269657300000000000000000000000000000000000000000000000000815250600701828152602001807f63616e63656c426c6f636b000000000000000000000000000000000000000000815250600b019150506040516020818303038152906040526040518082805190602001908083835b6020831015156136875780518252602082019150602081019050602083039250613662565b6001836020036101000a0380198251168184511680821785525050505050509050019150506040518091039020436040518363ffffffff167c010000000000000000000000000000000000000000000000000000000002815260040180836000191660001916815260200182815260200192505050600060405180830381600087803b15801561371657600080fd5b505af115801561372a573d6000803e3d6000fd5b50505050600560009054906101000a900473ffffffffffffffffffffffffffffffffffffffff1673ffffffffffffffffffffffffffffffffffffffff166354c552db8360405160200180807f7175657269657300000000000000000000000000000000000000000000000000815250600701828152602001807f73746174757300000000000000000000000000000000000000000000000000008152506006019150506040516020818303038152906040526040518082805190602001908083835b60208310151561381157805182526020820191506020810190506020830392506137ec565b6001836020036101000a038019825116818451168082178552505050505050905001915050604051809103902060028081111561384a57fe5b6040518363ffffffff167c010000000000000000000000000000000000000000000000000000000002815260040180836000191660001916815260200182815260200192505050600060405180830381600087803b1580156138ab57600080fd5b505af11580156138bf573d6000803e3d6000fd5b50505050613bea565b600560009054906101000a900473ffffffffffffffffffffffffffffffffffffffff1673ffffffffffffffffffffffffffffffffffffffff166354c552db8360405160200180807f7175657269657300000000000000000000000000000000000000000000000000815250600701828152602001807f63616e63656c426c6f636b000000000000000000000000000000000000000000815250600b019150506040516020818303038152906040526040518082805190602001908083835b6020831015156139ab5780518252602082019150602081019050602083039250613986565b6001836020036101000a038019825116818451168082178552505050505050905001915050604051809103902060006040518363ffffffff167c010000000000000000000000000000000000000000000000000000000002815260040180836000191660001916815260200182815260200192505050600060405180830381600087803b158015613a3b57600080fd5b505af1158015613a4f573d6000803e3d6000fd5b50505050600560009054906101000a900473ffffffffffffffffffffffffffffffffffffffff1673ffffffffffffffffffffffffffffffffffffffff166354c552db8360405160200180807f7175657269657300000000000000000000000000000000000000000000000000815250600701828152602001807f73746174757300000000000000000000000000000000000000000000000000008152506006019150506040516020818303038152906040526040518082805190602001908083835b602083101515613b365780518252602082019150602081019050602083039250613b11565b6001836020036101000a038019825116818451168082178552505050505050905001915050604051809103902060006002811115613b7057fe5b6040518363ffffffff167c010000000000000000000000000000000000000000000000000000000002815260040180836000191660001916815260200182815260200192505050600060405180830381600087803b158015613bd157600080fd5b505af1158015613be5573d6000803e3d6000fd5b505050505b5050565b600080823b905060008111915050919050565b600560009054906101000a900473ffffffffffffffffffffffffffffffffffffffff1673ffffffffffffffffffffffffffffffffffffffff166354c552db8760405160200180807f7175657269657300000000000000000000000000000000000000000000000000815250600701828152602001807f70726f76696465720000000000000000000000000000000000000000000000008152506008019150506040516020818303038152906040526040518082805190602001908083835b602083101515613ce45780518252602082019150602081019050602083039250613cbf565b6001836020036101000a03801982511681845116808217855250505050505090500191505060405180910390208773ffffffffffffffffffffffffffffffffffffffff166040518363ffffffff167c010000000000000000000000000000000000000000000000000000000002815260040180836000191660001916815260200182815260200192505050600060405180830381600087803b158015613d8957600080fd5b505af1158015613d9d573d6000803e3d6000fd5b50505050600560009054906101000a900473ffffffffffffffffffffffffffffffffffffffff1673ffffffffffffffffffffffffffffffffffffffff166354c552db8760405160200180807f7175657269657300000000000000000000000000000000000000000000000000815250600701828152602001807f7375627363726962657200000000000000000000000000000000000000000000815250600a019150506040516020818303038152906040526040518082805190602001908083835b602083101515613e845780518252602082019150602081019050602083039250613e5f565b6001836020036101000a03801982511681845116808217855250505050505090500191505060405180910390208673ffffffffffffffffffffffffffffffffffffffff166040518363ffffffff167c010000000000000000000000000000000000000000000000000000000002815260040180836000191660001916815260200182815260200192505050600060405180830381600087803b158015613f2957600080fd5b505af1158015613f3d573d6000803e3d6000fd5b50505050600560009054906101000a900473ffffffffffffffffffffffffffffffffffffffff1673ffffffffffffffffffffffffffffffffffffffff16634e91db088760405160200180807f7175657269657300000000000000000000000000000000000000000000000000815250600701828152602001807f656e64706f696e740000000000000000000000000000000000000000000000008152506008019150506040516020818303038152906040526040518082805190602001908083835b6020831015156140245780518252602082019150602081019050602083039250613fff565b6001836020036101000a0380198251168184511680821785525050505050509050019150506040518091039020856040518363ffffffff167c0100000000000000000000000000000000000000000000000000000000028152600401808360001916600019168152602001826000191660001916815260200192505050600060405180830381600087803b1580156140bb57600080fd5b505af11580156140cf573d6000803e3d6000fd5b50505050600560009054906101000a900473ffffffffffffffffffffffffffffffffffffffff1673ffffffffffffffffffffffffffffffffffffffff16636e8995508760405160200180807f7175657269657300000000000000000000000000000000000000000000000000815250600701828152602001807f75736572517565727900000000000000000000000000000000000000000000008152506009019150506040516020818303038152906040526040518082805190602001908083835b6020831015156141b65780518252602082019150602081019050602083039250614191565b6001836020036101000a0380198251168184511680821785525050505050509050019150506040518091039020846040518363ffffffff167c010000000000000000000000000000000000000000000000000000000002815260040180836000191660001916815260200180602001828103825283818151815260200191508051906020019080838360005b8381101561425d578082015181840152602081019050614242565b50505050905090810190601f16801561428a5780820380516001836020036101000a031916815260200191505b509350505050600060405180830381600087803b1580156142aa57600080fd5b505af11580156142be573d6000803e3d6000fd5b50505050600560009054906101000a900473ffffffffffffffffffffffffffffffffffffffff1673ffffffffffffffffffffffffffffffffffffffff166354c552db8760405160200180807f7175657269657300000000000000000000000000000000000000000000000000815250600701828152602001807f73746174757300000000000000000000000000000000000000000000000000008152506006019150506040516020818303038152906040526040518082805190602001908083835b6020831015156143a55780518252602082019150602081019050602083039250614380565b6001836020036101000a0380198251168184511680821785525050505050509050019150506040518091039020600060028111156143df57fe5b6040518363ffffffff167c010000000000000000000000000000000000000000000000000000000002815260040180836000191660001916815260200182815260200192505050600060405180830381600087803b15801561444057600080fd5b505af1158015614454573d6000803e3d6000fd5b50505050600560009054906101000a900473ffffffffffffffffffffffffffffffffffffffff1673ffffffffffffffffffffffffffffffffffffffff166354c552db8760405160200180807f7175657269657300000000000000000000000000000000000000000000000000815250600701828152602001807f6f6e636861696e537562736372696265720000000000000000000000000000008152506011019150506040516020818303038152906040526040518082805190602001908083835b60208310151561453b5780518252602082019150602081019050602083039250614516565b6001836020036101000a038019825116818451168082178552505050505050905001915050604051809103902083614574576000614577565b60015b6040518363ffffffff167c01000000000000000000000000000000000000000000000000000000000281526004018083600019166000191681526020018260ff16815260200192505050600060405180830381600087803b1580156145db57600080fd5b505af11580156145ef573d6000803e3d6000fd5b50505050505050505050565b600560009054906101000a900473ffffffffffffffffffffffffffffffffffffffff1673ffffffffffffffffffffffffffffffffffffffff166354c552db8260405160200180807f7175657269657300000000000000000000000000000000000000000000000000815250600701828152602001807f73746174757300000000000000000000000000000000000000000000000000008152506006019150506040516020818303038152906040526040518082805190602001908083835b6020831015156146de57805182526020820191506020810190506020830392506146b9565b6001836020036101000a03801982511681845116808217855250505050505090500191505060405180910390206001600281111561471857fe5b6040518363ffffffff167c010000000000000000000000000000000000000000000000000000000002815260040180836000191660001916815260200182815260200192505050600060405180830381600087803b15801561477957600080fd5b505af115801561478d573d6000803e3d6000fd5b50505050505600a165627a7a723058205a2c837ba875424b94d46d1805f1d3340fb42021786256447f4cb80784a6538a0029",
  "source": "pragma solidity ^0.4.24;\n// v1.0\n\nimport \"../../lib/ownership/Upgradable.sol\";\nimport \"../../lib/lifecycle/Destructible.sol\";\nimport \"../../lib/platform/Client.sol\";\nimport \"../../lib/platform/OnChainProvider.sol\";\nimport \"../bondage/BondageInterface.sol\"; \nimport \"./DispatchInterface.sol\";\nimport \"../database/DatabaseInterface.sol\";\n\ncontract Dispatch is Destructible, DispatchInterface, Upgradable { \n\n    enum Status { Pending, Fulfilled, Canceled }\n\n    //event data provider is listening for, containing all relevant request parameters\n    event Incoming(\n        uint256 indexed id,\n        address indexed provider,\n        address indexed subscriber,\n        string query,\n        bytes32 endpoint,\n        bytes32[] endpointParams,\n        bool onchainSubscriber\n    );\n\n    event FulfillQuery(\n        address indexed subscriber,\n        address indexed provider,\n        bytes32 indexed endpoint\n    );\n\n    event OffchainResponse(\n        uint256 indexed id,\n        address indexed subscriber,\n        address indexed provider,\n        bytes32[] response\n    );\n\n    event OffchainResponseInt(\n        uint256 indexed id,\n        address indexed subscriber,\n        address indexed provider,\n        int[] response\n    );\n\n    event OffchainResult1(\n        uint256 indexed id,\n        address indexed subscriber,\n        address indexed provider,\n        string response1\n    );\n\n    event OffchainResult2(\n        uint256 indexed id,\n        address indexed subscriber,\n        address indexed provider,\n        string response1,\n        string response2\n    );\n\n    event OffchainResult3(\n        uint256 indexed id,\n        address indexed subscriber,\n        address indexed provider,\n        string response1,\n        string response2,\n        string response3\n    );\n\n    event OffchainResult4(\n        uint256 indexed id,\n        address indexed subscriber,\n        address indexed provider,\n        string response1,\n        string response2,\n        string response3,\n        string response4\n    );\n\n    event CanceledRequest(\n        uint256 indexed id,\n        address indexed subscriber,\n        address indexed provider\n    );\n\n    event RevertCancelation(\n        uint256 indexed id,\n        address indexed subscriber,\n        address indexed provider\n    );\n\n    BondageInterface public bondage;\n    address public bondageAddress;\n\n    DatabaseInterface public db;\n\n    constructor(address c) Upgradable(c) public {\n        //_updateDependencies();\n    }\n\n    function _updateDependencies() internal {\n        address databaseAddress = coordinator.getContract(\"DATABASE\");\n        db = DatabaseInterface(databaseAddress);\n\n        bondageAddress = coordinator.getContract(\"BONDAGE\");\n        bondage = BondageInterface(bondageAddress);\n    }\n\n    /// @notice Escrow dot for oracle request\n    /// @dev Called by user contract\n    function query(\n        address provider,           // data provider address\n        string userQuery,           // query string\n        bytes32 endpoint,           // endpoint specifier ala 'smart_contract'\n        bytes32[] endpointParams   // endpoint-specific params\n        )\n        external\n        returns (uint256 id)\n    {\n        uint256 dots = bondage.getBoundDots(msg.sender, provider, endpoint);\n        bool onchainProvider = isContract(provider);\n        bool onchainSubscriber = isContract(msg.sender);\n        if(dots >= 1) {\n            //enough dots\n            bondage.escrowDots(msg.sender, provider, endpoint, 1);\n\n            id = uint256(keccak256(abi.encodePacked(block.number, now, userQuery, msg.sender, provider)));\n\n            createQuery(id, provider, msg.sender, endpoint, userQuery, onchainSubscriber);\n            if(onchainProvider) {\n                OnChainProvider(provider).receive(id, userQuery, endpoint, endpointParams, onchainSubscriber); \n            } else{\n                emit Incoming(id, provider, msg.sender, userQuery, endpoint, endpointParams, onchainSubscriber);\n            }\n        } else { // NOT ENOUGH DOTS\n            revert(\"Subscriber does not have any dots.\");\n        }\n    }\n\n    /// @notice Transfer dots from Bondage escrow to data provider's Holder object under its own address\n    /// @dev Called upon data-provider request fulfillment\n    function fulfillQuery(uint256 id) private returns (bool) {\n        Status status = getStatus(id);\n\n        require(status != Status.Fulfilled, \"Error: Status already fulfilled\");\n\n        address subscriber = getSubscriber(id);\n        address provider = getProvider(id);\n        bytes32 endpoint = getEndpoint(id);\n        \n        if ( status == Status.Canceled ) {\n            uint256 canceled = getCancel(id);\n\n            // Make sure we've canceled in the past,\n            // if it's current block ignore the cancel\n            require(block.number == canceled, \"Error: Cancel ignored\");\n\n            // Uncancel the query\n            setCanceled(id, false);\n\n            // Re-escrow the previously returned dots\n            bondage.escrowDots(subscriber, provider, endpoint, 1);\n\n            // Emit the events\n            emit RevertCancelation(id, subscriber, provider);\n        }\n\n        setFulfilled(id);\n\n        bondage.releaseDots(subscriber, provider, endpoint, 1);\n\n        emit FulfillQuery(subscriber, provider, endpoint);\n\n        return true;\n    }\n\n    /// @notice Cancel a query.\n    /// @dev If responded on the same block, ignore the cancel.\n    function cancelQuery(uint256 id) external {\n        address subscriber = getSubscriber(id);\n        address provider = getProvider(id);\n        bytes32 endpoint = getEndpoint(id);\n\n        require(subscriber == msg.sender, \"Error: Wrong subscriber\");\n        require(getStatus(id) == Status.Pending, \"Error: Query is not pending\");\n\n        // Cancel the query\n        setCanceled(id, true);\n\n        // Return the dots to the subscriber\n        bondage.returnDots(subscriber, provider, endpoint, 1);\n\n        // Release an event\n        emit CanceledRequest(id, getSubscriber(id), getProvider(id));\n    }\n\n    /// @dev Parameter-count specific method called by data provider in response\n    function respondBytes32Array(\n        uint256 id,\n        bytes32[] response\n    )\n        external\n        returns (bool)\n    {\n        if (getProvider(id) != msg.sender || !fulfillQuery(id))\n            revert();\n        if(getSubscriberOnchain(id)) {\n            ClientBytes32Array(getSubscriber(id)).callback(id, response);\n        }\n        else {\n            emit OffchainResponse(id, getSubscriber(id), msg.sender, response);\n        }\n        return true;\n    }\n\n    /// @dev Parameter-count specific method called by data provider in response\n    function respondIntArray(\n        uint256 id,\n        int[] response\n    )\n        external\n        returns (bool)\n    {\n        if (getProvider(id) != msg.sender || !fulfillQuery(id))\n            revert();\n        if(getSubscriberOnchain(id)) {\n            ClientIntArray(getSubscriber(id)).callback(id, response);\n        }\n        else {\n            emit OffchainResponseInt(id, getSubscriber(id), msg.sender, response);\n        }\n        return true;\n    }\n\n\n    /// @dev Parameter-count specific method called by data provider in response\n    function respond1(\n        uint256 id,\n        string response\n    )\n        external\n        returns (bool)\n    {\n        if (getProvider(id) != msg.sender || !fulfillQuery(id))\n            revert();\n\n        if(getSubscriberOnchain(id)) {\n            Client1(getSubscriber(id)).callback(id, response);\n        }\n        else {\n            emit OffchainResult1(id, getSubscriber(id), msg.sender, response);\n        }\n        return true;\n    }\n\n    /// @dev Parameter-count specific method called by data provider in response\n    function respond2(\n        uint256 id,\n        string response1,\n        string response2\n    )\n        external\n        returns (bool)\n    {\n        if (getProvider(id) != msg.sender || !fulfillQuery(id))\n            revert();\n\n        if(getSubscriberOnchain(id)) {\n            Client2(getSubscriber(id)).callback(id, response1, response2);\n        }\n        else {\n            emit OffchainResult2(id, getSubscriber(id), msg.sender, response1, response2);\n        }\n\n        return true;\n    }\n\n    /// @dev Parameter-count specific method called by data provider in response\n    function respond3(\n        uint256 id,\n        string response1,\n        string response2,\n        string response3\n    )\n        external\n        returns (bool)\n    {\n        if (getProvider(id) != msg.sender || !fulfillQuery(id))\n            revert();\n\n        if(getSubscriberOnchain(id)) {\n            Client3(getSubscriber(id)).callback(id, response1, response2, response3);\n        }\n        else {\n            emit OffchainResult3(id, getSubscriber(id), msg.sender, response1, response2, response3);\n        }\n\n        return true;\n    }\n\n    /// @dev Parameter-count specific method called by data provider in response\n    function respond4(\n        uint256 id,\n        string response1,\n        string response2,\n        string response3,\n        string response4\n    )\n        external\n        returns (bool)\n    {\n        if (getProvider(id) != msg.sender || !fulfillQuery(id))\n            revert();\n\n        if(getSubscriberOnchain(id)) {\n            Client4(getSubscriber(id)).callback(id, response1, response2, response3, response4);\n        }\n        else {\n            emit OffchainResult4(id, getSubscriber(id), msg.sender, response1, response2, response3, response4);\n        }\n\n        return true;\n    }\n\n    /*** STORAGE METHODS ***/\n\n    /// @dev get provider address of request\n    /// @param id request id\n    function getProvider(uint256 id) public view returns (address) {\n        return address(db.getNumber(keccak256(abi.encodePacked('queries', id, 'provider'))));\n    }\n\n    /// @dev get subscriber address of request\n    /// @param id request id\n    function getSubscriber(uint256 id) public view returns (address) {\n        return address(db.getNumber(keccak256(abi.encodePacked('queries', id, 'subscriber'))));\n    }\n\n    /// @dev get endpoint of request\n    /// @param id request id\n    function getEndpoint(uint256 id) public view returns (bytes32) {\n        return db.getBytes32(keccak256(abi.encodePacked('queries', id, 'endpoint')));\n    }\n\n    /// @dev get status of request\n    /// @param id request id\n    function getStatus(uint256 id) public view returns (Status) {\n        return Status(db.getNumber(keccak256(abi.encodePacked('queries', id, 'status'))));\n    }\n\n    /// @dev get the cancelation block of a request\n    /// @param id request id\n    function getCancel(uint256 id) public view returns (uint256) {\n        return db.getNumber(keccak256(abi.encodePacked('queries', id, 'cancelBlock')));\n    }\n\n    /// @dev get user specified query of request\n    /// @param id request id\n    function getUserQuery(uint256 id) public view returns (string) {\n        return db.getString(keccak256(abi.encodePacked('queries', id, 'userQuery')));\n    }\n\n    /// @dev is subscriber contract or offchain \n    /// @param id request id\n    function getSubscriberOnchain(uint256 id) public view returns (bool) {\n        uint res = db.getNumber(keccak256(abi.encodePacked('queries', id, 'onchainSubscriber')));\n        return res == 1 ? true : false;\n    }\n \n    /**** Set Methods ****/\n    function createQuery(\n        uint256 id,\n        address provider,\n        address subscriber,\n        bytes32 endpoint,\n        string userQuery,\n        bool onchainSubscriber\n    ) \n        private\n    {\n        db.setNumber(keccak256(abi.encodePacked('queries', id, 'provider')), uint256(provider));\n        db.setNumber(keccak256(abi.encodePacked('queries', id, 'subscriber')), uint256(subscriber));\n        db.setBytes32(keccak256(abi.encodePacked('queries', id, 'endpoint')), endpoint);\n        db.setString(keccak256(abi.encodePacked('queries', id, 'userQuery')), userQuery);\n        db.setNumber(keccak256(abi.encodePacked('queries', id, 'status')), uint256(Status.Pending));\n        db.setNumber(keccak256(abi.encodePacked('queries', id, 'onchainSubscriber')), onchainSubscriber ? 1 : 0);\n    }\n\n    function setFulfilled(uint256 id) private {\n        db.setNumber(keccak256(abi.encodePacked('queries', id, 'status')), uint256(Status.Fulfilled));\n    }\n\n    function setCanceled(uint256 id, bool canceled) private {\n        if ( canceled ) {\n            db.setNumber(keccak256(abi.encodePacked('queries', id, 'cancelBlock')), block.number);\n            db.setNumber(keccak256(abi.encodePacked('queries', id, 'status')), uint256(Status.Canceled));\n        }\n        else {\n            db.setNumber(keccak256(abi.encodePacked('queries', id, 'cancelBlock')), 0);\n            db.setNumber(keccak256(abi.encodePacked('queries', id, 'status')), uint256(Status.Pending));            \n        }\n    }\n\n    function isContract(address addr) private view returns (bool) {\n        uint size;\n        assembly { size := extcodesize(addr) }\n        return size > 0;\n    }\n}\n\n/*\n/* For use in example contract, see TestContracts.sol\n/*\n/* When User Contract calls ZapDispatch.query(),\n/* 1 oracle specific dot is escrowed by ZapBondage and Incoming event is ted.\n/*\n/* When provider's client hears an Incoming event containing provider's address and responds,\n/* the provider calls a ZapDispatch.respondX function corresponding to number of response params.\n/*\n/* Dots are moved from ZapBondage escrow to data-provider's bond Holder struct,\n/* with data provider address set as self's address.\n/*/ \n\n/*************************************** STORAGE ****************************************\n* 'queries', id, 'provider' => {address} address of provider that this query was sent to\n* 'queries', id, 'subscriber' => {address} address of subscriber that this query was sent by\n* 'queries', id, 'endpoint' => {bytes32} endpoint that this query was sent to\n* 'queries', id, 'status' => {Status} current status of this query\n* 'queries', id, 'cancelBlock' => {uint256} the block number of the cancellation request (0 if none)\n* 'queries', id, 'userQuery' => {uint256} the query that was sent with this queryId\n* 'queries', id, 'onchainSubscriber' => {uint256} 1 -> onchainSubscriber, 0 -> offchainSubscriber\n****************************************************************************************/\n",
  "sourcePath": "/home/xv702/2zap/multiparty-oracle/contracts/zap/platform/dispatch/Dispatch.sol",
  "compiler": {
    "name": "solc",
    "version": "0.4.24+commit.e67f0147.Emscripten.clang"
  },
  "schemaVersion": "2.0.1",
  "updatedAt": "2019-05-28T18:14:28.734Z"
}