{
  "contractName": "MPOStorage",
  "abi": [
    {
      "constant": false,
      "inputs": [
        {
          "name": "_threshold",
          "type": "uint256"
        }
      ],
      "name": "setThreshold",
      "outputs": [],
      "payable": false,
      "stateMutability": "nonpayable",
      "type": "function"
    },
    {
      "constant": false,
      "inputs": [
        {
          "name": "parties",
          "type": "address[]"
        }
      ],
      "name": "setResponders",
      "outputs": [],
      "payable": false,
      "stateMutability": "nonpayable",
      "type": "function"
    },
    {
      "constant": false,
      "inputs": [
        {
          "name": "queryId",
          "type": "uint256"
        },
        {
          "name": "response",
          "type": "string"
        }
      ],
      "name": "addResponse",
      "outputs": [],
      "payable": false,
      "stateMutability": "nonpayable",
      "type": "function"
    },
    {
      "constant": false,
      "inputs": [],
      "name": "getThreshold",
      "outputs": [
        {
          "name": "",
          "type": "uint256"
        }
      ],
      "payable": false,
      "stateMutability": "nonpayable",
      "type": "function"
    },
    {
      "constant": false,
      "inputs": [
        {
          "name": "party",
          "type": "address"
        }
      ],
      "name": "getAddressStatus",
      "outputs": [
        {
          "name": "",
          "type": "bool"
        }
      ],
      "payable": false,
      "stateMutability": "nonpayable",
      "type": "function"
    },
    {
      "constant": false,
      "inputs": [
        {
          "name": "queryId",
          "type": "uint256"
        },
        {
          "name": "response",
          "type": "string"
        }
      ],
      "name": "getTally",
      "outputs": [
        {
          "name": "",
          "type": "uint256"
        }
      ],
      "payable": false,
      "stateMutability": "nonpayable",
      "type": "function"
    }
  ],
  "bytecode": "0x608060405234801561001057600080fd5b5061063c806100206000396000f300608060405260043610610078576000357c0100000000000000000000000000000000000000000000000000000000900463ffffffff1680631380556a1461007d578063664c0bf914610104578063960bfe041461016a578063a9a44b4b14610197578063e226a1b61461020a578063e75235b814610265575b600080fd5b34801561008957600080fd5b506100ee60048036038101908080359060200190929190803590602001908201803590602001908080601f0160208091040260200160405190810160405280939291908181526020018383808284378201915050505050509192919290505050610290565b6040518082815260200191505060405180910390f35b34801561011057600080fd5b5061016860048036038101908080359060200190820180359060200190808060200260200160405190810160405280939291908181526020018383602002808284378201915050505050509192919290505050610317565b005b34801561017657600080fd5b5061019560048036038101908080359060200190929190505050610422565b005b3480156101a357600080fd5b5061020860048036038101908080359060200190929190803590602001908201803590602001908080601f016020809104026020016040519081016040528093929190818152602001838380828437820191505050505050919291929050505061042c565b005b34801561021657600080fd5b5061024b600480360381019080803573ffffffffffffffffffffffffffffffffffffffff16906020019092919050505061050b565b604051808215151515815260200191505060405180910390f35b34801561027157600080fd5b5061027a610561565b6040518082815260200191505060405180910390f35b600060026000848152602001908152602001600020826040518082805190602001908083835b6020831015156102db57805182526020820191506020810190506020830392506102b6565b6001836020036101000a038019825116818451168082178552505050505050905001915050908152602001604051809103902054905092915050565b60008090505b815181101561041e576004828281518110151561033657fe5b9060200190602002015190806001815401808255809150509060018203906000526020600020016000909192909190916101000a81548173ffffffffffffffffffffffffffffffffffffffff021916908373ffffffffffffffffffffffffffffffffffffffff16021790555050600180600084848151811015156103b657fe5b9060200190602002015173ffffffffffffffffffffffffffffffffffffffff1673ffffffffffffffffffffffffffffffffffffffff16815260200190815260200160002060006101000a81548160ff021916908315150217905550808060010191505061031d565b5050565b8060038190555050565b60008083815260200190815260200160002081908060018154018082558091505090600182039060005260206000200160009091929091909150908051906020019061047992919061056b565b505060026000838152602001908152602001600020816040518082805190602001908083835b6020831015156104c4578051825260208201915060208101905060208303925061049f565b6001836020036101000a0380198251168184511680821785525050505050509050019150509081526020016040518091039020600081548092919060010191905055505050565b6000600160008373ffffffffffffffffffffffffffffffffffffffff1673ffffffffffffffffffffffffffffffffffffffff16815260200190815260200160002060009054906101000a900460ff169050919050565b6000600354905090565b828054600181600116156101000203166002900490600052602060002090601f016020900481019282601f106105ac57805160ff19168380011785556105da565b828001600101855582156105da579182015b828111156105d95782518255916020019190600101906105be565b5b5090506105e791906105eb565b5090565b61060d91905b808211156106095760008160009055506001016105f1565b5090565b905600a165627a7a723058209bf6213a9c11e74b6585aa8738944b7729ba8bcb04d8418d4aa87a2982a385a30029",
  "source": "pragma solidity ^0.4.24;\n\ncontract MPOStorage{\n\n\n\n\n//TODO maybe have a thresholdFull event?\n\tmapping(uint256 => string[]) queryResponses;\n\tmapping(address => bool) approvedAddress;\n\n\tmapping(uint256 => mapping(string=>uint256) ) responseTally;\n\tuint256 threshold;\n\taddress[] responders;\n\t//Set Methods/Mutators\n\n\tfunction setThreshold(uint256 _threshold){\n\t\tthreshold = _threshold;\n\t}\n\tfunction setResponders(address[] parties){\n\t\tfor(uint256 i=0;i<parties.length;i++){\n\t\t\tresponders.push(parties[i]);\n\t\t\tapprovedAddress[parties[i]]=true;\n\t\t}\n\t}\n\tfunction addResponse(uint256 queryId, string response){\n\t\tqueryResponses[queryId].push(response);\n\t\tresponseTally[queryId][response]++;\n\t}\n\n\t//Get Methods/Accessors\n\t/* function getResponses(uint256 queryId) returns(string[]){\n\t\t return queryResponses[queryId];\n\t} */\n\tfunction getThreshold() returns(uint){\n\t\treturn threshold;\n\t}\n\tfunction getAddressStatus(address party) returns(bool){\n\t\treturn approvedAddress[party];\n\t}\n\tfunction getTally(uint256 queryId, string response) returns(uint256){\n\t\treturn responseTally[queryId][response];\n\n\t}\n\n}\n",
  "sourcePath": "/home/intern1/Projects/multipartyoracle/contracts/MPOStorage.sol",
  "compiler": {
    "name": "solc",
    "version": "0.4.24+commit.e67f0147.Emscripten.clang"
  },
  "schemaVersion": "2.0.0",
  "updatedAt": "2018-06-19T23:17:49.932Z"
}