{
  "contractName": "MPOStorage",
  "abi": [
    {
      "constant": true,
      "inputs": [],
      "name": "owner",
      "outputs": [
        {
          "name": "",
          "type": "address"
        }
      ],
      "payable": false,
      "stateMutability": "view",
      "type": "function"
    },
    {
      "constant": false,
      "inputs": [
        {
          "name": "newOwner",
          "type": "address"
        }
      ],
      "name": "transferOwnership",
      "outputs": [],
      "payable": false,
      "stateMutability": "nonpayable",
      "type": "function"
    },
    {
      "anonymous": false,
      "inputs": [
        {
          "indexed": true,
          "name": "previousOwner",
          "type": "address"
        },
        {
          "indexed": true,
          "name": "newOwner",
          "type": "address"
        }
      ],
      "name": "OwnershipTransferred",
      "type": "event"
    },
    {
      "constant": false,
      "inputs": [
        {
          "name": "queryId",
          "type": "uint256"
        },
        {
          "name": "_threshold",
          "type": "uint256"
        }
      ],
      "name": "setThreshold",
      "outputs": [],
      "payable": false,
      "stateMutability": "nonpayable",
      "type": "function"
    },
    {
      "constant": false,
      "inputs": [
        {
          "name": "mpoId",
          "type": "uint256"
        },
        {
          "name": "_clientQueryId",
          "type": "uint256"
        }
      ],
      "name": "setClientQueryId",
      "outputs": [],
      "payable": false,
      "stateMutability": "nonpayable",
      "type": "function"
    },
    {
      "constant": false,
      "inputs": [
        {
          "name": "parties",
          "type": "address[]"
        }
      ],
      "name": "setResponders",
      "outputs": [],
      "payable": false,
      "stateMutability": "nonpayable",
      "type": "function"
    },
    {
      "constant": false,
      "inputs": [
        {
          "name": "queryId",
          "type": "uint256"
        },
        {
          "name": "sender",
          "type": "address"
        }
      ],
      "name": "reachedThreshold",
      "outputs": [],
      "payable": false,
      "stateMutability": "nonpayable",
      "type": "function"
    },
    {
      "constant": false,
      "inputs": [
        {
          "name": "queryId",
          "type": "uint256"
        },
        {
          "name": "status",
          "type": "uint256"
        }
      ],
      "name": "setQueryStatus",
      "outputs": [],
      "payable": false,
      "stateMutability": "nonpayable",
      "type": "function"
    },
    {
      "constant": false,
      "inputs": [
        {
          "name": "queryId",
          "type": "uint256"
        },
        {
          "name": "response",
          "type": "uint256"
        }
      ],
      "name": "tallyResponse",
      "outputs": [],
      "payable": false,
      "stateMutability": "nonpayable",
      "type": "function"
    },
    {
      "constant": false,
      "inputs": [
        {
          "name": "queryId",
          "type": "uint256"
        },
        {
          "name": "responder",
          "type": "address"
        }
      ],
      "name": "tallyAddress",
      "outputs": [],
      "payable": false,
      "stateMutability": "nonpayable",
      "type": "function"
    },
    {
      "constant": false,
      "inputs": [
        {
          "name": "queryId",
          "type": "uint256"
        },
        {
          "name": "party",
          "type": "address"
        }
      ],
      "name": "addResponse",
      "outputs": [],
      "payable": false,
      "stateMutability": "nonpayable",
      "type": "function"
    },
    {
      "constant": false,
      "inputs": [
        {
          "name": "queryId",
          "type": "uint256"
        },
        {
          "name": "response",
          "type": "uint256"
        }
      ],
      "name": "addThresholdResponse",
      "outputs": [],
      "payable": false,
      "stateMutability": "nonpayable",
      "type": "function"
    },
    {
      "constant": false,
      "inputs": [
        {
          "name": "queryId",
          "type": "uint256"
        },
        {
          "name": "_delta",
          "type": "uint256"
        }
      ],
      "name": "setDelta",
      "outputs": [],
      "payable": false,
      "stateMutability": "nonpayable",
      "type": "function"
    },
    {
      "constant": false,
      "inputs": [
        {
          "name": "queryId",
          "type": "uint256"
        },
        {
          "name": "_precision",
          "type": "uint256"
        }
      ],
      "name": "setPrecision",
      "outputs": [],
      "payable": false,
      "stateMutability": "nonpayable",
      "type": "function"
    },
    {
      "constant": true,
      "inputs": [
        {
          "name": "queryId",
          "type": "uint256"
        },
        {
          "name": "party",
          "type": "address"
        }
      ],
      "name": "onlyOneResponse",
      "outputs": [
        {
          "name": "",
          "type": "bool"
        }
      ],
      "payable": false,
      "stateMutability": "view",
      "type": "function"
    },
    {
      "constant": true,
      "inputs": [
        {
          "name": "queryId",
          "type": "uint256"
        },
        {
          "name": "party",
          "type": "address"
        }
      ],
      "name": "getThresholdStatus",
      "outputs": [
        {
          "name": "",
          "type": "bool"
        }
      ],
      "payable": false,
      "stateMutability": "view",
      "type": "function"
    },
    {
      "constant": true,
      "inputs": [
        {
          "name": "party",
          "type": "address"
        }
      ],
      "name": "getAddressStatus",
      "outputs": [
        {
          "name": "",
          "type": "bool"
        }
      ],
      "payable": false,
      "stateMutability": "view",
      "type": "function"
    },
    {
      "constant": true,
      "inputs": [
        {
          "name": "queryId",
          "type": "uint256"
        }
      ],
      "name": "getThreshold",
      "outputs": [
        {
          "name": "",
          "type": "uint256"
        }
      ],
      "payable": false,
      "stateMutability": "view",
      "type": "function"
    },
    {
      "constant": true,
      "inputs": [
        {
          "name": "queryId",
          "type": "uint256"
        },
        {
          "name": "response",
          "type": "uint256"
        }
      ],
      "name": "getTally",
      "outputs": [
        {
          "name": "",
          "type": "uint256"
        }
      ],
      "payable": false,
      "stateMutability": "view",
      "type": "function"
    },
    {
      "constant": true,
      "inputs": [
        {
          "name": "queryId",
          "type": "uint256"
        },
        {
          "name": "responder",
          "type": "address"
        }
      ],
      "name": "getAddressTally",
      "outputs": [
        {
          "name": "",
          "type": "uint256"
        }
      ],
      "payable": false,
      "stateMutability": "view",
      "type": "function"
    },
    {
      "constant": true,
      "inputs": [
        {
          "name": "queryId",
          "type": "uint256"
        },
        {
          "name": "responder",
          "type": "address"
        }
      ],
      "name": "getAddressResponse",
      "outputs": [
        {
          "name": "",
          "type": "uint256"
        }
      ],
      "payable": false,
      "stateMutability": "view",
      "type": "function"
    },
    {
      "constant": true,
      "inputs": [
        {
          "name": "mpoId",
          "type": "uint256"
        }
      ],
      "name": "getClientQueryId",
      "outputs": [
        {
          "name": "",
          "type": "uint256"
        }
      ],
      "payable": false,
      "stateMutability": "view",
      "type": "function"
    },
    {
      "constant": true,
      "inputs": [
        {
          "name": "queryId",
          "type": "uint256"
        }
      ],
      "name": "getQueryStatus",
      "outputs": [
        {
          "name": "",
          "type": "uint256"
        }
      ],
      "payable": false,
      "stateMutability": "view",
      "type": "function"
    },
    {
      "constant": true,
      "inputs": [
        {
          "name": "queryId",
          "type": "uint256"
        }
      ],
      "name": "getThresholdResponses",
      "outputs": [
        {
          "name": "",
          "type": "uint256[]"
        }
      ],
      "payable": false,
      "stateMutability": "view",
      "type": "function"
    },
    {
      "constant": true,
      "inputs": [],
      "name": "getNumResponders",
      "outputs": [
        {
          "name": "",
          "type": "uint256"
        }
      ],
      "payable": false,
      "stateMutability": "view",
      "type": "function"
    },
    {
      "constant": true,
      "inputs": [
        {
          "name": "index",
          "type": "uint256"
        }
      ],
      "name": "getResponderAddress",
      "outputs": [
        {
          "name": "",
          "type": "address"
        }
      ],
      "payable": false,
      "stateMutability": "view",
      "type": "function"
    },
    {
      "constant": true,
      "inputs": [],
      "name": "getResponders",
      "outputs": [
        {
          "name": "",
          "type": "address[]"
        }
      ],
      "payable": false,
      "stateMutability": "view",
      "type": "function"
    },
    {
      "constant": true,
      "inputs": [
        {
          "name": "queryId",
          "type": "uint256"
        }
      ],
      "name": "getResponses",
      "outputs": [
        {
          "name": "",
          "type": "uint256[]"
        }
      ],
      "payable": false,
      "stateMutability": "view",
      "type": "function"
    },
    {
      "constant": true,
      "inputs": [
        {
          "name": "queryId",
          "type": "uint256"
        }
      ],
      "name": "getDelta",
      "outputs": [
        {
          "name": "",
          "type": "uint256"
        }
      ],
      "payable": false,
      "stateMutability": "view",
      "type": "function"
    },
    {
      "constant": true,
      "inputs": [
        {
          "name": "queryId",
          "type": "uint256"
        }
      ],
      "name": "getPrecision",
      "outputs": [
        {
          "name": "",
          "type": "uint256"
        }
      ],
      "payable": false,
      "stateMutability": "view",
      "type": "function"
    },
    {
      "constant": true,
      "inputs": [
        {
          "name": "queryId",
          "type": "uint256"
        }
      ],
      "name": "getQueryThreshold",
      "outputs": [
        {
          "name": "",
          "type": "bool"
        }
      ],
      "payable": false,
      "stateMutability": "view",
      "type": "function"
    },
    {
      "constant": true,
      "inputs": [
        {
          "name": "queryId",
          "type": "uint256"
        }
      ],
      "name": "getAverage",
      "outputs": [
        {
          "name": "",
          "type": "int256[]"
        }
      ],
      "payable": false,
      "stateMutability": "view",
      "type": "function"
    }
  ],
  "bytecode": "0x60806040526005601155336000806101000a81548173ffffffffffffffffffffffffffffffffffffffff021916908373ffffffffffffffffffffffffffffffffffffffff160217905550611b6f806100586000396000f30060806040526004361061018b576000357c0100000000000000000000000000000000000000000000000000000000900463ffffffff168063090d42591461019057806312faae93146101dd5780631518ec5614610249578063287d3d36146102aa5780633b7bff7f146102f75780634155b8501461033c5780634615d5e9146103a95780634c0f8073146103ea5780634c5738281461043757806350d48de01461047857806356322586146104dd5780635ba4edb61461051e578063602bb04f14610555578063664c0bf9146105805780636cc9354f146105bb5780636f07abcc146105fc57806371ee2ce11461063d578063732d161c146106bf5780637d210c311461074157806381f668441461077857806387e02828146107af5780638be8f272146108105780638da5cb5b14610847578063b9c362091461089e578063bdbc0153146108d5578063cdae1fba14610957578063e226a1b6146109a2578063e600505f146109fd578063f2fde38b14610a34578063f43fd6f014610a77578063fe151a9614610aae575b600080fd5b34801561019c57600080fd5b506101db60048036038101908080359060200190929190803573ffffffffffffffffffffffffffffffffffffffff169060200190929190505050610b13565b005b3480156101e957600080fd5b506101f2610bd2565b6040518080602001828103825283818151815260200191508051906020019060200280838360005b8381101561023557808201518184015260208101905061021a565b505050509050019250505060405180910390f35b34801561025557600080fd5b5061029460048036038101908080359060200190929190803573ffffffffffffffffffffffffffffffffffffffff169060200190929190505050610c60565b6040518082815260200191505060405180910390f35b3480156102b657600080fd5b506102f560048036038101908080359060200190929190803573ffffffffffffffffffffffffffffffffffffffff169060200190929190505050610cbb565b005b34801561030357600080fd5b5061032260048036038101908080359060200190929190505050610d83565b604051808215151515815260200191505060405180910390f35b34801561034857600080fd5b5061036760048036038101908080359060200190929190505050610dad565b604051808273ffffffffffffffffffffffffffffffffffffffff1673ffffffffffffffffffffffffffffffffffffffff16815260200191505060405180910390f35b3480156103b557600080fd5b506103d460048036038101908080359060200190929190505050610df0565b6040518082815260200191505060405180910390f35b3480156103f657600080fd5b5061043560048036038101908080359060200190929190803573ffffffffffffffffffffffffffffffffffffffff169060200190929190505050610e0d565b005b34801561044357600080fd5b5061046260048036038101908080359060200190929190505050610f01565b6040518082815260200191505060405180910390f35b34801561048457600080fd5b506104c360048036038101908080359060200190929190803573ffffffffffffffffffffffffffffffffffffffff169060200190929190505050610f1e565b604051808215151515815260200191505060405180910390f35b3480156104e957600080fd5b5061050860048036038101908080359060200190929190505050610f86565b6040518082815260200191505060405180910390f35b34801561052a57600080fd5b506105536004803603810190808035906020019092919080359060200190929190505050610fa3565b005b34801561056157600080fd5b5061056a610fbf565b6040518082815260200191505060405180910390f35b34801561058c57600080fd5b506105b9600480360381019080803590602001908201803590602001919091929391929390505050610fc9565b005b3480156105c757600080fd5b506105e660048036038101908080359060200190929190505050611101565b6040518082815260200191505060405180910390f35b34801561060857600080fd5b506106276004803603810190808035906020019092919050505061111e565b6040518082815260200191505060405180910390f35b34801561064957600080fd5b506106686004803603810190808035906020019092919050505061113b565b6040518080602001828103825283818151815260200191508051906020019060200280838360005b838110156106ab578082015181840152602081019050610690565b505050509050019250505060405180910390f35b3480156106cb57600080fd5b506106ea600480360381019080803590602001909291905050506111a6565b6040518080602001828103825283818151815260200191508051906020019060200280838360005b8381101561072d578082015181840152602081019050610712565b505050509050019250505060405180910390f35b34801561074d57600080fd5b506107766004803603810190808035906020019092919080359060200190929190505050611483565b005b34801561078457600080fd5b506107ad6004803603810190808035906020019092919080359060200190929190505050611516565b005b3480156107bb57600080fd5b506107fa60048036038101908080359060200190929190803573ffffffffffffffffffffffffffffffffffffffff16906020019092919050505061158d565b6040518082815260200191505060405180910390f35b34801561081c57600080fd5b5061084560048036038101908080359060200190929190803590602001909291905050506115e8565b005b34801561085357600080fd5b5061085c61165f565b604051808273ffffffffffffffffffffffffffffffffffffffff1673ffffffffffffffffffffffffffffffffffffffff16815260200191505060405180910390f35b3480156108aa57600080fd5b506108d36004803603810190808035906020019092919080359060200190929190505050611684565b005b3480156108e157600080fd5b50610900600480360381019080803590602001909291905050506116fb565b6040518080602001828103825283818151815260200191508051906020019060200280838360005b83811015610943578082015181840152602081019050610928565b505050509050019250505060405180910390f35b34801561096357600080fd5b5061098c6004803603810190808035906020019092919080359060200190929190505050611766565b6040518082815260200191505060405180910390f35b3480156109ae57600080fd5b506109e3600480360381019080803573ffffffffffffffffffffffffffffffffffffffff169060200190929190505050611795565b604051808215151515815260200191505060405180910390f35b348015610a0957600080fd5b50610a3260048036038101908080359060200190929190803590602001909291905050506117eb565b005b348015610a4057600080fd5b50610a75600480360381019080803573ffffffffffffffffffffffffffffffffffffffff169060200190929190505050611807565b005b348015610a8357600080fd5b50610aac600480360381019080803590602001909291908035906020019092919050505061195c565b005b348015610aba57600080fd5b50610af960048036038101908080359060200190929190803573ffffffffffffffffffffffffffffffffffffffff1690602001909291905050506119f8565b604051808215151515815260200191505060405180910390f35b6000809054906101000a900473ffffffffffffffffffffffffffffffffffffffff1673ffffffffffffffffffffffffffffffffffffffff163373ffffffffffffffffffffffffffffffffffffffff16141515610b6e57600080fd5b6007600083815260200190815260200160002060008273ffffffffffffffffffffffffffffffffffffffff1673ffffffffffffffffffffffffffffffffffffffff168152602001908152602001600020600081548092919060010191905055505050565b60606010805480602002602001604051908101604052809291908181526020018280548015610c5657602002820191906000526020600020905b8160009054906101000a900473ffffffffffffffffffffffffffffffffffffffff1673ffffffffffffffffffffffffffffffffffffffff1681526020019060010190808311610c0c575b5050505050905090565b60006007600084815260200190815260200160002060008373ffffffffffffffffffffffffffffffffffffffff1673ffffffffffffffffffffffffffffffffffffffff16815260200190815260200160002054905092915050565b6000809054906101000a900473ffffffffffffffffffffffffffffffffffffffff1673ffffffffffffffffffffffffffffffffffffffff163373ffffffffffffffffffffffffffffffffffffffff16141515610d1657600080fd5b6001600b600084815260200190815260200160002060008373ffffffffffffffffffffffffffffffffffffffff1673ffffffffffffffffffffffffffffffffffffffff16815260200190815260200160002060006101000a81548160ff0219169083151502179055505050565b60006003600083815260200190815260200160002060009054906101000a900460ff169050919050565b6000601082815481101515610dbe57fe5b9060005260206000200160009054906101000a900473ffffffffffffffffffffffffffffffffffffffff169050919050565b6000600f6000838152602001908152602001600020549050919050565b6000809054906101000a900473ffffffffffffffffffffffffffffffffffffffff1673ffffffffffffffffffffffffffffffffffffffff163373ffffffffffffffffffffffffffffffffffffffff16141515610e6857600080fd5b60016002600084815260200190815260200160002060008373ffffffffffffffffffffffffffffffffffffffff1673ffffffffffffffffffffffffffffffffffffffff16815260200190815260200160002060006101000a81548160ff02191690831515021790555060016003600084815260200190815260200160002060006101000a81548160ff0219169083151502179055505050565b6000600d6000838152602001908152602001600020549050919050565b60006002600084815260200190815260200160002060008373ffffffffffffffffffffffffffffffffffffffff1673ffffffffffffffffffffffffffffffffffffffff16815260200190815260200160002060009054906101000a900460ff16905092915050565b6000600e6000838152602001908152602001600020549050919050565b80600e6000848152602001908152602001600020819055505050565b6000601154905090565b60008060009054906101000a900473ffffffffffffffffffffffffffffffffffffffff1673ffffffffffffffffffffffffffffffffffffffff163373ffffffffffffffffffffffffffffffffffffffff1614151561102657600080fd5b828260109190611037929190611a60565b5082829050601154111561105057828290506011819055505b600090505b6011548110156110fc57600180600060108481548110151561107357fe5b9060005260206000200160009054906101000a900473ffffffffffffffffffffffffffffffffffffffff1673ffffffffffffffffffffffffffffffffffffffff1673ffffffffffffffffffffffffffffffffffffffff16815260200190815260200160002060006101000a81548160ff0219169083151502179055508080600101915050611055565b505050565b6000600c6000838152602001908152602001600020549050919050565b600060046000838152602001908152602001600020549050919050565b60606008600083815260200190815260200160002080548060200260200160405190810160405280929190818152602001828054801561119a57602002820191906000526020600020905b815481526020019060010190808311611186575b50505050509050919050565b60606000806000606060006010805490501415151561122d576040517f08c379a000000000000000000000000000000000000000000000000000000000815260040180806020018281038252600e8152602001807f4469766973696f6e206572726f7200000000000000000000000000000000000081525060200191505060405180910390fd5b6000935060009250600091505b6011548210156113845760026000878152602001908152602001600020600060108481548110151561126857fe5b9060005260206000200160009054906101000a900473ffffffffffffffffffffffffffffffffffffffff1673ffffffffffffffffffffffffffffffffffffffff1673ffffffffffffffffffffffffffffffffffffffff16815260200190815260200160002060009054906101000a900460ff161561137757828060010193505060066000878152602001908152602001600020600060108481548110151561130c57fe5b9060005260206000200160009054906101000a900473ffffffffffffffffffffffffffffffffffffffff1673ffffffffffffffffffffffffffffffffffffffff1673ffffffffffffffffffffffffffffffffffffffff16815260200190815260200160002054840193505b818060010192505061123a565b7fffffffffffffffffffffffffffffffffffffffffffffffffffffffffffffffff8410151561141b576040517f08c379a000000000000000000000000000000000000000000000000000000000815260040180806020018281038252601a8152602001807f4f766572666c6f77206572726f7228676574417665726167652900000000000081525060200191505060405180910390fd5b600160405190808252806020026020018201604052801561144b5781602001602082028038833980820191505090505b509050828481151561145957fe5b0581600081518110151561146957fe5b906020019060200201818152505080945050505050919050565b6000809054906101000a900473ffffffffffffffffffffffffffffffffffffffff1673ffffffffffffffffffffffffffffffffffffffff163373ffffffffffffffffffffffffffffffffffffffff161415156114de57600080fd5b600560008381526020019081526020016000206000828152602001908152602001600020600081548092919060010191905055505050565b6000809054906101000a900473ffffffffffffffffffffffffffffffffffffffff1673ffffffffffffffffffffffffffffffffffffffff163373ffffffffffffffffffffffffffffffffffffffff1614151561157157600080fd5b8060046000848152602001908152602001600020819055505050565b60006006600084815260200190815260200160002060008373ffffffffffffffffffffffffffffffffffffffff1673ffffffffffffffffffffffffffffffffffffffff16815260200190815260200160002054905092915050565b6000809054906101000a900473ffffffffffffffffffffffffffffffffffffffff1673ffffffffffffffffffffffffffffffffffffffff163373ffffffffffffffffffffffffffffffffffffffff1614151561164357600080fd5b80600c6000848152602001908152602001600020819055505050565b6000809054906101000a900473ffffffffffffffffffffffffffffffffffffffff1681565b6000809054906101000a900473ffffffffffffffffffffffffffffffffffffffff1673ffffffffffffffffffffffffffffffffffffffff163373ffffffffffffffffffffffffffffffffffffffff161415156116df57600080fd5b80600f6000848152602001908152602001600020819055505050565b60606009600083815260200190815260200160002080548060200260200160405190810160405280929190818152602001828054801561175a57602002820191906000526020600020905b815481526020019060010190808311611746575b50505050509050919050565b600060056000848152602001908152602001600020600083815260200190815260200160002054905092915050565b6000600160008373ffffffffffffffffffffffffffffffffffffffff1673ffffffffffffffffffffffffffffffffffffffff16815260200190815260200160002060009054906101000a900460ff169050919050565b80600d6000848152602001908152602001600020819055505050565b6000809054906101000a900473ffffffffffffffffffffffffffffffffffffffff1673ffffffffffffffffffffffffffffffffffffffff163373ffffffffffffffffffffffffffffffffffffffff1614151561186257600080fd5b600073ffffffffffffffffffffffffffffffffffffffff168173ffffffffffffffffffffffffffffffffffffffff161415151561189e57600080fd5b8073ffffffffffffffffffffffffffffffffffffffff166000809054906101000a900473ffffffffffffffffffffffffffffffffffffffff1673ffffffffffffffffffffffffffffffffffffffff167f8be0079c531659141344cd1fd0a4f28419497f9722a3daafe3b4186f6b6457e060405160405180910390a3806000806101000a81548173ffffffffffffffffffffffffffffffffffffffff021916908373ffffffffffffffffffffffffffffffffffffffff16021790555050565b6000809054906101000a900473ffffffffffffffffffffffffffffffffffffffff1673ffffffffffffffffffffffffffffffffffffffff163373ffffffffffffffffffffffffffffffffffffffff161415156119b757600080fd5b600960008381526020019081526020016000208190806001815401808255809150509060018203906000526020600020016000909192909190915055505050565b6000600b600084815260200190815260200160002060008373ffffffffffffffffffffffffffffffffffffffff1673ffffffffffffffffffffffffffffffffffffffff16815260200190815260200160002060009054906101000a900460ff16905092915050565b828054828255906000526020600020908101928215611aef579160200282015b82811115611aee57823573ffffffffffffffffffffffffffffffffffffffff168260006101000a81548173ffffffffffffffffffffffffffffffffffffffff021916908373ffffffffffffffffffffffffffffffffffffffff16021790555091602001919060010190611a80565b5b509050611afc9190611b00565b5090565b611b4091905b80821115611b3c57600081816101000a81549073ffffffffffffffffffffffffffffffffffffffff021916905550600101611b06565b5090565b905600a165627a7a72305820e2d16d59dff1478407a95203fd3e35672a1220c8e79b925a6aa2dbdbe2b0579c0029",
  "source": "pragma solidity ^0.4.24;\n\nimport \"./lib/Ownable.sol\";\n\ncontract MPOStorage is Ownable{\n\n\n\t// check if msg.sender is in global approved list of responders\n\tmapping(address => bool) approvedAddress; \n\tmapping(uint256 => mapping(address => bool) ) isThresholdReached; \n\tmapping(uint256 => bool ) thresholdReached; \n\t// Threshold reached, do not accept any more responses\n\tmapping(uint256 => uint256) queryStatus;\n\t// Tally of each response.\n\tmapping(uint256 => mapping(uint256 => uint256) ) responseTally; \n\tmapping(uint256 => mapping(address => uint256) ) addressResponse; \n\tmapping(uint256 => mapping(address => uint256) ) addressTally; \n\tmapping(uint256 => uint256[]) responseArr; \n\tmapping(uint256 => uint256[]) thresholdArr;\n\tmapping(uint256 => uint256) average;\n\t// Make sure each party can only submit one response\n\tmapping(uint256 => mapping(address => bool)) oneAddressResponse; \n\tmapping(uint256 => uint256) mpoToClientId;\n\t\n\tmapping(uint256 => uint256) precision; \n\tmapping(uint256 => uint256) delta; \n\n\tmapping(uint256 => uint256) threshold;\n\taddress[] responders;\n\tuint256 responderLength = 5;\n\t// implements Client1\n\taddress client;\n\tuint256 clientQueryId; \n\n\n\t// Set Methods / Mutators\n\tfunction setThreshold(uint queryId, uint256 _threshold) external onlyOwner {\n\t\tthreshold[queryId] = _threshold;\n\t}\n\n\tfunction setClientQueryId(uint256 mpoId, uint256 _clientQueryId) external onlyOwner {\n\t\tmpoToClientId[mpoId] = _clientQueryId;\n\t}\n \n\tfunction setResponders(address[] parties) external  onlyOwner{\n\t\tresponders=parties;\n\t\tif(responderLength>parties.length){\n\t\t\tresponderLength = parties.length;\n\t\t}\n\t\tfor(uint256 i=0; i <responderLength; i++){\n\t\t\tapprovedAddress[responders[i]]=true;\n\t\t}\n\t}\n\tfunction reachedThreshold(uint256 queryId, address sender) external  onlyOwner{\n\t\tisThresholdReached[queryId][sender] = true;\n\t\tthresholdReached[queryId] = true;\n\t}\n\tfunction setQueryStatus(uint queryId, uint256 status) external onlyOwner {\n\t\tqueryStatus[queryId]=status;\n\t}\n\n\tfunction tallyResponse(uint256 queryId, uint response) external onlyOwner {\n\t\tresponseTally[queryId][response]++;\n\n\t}\n\tfunction tallyAddress(uint256 queryId, address responder) external onlyOwner {\n\t\taddressTally[queryId][responder]++;\n\n\t}\n\tfunction addResponse(uint256 queryId, address party) external onlyOwner {\n\t\t// responseArr[queryId].push(response);\n\t\t// addressTally[queryId][party]++;\n\t\t// addressResponse[queryId][party] = response;\n\t\toneAddressResponse[queryId][party] = true;\n\t}\n\tfunction addThresholdResponse(uint256 queryId, uint256 response) external onlyOwner {\n\t\tthresholdArr[queryId].push(response);\n\t}\n\tfunction setDelta(uint256 queryId, uint256 _delta) external{\n\t\tdelta[queryId] = _delta;\n\t}\n\n\tfunction setPrecision(uint256 queryId, uint256 _precision) external{\n\t\tprecision[queryId] = _precision;\n\t}\n\t// Get Methods / Accessors\n\n\tfunction onlyOneResponse(uint256 queryId, address party) external view returns(bool) {\n        return oneAddressResponse[queryId][party];\n    }\n    function getThresholdStatus(uint256 queryId, address party) external view returns(bool) {\n        return isThresholdReached[queryId][party];\n    }\n\n    function getAddressStatus(address party) external view returns(bool){\n        return approvedAddress[party];\n    }\n\t\n\tfunction getThreshold(uint queryId) external view returns(uint) { \n\t\treturn threshold[queryId];\n\t}\n\t\n\tfunction getTally(uint256 queryId, uint256 response)external view returns(uint256){\n\t\treturn responseTally[queryId][response];\n\t}\n\tfunction getAddressTally(uint256 queryId, address responder)external view returns(uint256){\n\t\treturn addressTally[queryId][responder];\n\t}\n\tfunction getAddressResponse(uint256 queryId, address responder)external view returns(uint256){\n\t\treturn addressResponse[queryId][responder];\n\t}\n\t\n\tfunction getClientQueryId(uint256 mpoId) external view returns(uint256){\n\t\treturn mpoToClientId[mpoId];\n\t}\n\n\tfunction getQueryStatus(uint256 queryId) external view returns(uint256){\n\t\treturn queryStatus[queryId];\n\t}\n\tfunction getThresholdResponses(uint256 queryId) external view returns(uint256[]){\n\t\treturn thresholdArr[queryId];\n\t}\n\n\tfunction getNumResponders() external view returns (uint) {\n\t\treturn responderLength;\n\t}\n\n\tfunction getResponderAddress(uint index) external view returns(address){\n\t\treturn responders[index];\n\t}\n\tfunction getResponders() external view returns (address[]){\n\t\treturn responders;\n\t}\n\tfunction getResponses(uint256 queryId) external view returns(uint256[]){\n\t\treturn responseArr[queryId];\n\t}\n\tfunction getDelta(uint256 queryId) external view returns(uint256){\n\t\treturn delta[queryId];\n\t}\n\tfunction getPrecision(uint256 queryId) external view returns(uint256){\n\t\treturn precision[queryId];\n\t}\n\tfunction getQueryThreshold(uint queryId)external view returns(bool){\n\t\treturn thresholdReached[queryId];\n\t}\n\tfunction getAverage(uint256 queryId) external view returns(int[]){\n\t\trequire(responders.length!=0, \"Division error\");\n\t\tuint total = 0;\n\t\tuint len=0;\n\t\t\n\t\tfor (uint i =0; i < responderLength ;i++){\n\t\t\tif(isThresholdReached[queryId][responders[i]] ){\n\t\t\t\tlen++;\n\t\t\t\ttotal+=addressResponse[queryId][responders[i]];\n\t\t\t\t\n\t\t\t}\n\t\t}\n\t\trequire(total<uint(2**256-1), \"Overflow error(getAverage)\");\n\t\tint[] memory avg = new int[](1);\n\t\tavg[0]=int(total) / int(len);\n\t\treturn avg;\n\t}\n\t\n\n}\n",
  "sourcePath": "/home/xv702/2zap/multiparty-oracle/contracts/MPOStorage.sol",
  "compiler": {
    "name": "solc",
    "version": "0.4.24+commit.e67f0147.Emscripten.clang"
  },
  "schemaVersion": "2.0.1",
  "updatedAt": "2019-05-28T18:14:28.674Z"
}