{
  "contractName": "MPOStorage",
  "abi": [
    {
      "constant": false,
      "inputs": [
        {
          "name": "_threshold",
          "type": "uint256"
        }
      ],
      "name": "setThreshold",
      "outputs": [],
      "payable": false,
      "stateMutability": "nonpayable",
      "type": "function"
    },
    {
      "constant": false,
      "inputs": [
        {
          "name": "_client",
          "type": "address"
        }
      ],
      "name": "setClient",
      "outputs": [],
      "payable": false,
      "stateMutability": "nonpayable",
      "type": "function"
    },
    {
      "constant": false,
      "inputs": [
        {
          "name": "parties",
          "type": "address[]"
        }
      ],
      "name": "setResponders",
      "outputs": [],
      "payable": false,
      "stateMutability": "nonpayable",
      "type": "function"
    },
    {
      "constant": false,
      "inputs": [
        {
          "name": "queryId",
          "type": "uint256"
        }
      ],
      "name": "fulfillQuery",
      "outputs": [],
      "payable": false,
      "stateMutability": "nonpayable",
      "type": "function"
    },
    {
      "constant": false,
      "inputs": [
        {
          "name": "queryId",
          "type": "uint256"
        },
        {
          "name": "response",
          "type": "string"
        }
      ],
      "name": "addResponse",
      "outputs": [],
      "payable": false,
      "stateMutability": "nonpayable",
      "type": "function"
    },
    {
      "constant": true,
      "inputs": [],
      "name": "getThreshold",
      "outputs": [
        {
          "name": "",
          "type": "uint256"
        }
      ],
      "payable": false,
      "stateMutability": "view",
      "type": "function"
    },
    {
      "constant": true,
      "inputs": [
        {
          "name": "party",
          "type": "address"
        }
      ],
      "name": "getAddressStatus",
      "outputs": [
        {
          "name": "",
          "type": "bool"
        }
      ],
      "payable": false,
      "stateMutability": "view",
      "type": "function"
    },
    {
      "constant": true,
      "inputs": [
        {
          "name": "queryId",
          "type": "uint256"
        },
        {
          "name": "response",
          "type": "string"
        }
      ],
      "name": "getTally",
      "outputs": [
        {
          "name": "",
          "type": "uint256"
        }
      ],
      "payable": false,
      "stateMutability": "view",
      "type": "function"
    },
    {
      "constant": true,
      "inputs": [],
      "name": "getClient",
      "outputs": [
        {
          "name": "",
          "type": "address"
        }
      ],
      "payable": false,
      "stateMutability": "view",
      "type": "function"
    },
    {
      "constant": true,
      "inputs": [
        {
          "name": "queryId",
          "type": "uint256"
        }
      ],
      "name": "getQueryStatus",
      "outputs": [
        {
          "name": "",
          "type": "bool"
        }
      ],
      "payable": false,
      "stateMutability": "view",
      "type": "function"
    },
    {
      "constant": true,
      "inputs": [],
      "name": "getNumResponders",
      "outputs": [
        {
          "name": "",
          "type": "uint256"
        }
      ],
      "payable": false,
      "stateMutability": "view",
      "type": "function"
    },
    {
      "constant": true,
      "inputs": [
        {
          "name": "index",
          "type": "uint256"
        }
      ],
      "name": "getResponderAddress",
      "outputs": [
        {
          "name": "",
          "type": "address"
        }
      ],
      "payable": false,
      "stateMutability": "view",
      "type": "function"
    }
  ],
  "bytecode": "0x608060405234801561001057600080fd5b50610845806100206000396000f3006080604052600436106100ba576000357c0100000000000000000000000000000000000000000000000000000000900463ffffffff1680631380556a146100bf5780633740ddef146101465780634155b8501461017357806359dc735c146101e0578063602bb04f14610237578063664c0bf9146102625780636f07abcc146102c85780638526690a1461030d578063960bfe0414610350578063a9a44b4b1461037d578063e226a1b6146103f0578063e75235b81461044b575b600080fd5b3480156100cb57600080fd5b5061013060048036038101908080359060200190929190803590602001908201803590602001908080601f0160208091040260200160405190810160405280939291908181526020018383808284378201915050505050509192919290505050610476565b6040518082815260200191505060405180910390f35b34801561015257600080fd5b50610171600480360381019080803590602001909291905050506104fd565b005b34801561017f57600080fd5b5061019e6004803603810190808035906020019092919050505061052c565b604051808273ffffffffffffffffffffffffffffffffffffffff1673ffffffffffffffffffffffffffffffffffffffff16815260200191505060405180910390f35b3480156101ec57600080fd5b506101f561056f565b604051808273ffffffffffffffffffffffffffffffffffffffff1673ffffffffffffffffffffffffffffffffffffffff16815260200191505060405180910390f35b34801561024357600080fd5b5061024c610599565b6040518082815260200191505060405180910390f35b34801561026e57600080fd5b506102c6600480360381019080803590602001908201803590602001908080602002602001604051908101604052809392919081815260200183836020028082843782019150505050505091929192905050506105a6565b005b3480156102d457600080fd5b506102f3600480360381019080803590602001909291905050506106b1565b604051808215151515815260200191505060405180910390f35b34801561031957600080fd5b5061034e600480360381019080803573ffffffffffffffffffffffffffffffffffffffff1690602001909291905050506106db565b005b34801561035c57600080fd5b5061037b6004803603810190808035906020019092919050505061071f565b005b34801561038957600080fd5b506103ee60048036038101908080359060200190929190803590602001908201803590602001908080601f0160208091040260200160405190810160405280939291908181526020018383808284378201915050505050509192919290505050610729565b005b3480156103fc57600080fd5b50610431600480360381019080803573ffffffffffffffffffffffffffffffffffffffff1690602001909291905050506107b9565b604051808215151515815260200191505060405180910390f35b34801561045757600080fd5b5061046061080f565b6040518082815260200191505060405180910390f35b600060036000848152602001908152602001600020826040518082805190602001908083835b6020831015156104c1578051825260208201915060208101905060208303925061049c565b6001836020036101000a038019825116818451168082178552505050505050905001915050908152602001604051809103902054905092915050565b60016002600083815260200190815260200160002060006101000a81548160ff02191690831515021790555050565b600060058281548110151561053d57fe5b9060005260206000200160009054906101000a900473ffffffffffffffffffffffffffffffffffffffff169050919050565b6000600660009054906101000a900473ffffffffffffffffffffffffffffffffffffffff16905090565b6000600580549050905090565b60008090505b81518110156106ad57600582828151811015156105c557fe5b9060200190602002015190806001815401808255809150509060018203906000526020600020016000909192909190916101000a81548173ffffffffffffffffffffffffffffffffffffffff021916908373ffffffffffffffffffffffffffffffffffffffff160217905550506001806000848481518110151561064557fe5b9060200190602002015173ffffffffffffffffffffffffffffffffffffffff1673ffffffffffffffffffffffffffffffffffffffff16815260200190815260200160002060006101000a81548160ff02191690831515021790555080806001019150506105ac565b5050565b60006002600083815260200190815260200160002060009054906101000a900460ff169050919050565b80600660006101000a81548173ffffffffffffffffffffffffffffffffffffffff021916908373ffffffffffffffffffffffffffffffffffffffff16021790555050565b8060048190555050565b60036000838152602001908152602001600020816040518082805190602001908083835b602083101515610772578051825260208201915060208101905060208303925061074d565b6001836020036101000a0380198251168184511680821785525050505050509050019150509081526020016040518091039020600081548092919060010191905055505050565b6000600160008373ffffffffffffffffffffffffffffffffffffffff1673ffffffffffffffffffffffffffffffffffffffff16815260200190815260200160002060009054906101000a900460ff169050919050565b60006004549050905600a165627a7a7230582053822f5d7c7c96dc69da2242b70080e68014168064c4886bac84957371b265290029",
  "source": "pragma solidity ^0.4.24;\n\ncontract MPOStorage{\n\n\n\n\tmapping(uint256 => bytes32[]) queryResponses; // List of query responses. functionally unnecessary, used for testing purposes\n\tmapping(address => bool) approvedAddress; // check if msg.sender is in global approved list of responders\n\tmapping(uint256 => bool) queryFulfilled;// Threshold reached, do not accept any more responses\n\tmapping(uint256 => mapping(string => uint256) ) responseTally; // Tally of each response.\n\t// mapping(uint256 => mapping(address => bool)) oneAddressResponse; // Make sure each party can only submit one response\n\n\t\n\tuint256 threshold;\n\taddress[] responders;\n\n\t// implements Client1\n\taddress client; \n\n\n\t//Set Methods/Mutators\n\tfunction setThreshold(uint256 _threshold) public {\n\t\tthreshold = _threshold;\n\t}\n\n\tfunction setClient(address _client) public {\n\t\tclient = _client;\n\t}\n \n\tfunction setResponders(address[] parties) public {\n\t\tfor(uint256 i=0;i<parties.length;i++){\n\t\t\tresponders.push(parties[i]);\n\t\t\tapprovedAddress[parties[i]]=true;\n\t\t}\n\t}\n\t// function addResponse(uint256 queryId, string response, address responder){\n\t// \tqueryResponses[queryId].push(keccak256(response));\n\t// \toneAddressResponse[queryId][responder]=true;\n\t// \tresponseTally[queryId][keccak256(response)]++;\n\t// }\n\tfunction fulfillQuery(uint queryId) public {\n\t\tqueryFulfilled[queryId]=true;\n\t}\n\n\tfunction addResponse(uint256 queryId, string response) public {\n\t\t// queryResponses[queryId].push(response);\n\t\tresponseTally[queryId][response]++;\n\t\t// oneAddressResponse[queryId][responder]=true;\n\t}\n\t//Get Methods/Accessors\n\n\tfunction getThreshold() public view returns(uint) { \n\t\treturn threshold;\n\t}\n\tfunction getAddressStatus(address party) public view returns(bool){\n\t\treturn approvedAddress[party];\n\t}\n// \tfunction getTally(uint256 queryId, string response) returns(uint256){\n// \t\treturn responseTally[queryId][keccak256(response)];\n// =======\n\tfunction getTally(uint256 queryId, string response) public view returns(uint256){\n\t\treturn responseTally[queryId][response];\n\t}\n\n\tfunction getClient() public view returns (address){\n\t\treturn client;\n\t}\n\tfunction getQueryStatus(uint256 queryId) public view returns(bool){\n\t\treturn queryFulfilled[queryId];\n\t}\n\n\tfunction getNumResponders() public view returns (uint) {\n\t\treturn responders.length;\n\t}\n\n\tfunction getResponderAddress(uint index) public view returns (address){\n\t\treturn responders[index];\n\t}\n}\n",
  "sourcePath": "/home/intern1/MultiPartyOracle/contracts/MPOStorage.sol",
  "compiler": {
    "name": "solc",
    "version": "0.4.24+commit.e67f0147.Emscripten.clang"
  },
  "schemaVersion": "2.0.0",
  "updatedAt": "2018-06-21T21:22:42.003Z"
}