{
  "contractName": "MPOStorage",
  "abi": [
    {
      "constant": false,
      "inputs": [
        {
          "name": "_threshold",
          "type": "uint256"
        }
      ],
      "name": "setThreshold",
      "outputs": [],
      "payable": false,
      "stateMutability": "nonpayable",
      "type": "function"
    },
    {
      "constant": false,
      "inputs": [
        {
          "name": "_client",
          "type": "address"
        }
      ],
      "name": "setClient",
      "outputs": [],
      "payable": false,
      "stateMutability": "nonpayable",
      "type": "function"
    },
    {
      "constant": false,
      "inputs": [
        {
          "name": "parties",
          "type": "address[]"
        }
      ],
      "name": "setResponders",
      "outputs": [],
      "payable": false,
      "stateMutability": "nonpayable",
      "type": "function"
    },
    {
      "constant": false,
      "inputs": [
        {
          "name": "queryId",
          "type": "uint256"
        },
        {
          "name": "response",
          "type": "string"
        }
      ],
      "name": "addResponse",
      "outputs": [],
      "payable": false,
      "stateMutability": "nonpayable",
      "type": "function"
    },
    {
      "constant": true,
      "inputs": [],
      "name": "getThreshold",
      "outputs": [
        {
          "name": "",
          "type": "uint256"
        }
      ],
      "payable": false,
      "stateMutability": "view",
      "type": "function"
    },
    {
      "constant": true,
      "inputs": [
        {
          "name": "party",
          "type": "address"
        }
      ],
      "name": "getAddressStatus",
      "outputs": [
        {
          "name": "",
          "type": "bool"
        }
      ],
      "payable": false,
      "stateMutability": "view",
      "type": "function"
    },
    {
      "constant": true,
      "inputs": [
        {
          "name": "queryId",
          "type": "uint256"
        },
        {
          "name": "response",
          "type": "string"
        }
      ],
      "name": "getTally",
      "outputs": [
        {
          "name": "",
          "type": "uint256"
        }
      ],
      "payable": false,
      "stateMutability": "view",
      "type": "function"
    },
    {
      "constant": true,
      "inputs": [],
      "name": "getClient",
      "outputs": [
        {
          "name": "",
          "type": "address"
        }
      ],
      "payable": false,
      "stateMutability": "view",
      "type": "function"
    },
    {
      "constant": true,
      "inputs": [],
      "name": "getNumResponders",
      "outputs": [
        {
          "name": "",
          "type": "uint256"
        }
      ],
      "payable": false,
      "stateMutability": "view",
      "type": "function"
    },
    {
      "constant": true,
      "inputs": [
        {
          "name": "index",
          "type": "uint256"
        }
      ],
      "name": "getResponderAddress",
      "outputs": [
        {
          "name": "",
          "type": "address"
        }
      ],
      "payable": false,
      "stateMutability": "view",
      "type": "function"
    }
  ],
  "bytecode": "0x608060405234801561001057600080fd5b50610763806100206000396000f3006080604052600436106100a4576000357c0100000000000000000000000000000000000000000000000000000000900463ffffffff1680631380556a146100a95780634155b8501461013057806359dc735c1461019d578063602bb04f146101f4578063664c0bf91461021f5780638526690a14610285578063960bfe04146102c8578063a9a44b4b146102f5578063e226a1b614610368578063e75235b8146103c3575b600080fd5b3480156100b557600080fd5b5061011a60048036038101908080359060200190929190803590602001908201803590602001908080601f01602080910402602001604051908101604052809392919081815260200183838082843782019150505050505091929192905050506103ee565b6040518082815260200191505060405180910390f35b34801561013c57600080fd5b5061015b60048036038101908080359060200190929190505050610475565b604051808273ffffffffffffffffffffffffffffffffffffffff1673ffffffffffffffffffffffffffffffffffffffff16815260200191505060405180910390f35b3480156101a957600080fd5b506101b26104b8565b604051808273ffffffffffffffffffffffffffffffffffffffff1673ffffffffffffffffffffffffffffffffffffffff16815260200191505060405180910390f35b34801561020057600080fd5b506102096104e2565b6040518082815260200191505060405180910390f35b34801561022b57600080fd5b50610283600480360381019080803590602001908201803590602001908080602002602001604051908101604052809392919081815260200183836020028082843782019150505050505091929192905050506104ef565b005b34801561029157600080fd5b506102c6600480360381019080803573ffffffffffffffffffffffffffffffffffffffff1690602001909291905050506105fa565b005b3480156102d457600080fd5b506102f36004803603810190808035906020019092919050505061063e565b005b34801561030157600080fd5b5061036660048036038101908080359060200190929190803590602001908201803590602001908080601f0160208091040260200160405190810160405280939291908181526020018383808284378201915050505050509192919290505050610648565b005b34801561037457600080fd5b506103a9600480360381019080803573ffffffffffffffffffffffffffffffffffffffff1690602001909291905050506106d8565b604051808215151515815260200191505060405180910390f35b3480156103cf57600080fd5b506103d861072d565b6040518082815260200191505060405180910390f35b600060016000848152602001908152602001600020826040518082805190602001908083835b6020831015156104395780518252602082019150602081019050602083039250610414565b6001836020036101000a038019825116818451168082178552505050505050905001915050908152602001604051809103902054905092915050565b600060038281548110151561048657fe5b9060005260206000200160009054906101000a900473ffffffffffffffffffffffffffffffffffffffff169050919050565b6000600460009054906101000a900473ffffffffffffffffffffffffffffffffffffffff16905090565b6000600380549050905090565b60008090505b81518110156105f6576003828281518110151561050e57fe5b9060200190602002015190806001815401808255809150509060018203906000526020600020016000909192909190916101000a81548173ffffffffffffffffffffffffffffffffffffffff021916908373ffffffffffffffffffffffffffffffffffffffff160217905550506001600080848481518110151561058e57fe5b9060200190602002015173ffffffffffffffffffffffffffffffffffffffff1673ffffffffffffffffffffffffffffffffffffffff16815260200190815260200160002060006101000a81548160ff02191690831515021790555080806001019150506104f5565b5050565b80600460006101000a81548173ffffffffffffffffffffffffffffffffffffffff021916908373ffffffffffffffffffffffffffffffffffffffff16021790555050565b8060028190555050565b60016000838152602001908152602001600020816040518082805190602001908083835b602083101515610691578051825260208201915060208101905060208303925061066c565b6001836020036101000a0380198251168184511680821785525050505050509050019150509081526020016040518091039020600081548092919060010191905055505050565b60008060008373ffffffffffffffffffffffffffffffffffffffff1673ffffffffffffffffffffffffffffffffffffffff16815260200190815260200160002060009054906101000a900460ff169050919050565b60006002549050905600a165627a7a7230582075ec2ff79c99a9598a4b96377165396156d399123a21a0fc69ec17174d7b9f820029",
  "source": "pragma solidity ^0.4.24;\n\ncontract MPOStorage{\n\n//TODO maybe have a thresholdFull event?\n\t//mapping(uint256 => string[]) queryResponses;\n\tmapping(address => bool) approvedAddress;\n\n\tmapping(uint256 => mapping(string=>uint256) ) responseTally;\n\tuint256 threshold;\n\taddress[] responders;\n\n\t// implements Client1\n\taddress client; \n\n\n\t//Set Methods/Mutators\n\tfunction setThreshold(uint256 _threshold) public {\n\t\tthreshold = _threshold;\n\t}\n\n\tfunction setClient(address _client) public {\n\t\tclient = _client;\n\t}\n \n\tfunction setResponders(address[] parties) public {\n\t\tfor(uint256 i=0;i<parties.length;i++){\n\t\t\tresponders.push(parties[i]);\n\t\t\tapprovedAddress[parties[i]]=true;\n\t\t}\n\t}\n\n\tfunction addResponse(uint256 queryId, string response) public {\n\t\t// queryResponses[queryId].push(response);\n\t\tresponseTally[queryId][response]++;\n\t}\n\n\t//Get Methods/Accessors\n\n\tfunction getThreshold() public view returns(uint) { \n\t\treturn threshold;\n\t}\n\tfunction getAddressStatus(address party) public view returns(bool){\n\t\treturn approvedAddress[party];\n\t}\n\tfunction getTally(uint256 queryId, string response) public view returns(uint256){\n\t\treturn responseTally[queryId][response];\n\t}\n\n\tfunction getClient() public view returns (address){\n\t\treturn client;\n\t}\n\n\tfunction getNumResponders() public view returns (uint) {\n\t\treturn responders.length;\n\t}\n\n\tfunction getResponderAddress(uint index) public view returns (address){\n\t\treturn responders[index];\n\t}\n}\n",
  "sourcePath": "/Users/michaelzman/Documents/workspace/multipartyoracle/contracts/MPOStorage.sol",
  "compiler": {
    "name": "solc",
    "version": "0.4.24+commit.e67f0147.Emscripten.clang"
  },
  "schemaVersion": "2.0.0",
  "updatedAt": "2018-06-20T22:40:12.096Z"
}