{
  "contractName": "MPOStorage",
  "abi": [
    {
      "constant": false,
      "inputs": [
        {
          "name": "_threshold",
          "type": "uint256"
        }
      ],
      "name": "setThreshold",
      "outputs": [],
      "payable": false,
      "stateMutability": "nonpayable",
      "type": "function"
    },
    {
      "constant": false,
      "inputs": [
        {
          "name": "_client",
          "type": "address"
        }
      ],
      "name": "setClient",
      "outputs": [],
      "payable": false,
      "stateMutability": "nonpayable",
      "type": "function"
    },
    {
      "constant": false,
      "inputs": [
        {
          "name": "parties",
          "type": "address[]"
        }
      ],
      "name": "setResponders",
      "outputs": [],
      "payable": false,
      "stateMutability": "nonpayable",
      "type": "function"
    },
    {
      "constant": false,
      "inputs": [
        {
          "name": "queryId",
          "type": "uint256"
        }
      ],
      "name": "fulfillQuery",
      "outputs": [],
      "payable": false,
      "stateMutability": "nonpayable",
      "type": "function"
    },
    {
      "constant": false,
      "inputs": [
        {
          "name": "queryId",
          "type": "uint256"
        },
        {
          "name": "response",
          "type": "string"
        },
        {
          "name": "party",
          "type": "address"
        }
      ],
      "name": "addResponse",
      "outputs": [],
      "payable": false,
      "stateMutability": "nonpayable",
      "type": "function"
    },
    {
      "constant": true,
      "inputs": [
        {
          "name": "queryId",
          "type": "uint256"
        },
        {
          "name": "party",
          "type": "address"
        }
      ],
      "name": "onlyOneResponse",
      "outputs": [
        {
          "name": "",
          "type": "bool"
        }
      ],
      "payable": false,
      "stateMutability": "view",
      "type": "function"
    },
    {
      "constant": true,
      "inputs": [],
      "name": "getThreshold",
      "outputs": [
        {
          "name": "",
          "type": "uint256"
        }
      ],
      "payable": false,
      "stateMutability": "view",
      "type": "function"
    },
    {
      "constant": true,
      "inputs": [
        {
          "name": "party",
          "type": "address"
        }
      ],
      "name": "getAddressStatus",
      "outputs": [
        {
          "name": "",
          "type": "bool"
        }
      ],
      "payable": false,
      "stateMutability": "view",
      "type": "function"
    },
    {
      "constant": true,
      "inputs": [
        {
          "name": "queryId",
          "type": "uint256"
        },
        {
          "name": "response",
          "type": "string"
        }
      ],
      "name": "getTally",
      "outputs": [
        {
          "name": "",
          "type": "uint256"
        }
      ],
      "payable": false,
      "stateMutability": "view",
      "type": "function"
    },
    {
      "constant": true,
      "inputs": [],
      "name": "getClient",
      "outputs": [
        {
          "name": "",
          "type": "address"
        }
      ],
      "payable": false,
      "stateMutability": "view",
      "type": "function"
    },
    {
      "constant": true,
      "inputs": [
        {
          "name": "queryId",
          "type": "uint256"
        }
      ],
      "name": "getQueryStatus",
      "outputs": [
        {
          "name": "",
          "type": "bool"
        }
      ],
      "payable": false,
      "stateMutability": "view",
      "type": "function"
    },
    {
      "constant": true,
      "inputs": [],
      "name": "getNumResponders",
      "outputs": [
        {
          "name": "",
          "type": "uint256"
        }
      ],
      "payable": false,
      "stateMutability": "view",
      "type": "function"
    },
    {
      "constant": true,
      "inputs": [
        {
          "name": "index",
          "type": "uint256"
        }
      ],
      "name": "getResponderAddress",
      "outputs": [
        {
          "name": "",
          "type": "address"
        }
      ],
      "payable": false,
      "stateMutability": "view",
      "type": "function"
    }
  ],
  "bytecode": "0x608060405234801561001057600080fd5b506109a7806100206000396000f3006080604052600436106100c5576000357c0100000000000000000000000000000000000000000000000000000000900463ffffffff1680631380556a146100ca5780633740ddef146101515780634155b8501461017e57806359dc735c146101eb5780635fa2386c14610242578063602bb04f146102d5578063664c0bf9146103005780636f07abcc146103665780638526690a146103ab578063960bfe04146103ee578063e226a1b61461041b578063e75235b814610476578063fe151a96146104a1575b600080fd5b3480156100d657600080fd5b5061013b60048036038101908080359060200190929190803590602001908201803590602001908080601f0160208091040260200160405190810160405280939291908181526020018383808284378201915050505050509192919290505050610506565b6040518082815260200191505060405180910390f35b34801561015d57600080fd5b5061017c6004803603810190808035906020019092919050505061058d565b005b34801561018a57600080fd5b506101a9600480360381019080803590602001909291905050506105bc565b604051808273ffffffffffffffffffffffffffffffffffffffff1673ffffffffffffffffffffffffffffffffffffffff16815260200191505060405180910390f35b3480156101f757600080fd5b506102006105ff565b604051808273ffffffffffffffffffffffffffffffffffffffff1673ffffffffffffffffffffffffffffffffffffffff16815260200191505060405180910390f35b34801561024e57600080fd5b506102d360048036038101908080359060200190929190803590602001908201803590602001908080601f0160208091040260200160405190810160405280939291908181526020018383808284378201915050505050509192919290803573ffffffffffffffffffffffffffffffffffffffff169060200190929190505050610629565b005b3480156102e157600080fd5b506102ea610723565b6040518082815260200191505060405180910390f35b34801561030c57600080fd5b5061036460048036038101908080359060200190820180359060200190808060200260200160405190810160405280939291908181526020018383602002808284378201915050505050509192919290505050610730565b005b34801561037257600080fd5b506103916004803603810190808035906020019092919050505061083b565b604051808215151515815260200191505060405180910390f35b3480156103b757600080fd5b506103ec600480360381019080803573ffffffffffffffffffffffffffffffffffffffff169060200190929190505050610865565b005b3480156103fa57600080fd5b50610419600480360381019080803590602001909291905050506108a9565b005b34801561042757600080fd5b5061045c600480360381019080803573ffffffffffffffffffffffffffffffffffffffff1690602001909291905050506108b3565b604051808215151515815260200191505060405180910390f35b34801561048257600080fd5b5061048b610909565b6040518082815260200191505060405180910390f35b3480156104ad57600080fd5b506104ec60048036038101908080359060200190929190803573ffffffffffffffffffffffffffffffffffffffff169060200190929190505050610913565b604051808215151515815260200191505060405180910390f35b600060036000848152602001908152602001600020826040518082805190602001908083835b602083101515610551578051825260208201915060208101905060208303925061052c565b6001836020036101000a038019825116818451168082178552505050505050905001915050908152602001604051809103902054905092915050565b60016002600083815260200190815260200160002060006101000a81548160ff02191690831515021790555050565b60006006828154811015156105cd57fe5b9060005260206000200160009054906101000a900473ffffffffffffffffffffffffffffffffffffffff169050919050565b6000600760009054906101000a900473ffffffffffffffffffffffffffffffffffffffff16905090565b60036000848152602001908152602001600020826040518082805190602001908083835b602083101515610672578051825260208201915060208101905060208303925061064d565b6001836020036101000a03801982511681845116808217855250505050505090500191505090815260200160405180910390206000815480929190600101919050555060016004600085815260200190815260200160002060008373ffffffffffffffffffffffffffffffffffffffff1673ffffffffffffffffffffffffffffffffffffffff16815260200190815260200160002060006101000a81548160ff021916908315150217905550505050565b6000600680549050905090565b60008090505b8151811015610837576006828281518110151561074f57fe5b9060200190602002015190806001815401808255809150509060018203906000526020600020016000909192909190916101000a81548173ffffffffffffffffffffffffffffffffffffffff021916908373ffffffffffffffffffffffffffffffffffffffff16021790555050600180600084848151811015156107cf57fe5b9060200190602002015173ffffffffffffffffffffffffffffffffffffffff1673ffffffffffffffffffffffffffffffffffffffff16815260200190815260200160002060006101000a81548160ff0219169083151502179055508080600101915050610736565b5050565b60006002600083815260200190815260200160002060009054906101000a900460ff169050919050565b80600760006101000a81548173ffffffffffffffffffffffffffffffffffffffff021916908373ffffffffffffffffffffffffffffffffffffffff16021790555050565b8060058190555050565b6000600160008373ffffffffffffffffffffffffffffffffffffffff1673ffffffffffffffffffffffffffffffffffffffff16815260200190815260200160002060009054906101000a900460ff169050919050565b6000600554905090565b60006004600084815260200190815260200160002060008373ffffffffffffffffffffffffffffffffffffffff1673ffffffffffffffffffffffffffffffffffffffff16815260200190815260200160002060009054906101000a900460ff169050929150505600a165627a7a72305820ac3f0b0fedfd27c2cd8c71a8c01140965406191fe35d3848296f555e24ff8a0e0029",
  "source": "pragma solidity ^0.4.24;\n\ncontract MPOStorage{\n\n\n\n\tmapping(uint256 => bytes32[]) queryResponses; // List of query responses. functionally unnecessary, used for testing purposes\n\tmapping(address => bool) approvedAddress; // check if msg.sender is in global approved list of responders\n\tmapping(uint256 => bool) queryFulfilled;// Threshold reached, do not accept any more responses\n\tmapping(uint256 => mapping(string => uint256) ) responseTally; // Tally of each response.\n\tmapping(uint256 => mapping(address => bool)) oneAddressResponse; // Make sure each party can only submit one response\n\n\t\n\tuint256 threshold;\n\taddress[] responders;\n\n\t// implements Client1\n\taddress client; \n\n\n\t//Set Methods/Mutators\n\tfunction setThreshold(uint256 _threshold) public {\n\t\tthreshold = _threshold;\n\t}\n\n\tfunction setClient(address _client) public {\n\t\tclient = _client;\n\t}\n \n\tfunction setResponders(address[] parties) public {\n\t\tfor(uint256 i=0;i<parties.length;i++){\n\t\t\tresponders.push(parties[i]);\n\t\t\tapprovedAddress[parties[i]]=true;\n\t\t}\n\t}\n\t// function addResponse(uint256 queryId, string response, address responder){\n\t// \tqueryResponses[queryId].push(keccak256(response));\n\t// \toneAddressResponse[queryId][responder]=true;\n\t// \tresponseTally[queryId][keccak256(response)]++;\n\t// }\n\tfunction fulfillQuery(uint queryId) public {\n\t\tqueryFulfilled[queryId]=true;\n\t}\n\n\tfunction addResponse(uint256 queryId, string response, address party) public {\n\t\t// queryResponses[queryId].push(response);\n\t\tresponseTally[queryId][response]++;\n\t\toneAddressResponse[queryId][party]=true;\n\t}\n\t//Get Methods/Accessors\n\n\tfunction onlyOneResponse(uint256 queryId, address party) public view returns(bool) {\n\t\treturn oneAddressResponse[queryId][party];\n\t}\n\tfunction getThreshold() public view returns(uint) { \n\t\treturn threshold;\n\t}\n\tfunction getAddressStatus(address party) public view returns(bool){\n\t\treturn approvedAddress[party];\n\t}\n// \tfunction getTally(uint256 queryId, string response) returns(uint256){\n// \t\treturn responseTally[queryId][keccak256(response)];\n// =======\n\tfunction getTally(uint256 queryId, string response) public view returns(uint256){\n\t\treturn responseTally[queryId][response];\n\t}\n\n\tfunction getClient() public view returns (address){\n\t\treturn client;\n\t}\n\tfunction getQueryStatus(uint256 queryId) public view returns(bool){\n\t\treturn queryFulfilled[queryId];\n\t}\n\n\tfunction getNumResponders() public view returns (uint) {\n\t\treturn responders.length;\n\t}\n\n\tfunction getResponderAddress(uint index) public view returns (address){\n\t\treturn responders[index];\n\t}\n}\n",
  "sourcePath": "/home/intern1/MultiPartyOracle/contracts/MPOStorage.sol",
  "compiler": {
    "name": "solc",
    "version": "0.4.24+commit.e67f0147.Emscripten.clang"
  },
  "schemaVersion": "2.0.0",
  "updatedAt": "2018-06-22T15:55:01.403Z"
}