{
  "contractName": "MultiPartyOracle",
  "abi": [
    {
      "constant": true,
      "inputs": [],
      "name": "storageAddress",
      "outputs": [
        {
          "name": "",
          "type": "address"
        }
      ],
      "payable": false,
      "stateMutability": "view",
      "type": "function"
    },
    {
      "inputs": [
        {
          "name": "_storageAddress",
          "type": "address"
        },
        {
          "name": "_responders",
          "type": "address[]"
        },
        {
          "name": "_client",
          "type": "address"
        },
        {
          "name": "_threshold",
          "type": "uint256"
        }
      ],
      "payable": false,
      "stateMutability": "nonpayable",
      "type": "constructor"
    },
    {
      "anonymous": false,
      "inputs": [
        {
          "indexed": false,
          "name": "query",
          "type": "string"
        },
        {
          "indexed": false,
          "name": "endpoint",
          "type": "bytes32"
        },
        {
          "indexed": false,
          "name": "params",
          "type": "bytes32[]"
        }
      ],
      "name": "ReceivedQuery",
      "type": "event"
    },
    {
      "anonymous": false,
      "inputs": [
        {
          "indexed": false,
          "name": "queryId",
          "type": "uint256"
        },
        {
          "indexed": false,
          "name": "responder",
          "type": "address"
        },
        {
          "indexed": false,
          "name": "response",
          "type": "string"
        }
      ],
      "name": "ReceivedResponse",
      "type": "event"
    },
    {
      "constant": false,
      "inputs": [
        {
          "name": "id",
          "type": "uint256"
        },
        {
          "name": "userQuery",
          "type": "string"
        },
        {
          "name": "endpoint",
          "type": "bytes32"
        },
        {
          "name": "endpointParams",
          "type": "bytes32[]"
        }
      ],
      "name": "receive",
      "outputs": [],
      "payable": false,
      "stateMutability": "nonpayable",
      "type": "function"
    },
    {
      "constant": false,
      "inputs": [
        {
          "name": "queryId",
          "type": "uint256"
        },
        {
          "name": "response",
          "type": "string"
        }
      ],
      "name": "callback",
      "outputs": [],
      "payable": false,
      "stateMutability": "nonpayable",
      "type": "function"
    }
  ],
  "bytecode": "0x608060405234801561001057600080fd5b50604051610eca380380610eca83398101806040528101908080519060200190929190805182019291906020018051906020019092919080519060200190929190505050836000806101000a81548173ffffffffffffffffffffffffffffffffffffffff021916908373ffffffffffffffffffffffffffffffffffffffff1602179055506000809054906101000a900473ffffffffffffffffffffffffffffffffffffffff1673ffffffffffffffffffffffffffffffffffffffff1663960bfe04826040518263ffffffff167c010000000000000000000000000000000000000000000000000000000002815260040180828152602001915050600060405180830381600087803b15801561012457600080fd5b505af1158015610138573d6000803e3d6000fd5b505050506000809054906101000a900473ffffffffffffffffffffffffffffffffffffffff1673ffffffffffffffffffffffffffffffffffffffff1663664c0bf9846040518263ffffffff167c01000000000000000000000000000000000000000000000000000000000281526004018080602001828103825283818151815260200191508051906020019060200280838360005b838110156101e85780820151818401526020810190506101cd565b5050505090500192505050600060405180830381600087803b15801561020d57600080fd5b505af1158015610221573d6000803e3d6000fd5b505050506000809054906101000a900473ffffffffffffffffffffffffffffffffffffffff1673ffffffffffffffffffffffffffffffffffffffff16638526690a836040518263ffffffff167c0100000000000000000000000000000000000000000000000000000000028152600401808273ffffffffffffffffffffffffffffffffffffffff1673ffffffffffffffffffffffffffffffffffffffff168152602001915050600060405180830381600087803b1580156102e157600080fd5b505af11580156102f5573d6000803e3d6000fd5b5050505050505050610bbe8061030c6000396000f300608060405260043610610057576000357c0100000000000000000000000000000000000000000000000000000000900463ffffffff16806385aa92a71461005c578063b69a375d146100b3578063cac2cce0146100f8575b600080fd5b34801561006857600080fd5b50610071610163565b604051808273ffffffffffffffffffffffffffffffffffffffff1673ffffffffffffffffffffffffffffffffffffffff16815260200191505060405180910390f35b3480156100bf57600080fd5b506100f660048036038101908080359060200190929190803590602001908201803590602001919091929391929390505050610189565b005b34801561010457600080fd5b50610161600480360381019080803590602001909291908035906020019082018035906020019190919293919293908035600019169060200190929190803590602001908201803590602001919091929391929390505050610880565b005b600160009054906101000a900473ffffffffffffffffffffffffffffffffffffffff1681565b6000809054906101000a900473ffffffffffffffffffffffffffffffffffffffff1673ffffffffffffffffffffffffffffffffffffffff1663e226a1b6336040518263ffffffff167c0100000000000000000000000000000000000000000000000000000000028152600401808273ffffffffffffffffffffffffffffffffffffffff1673ffffffffffffffffffffffffffffffffffffffff168152602001915050602060405180830381600087803b15801561024557600080fd5b505af1158015610259573d6000803e3d6000fd5b505050506040513d602081101561026f57600080fd5b8101908080519060200190929190505050151561028b57600080fd5b6000809054906101000a900473ffffffffffffffffffffffffffffffffffffffff1673ffffffffffffffffffffffffffffffffffffffff1663a9a44b4b8484846040518463ffffffff167c0100000000000000000000000000000000000000000000000000000000028152600401808481526020018060200182810382528484828181526020019250808284378201915050945050505050600060405180830381600087803b15801561033d57600080fd5b505af1158015610351573d6000803e3d6000fd5b505050507fb3f1dec46c9a28914d1a247081abf930930a27a3981cc8b7b9059dc8c7b5a1af83338484604051808581526020018473ffffffffffffffffffffffffffffffffffffffff1673ffffffffffffffffffffffffffffffffffffffff16815260200180602001828103825284848281815260200192508082843782019150509550505050505060405180910390a16000809054906101000a900473ffffffffffffffffffffffffffffffffffffffff1673ffffffffffffffffffffffffffffffffffffffff1663e75235b86040518163ffffffff167c0100000000000000000000000000000000000000000000000000000000028152600401602060405180830381600087803b15801561046757600080fd5b505af115801561047b573d6000803e3d6000fd5b505050506040513d602081101561049157600080fd5b81019080805190602001909291905050506000809054906101000a900473ffffffffffffffffffffffffffffffffffffffff1673ffffffffffffffffffffffffffffffffffffffff16631380556a8585856040518463ffffffff167c0100000000000000000000000000000000000000000000000000000000028152600401808481526020018060200182810382528484828181526020019250808284378201915050945050505050602060405180830381600087803b15801561055457600080fd5b505af1158015610568573d6000803e3d6000fd5b505050506040513d602081101561057e57600080fd5b81019080805190602001909291905050501015801561066557506000809054906101000a900473ffffffffffffffffffffffffffffffffffffffff1673ffffffffffffffffffffffffffffffffffffffff16636f07abcc846040518263ffffffff167c010000000000000000000000000000000000000000000000000000000002815260040180828152602001915050602060405180830381600087803b15801561062857600080fd5b505af115801561063c573d6000803e3d6000fd5b505050506040513d602081101561065257600080fd5b8101908080519060200190929190505050155b1561087b576000809054906101000a900473ffffffffffffffffffffffffffffffffffffffff1673ffffffffffffffffffffffffffffffffffffffff16633740ddef846040518263ffffffff167c010000000000000000000000000000000000000000000000000000000002815260040180828152602001915050600060405180830381600087803b1580156106fa57600080fd5b505af115801561070e573d6000803e3d6000fd5b505050506000809054906101000a900473ffffffffffffffffffffffffffffffffffffffff1673ffffffffffffffffffffffffffffffffffffffff166359dc735c6040518163ffffffff167c0100000000000000000000000000000000000000000000000000000000028152600401602060405180830381600087803b15801561079757600080fd5b505af11580156107ab573d6000803e3d6000fd5b505050506040513d60208110156107c157600080fd5b810190808051906020019092919050505073ffffffffffffffffffffffffffffffffffffffff1663b69a375d8484846040518463ffffffff167c0100000000000000000000000000000000000000000000000000000000028152600401808481526020018060200182810382528484828181526020019250808284378201915050945050505050600060405180830381600087803b15801561086257600080fd5b505af1158015610876573d6000803e3d6000fd5b505050505b505050565b60007f85116c6c5c356f883d4aa87334ef812713a3a42d758de14b36d6cb00fc8cb1d686868686866040518080602001856000191660001916815260200180602001838103835288888281815260200192508082843782019150508381038252858582818152602001925060200280828437820191505097505050505050505060405180910390a1600090505b6000809054906101000a900473ffffffffffffffffffffffffffffffffffffffff1673ffffffffffffffffffffffffffffffffffffffff1663602bb04f6040518163ffffffff167c0100000000000000000000000000000000000000000000000000000000028152600401602060405180830381600087803b15801561099257600080fd5b505af11580156109a6573d6000803e3d6000fd5b505050506040513d60208110156109bc57600080fd5b8101908080519060200190929190505050811015610b89576000809054906101000a900473ffffffffffffffffffffffffffffffffffffffff1673ffffffffffffffffffffffffffffffffffffffff16634155b850826040518263ffffffff167c010000000000000000000000000000000000000000000000000000000002815260040180828152602001915050602060405180830381600087803b158015610a6457600080fd5b505af1158015610a78573d6000803e3d6000fd5b505050506040513d6020811015610a8e57600080fd5b810190808051906020019092919050505073ffffffffffffffffffffffffffffffffffffffff1663cac2cce08888888888886040518763ffffffff167c01000000000000000000000000000000000000000000000000000000000281526004018087815260200180602001856000191660001916815260200180602001838103835288888281815260200192508082843782019150508381038252858582818152602001925060200280828437820191505098505050505050505050600060405180830381600087803b158015610b6457600080fd5b505af1158015610b78573d6000803e3d6000fd5b50505050808060010191505061090d565b505050505050505600a165627a7a72305820a419e43de9308e8d29855e235102f4f6ccda62a50151c0065cf61a39d169a1440029",
  "source": "pragma solidity ^0.4.24;\n\nimport \"./MPOStorage.sol\";\nimport \"./OnChainProvider.sol\";\nimport \"./Client.sol\";\n\ncontract MultiPartyOracle is OnChainProvider, Client1 {\n\n  event ReceivedQuery(string query, bytes32 endpoint, bytes32[] params);\n\n  event ReceivedResponse(uint256 queryId, address responder, string response);\n\n  MPOStorage stor;\n  address public storageAddress;\n\n  constructor(address _storageAddress, address[] _responders, address _client, uint256 _threshold) public {\n    stor = MPOStorage(_storageAddress);\n    stor.setThreshold(_threshold);\n    stor.setResponders(_responders);\n    stor.setClient(_client);\n  }\n\n// <<<<<<< HEAD\n//   function submitResponse1(uint256 queryId, string response) {\n//     require(stor.getAddressStatus(msg.sender) && !stor.getQueryStatus(queryId));\n//     stor.addResponse(queryId, response, msg.sender);\n// =======\n\n  function receive(uint256 id, string userQuery, bytes32 endpoint, bytes32[] endpointParams) external {\n    //TODO: queryId will eventually be given by dispatch\n\n    emit ReceivedQuery(userQuery, endpoint, endpointParams);\n\n    // query each of the responders\n    for(uint i=0; i<stor.getNumResponders(); i++){\n      OnChainProvider(stor.getResponderAddress(i)).receive(id, userQuery, endpoint, endpointParams);\n    }\n\n  }\n\n  function callback(uint256 queryId, string response) external {\n    require(stor.getAddressStatus(msg.sender) );\n    stor.addResponse(queryId, response);\n\n    emit ReceivedResponse(queryId, msg.sender, response);\n\n    if(stor.getTally(queryId, response) >= stor.getThreshold() && !stor.getQueryStatus(queryId)) {\n      stor.fulfillQuery(queryId);\n      Client1(stor.getClient()).callback(queryId, response);\n    }\n  }\n}\n",
  "sourcePath": "/home/intern1/MultiPartyOracle/contracts/MultiPartyOracle.sol",
  "compiler": {
    "name": "solc",
    "version": "0.4.24+commit.e67f0147.Emscripten.clang"
  },
  "schemaVersion": "2.0.0",
  "updatedAt": "2018-06-21T21:22:41.990Z"
}