{
  "contractName": "MultiPartyOracle",
  "abi": [
    {
      "constant": true,
      "inputs": [],
      "name": "spec3",
      "outputs": [
        {
          "name": "",
          "type": "bytes32"
        }
      ],
      "payable": false,
      "stateMutability": "view",
      "type": "function"
    },
    {
      "constant": true,
      "inputs": [],
      "name": "storageAddress",
      "outputs": [
        {
          "name": "",
          "type": "address"
        }
      ],
      "payable": false,
      "stateMutability": "view",
      "type": "function"
    },
    {
      "inputs": [
        {
          "name": "_zapCoord",
          "type": "address"
        },
        {
          "name": "mpoStorageAddress",
          "type": "address"
        }
      ],
      "payable": false,
      "stateMutability": "nonpayable",
      "type": "constructor"
    },
    {
      "anonymous": false,
      "inputs": [
        {
          "indexed": false,
          "name": "query",
          "type": "string"
        },
        {
          "indexed": false,
          "name": "endpoint",
          "type": "bytes32"
        },
        {
          "indexed": false,
          "name": "params",
          "type": "bytes32[]"
        },
        {
          "indexed": false,
          "name": "sender",
          "type": "address"
        }
      ],
      "name": "RecievedQuery",
      "type": "event"
    },
    {
      "anonymous": false,
      "inputs": [
        {
          "indexed": false,
          "name": "queryId",
          "type": "uint256"
        },
        {
          "indexed": false,
          "name": "responder",
          "type": "address"
        },
        {
          "indexed": false,
          "name": "response",
          "type": "string"
        }
      ],
      "name": "ReceivedResponse",
      "type": "event"
    },
    {
      "anonymous": false,
      "inputs": [
        {
          "indexed": false,
          "name": "id",
          "type": "uint256"
        },
        {
          "indexed": false,
          "name": "provider",
          "type": "address"
        },
        {
          "indexed": false,
          "name": "subscriber",
          "type": "address"
        },
        {
          "indexed": false,
          "name": "query",
          "type": "string"
        },
        {
          "indexed": false,
          "name": "endpoint",
          "type": "bytes32"
        },
        {
          "indexed": false,
          "name": "endpointParams",
          "type": "bytes32[]"
        },
        {
          "indexed": false,
          "name": "onchainSubscriber",
          "type": "bool"
        }
      ],
      "name": "Incoming",
      "type": "event"
    },
    {
      "anonymous": false,
      "inputs": [
        {
          "indexed": false,
          "name": "id",
          "type": "uint256"
        },
        {
          "indexed": false,
          "name": "response1",
          "type": "string"
        }
      ],
      "name": "Result1",
      "type": "event"
    },
    {
      "constant": false,
      "inputs": [
        {
          "name": "_responders",
          "type": "address[]"
        }
      ],
      "name": "setup",
      "outputs": [],
      "payable": false,
      "stateMutability": "nonpayable",
      "type": "function"
    },
    {
      "constant": false,
      "inputs": [
        {
          "name": "id",
          "type": "uint256"
        },
        {
          "name": "userQuery",
          "type": "string"
        },
        {
          "name": "endpoint",
          "type": "bytes32"
        },
        {
          "name": "endpointParams",
          "type": "bytes32[]"
        },
        {
          "name": "onchainSubscriber",
          "type": "bool"
        }
      ],
      "name": "receive",
      "outputs": [],
      "payable": false,
      "stateMutability": "nonpayable",
      "type": "function"
    },
    {
      "constant": false,
      "inputs": [
        {
          "name": "mpoId",
          "type": "uint256"
        },
        {
          "name": "responses",
          "type": "uint256[]"
        },
        {
          "name": "msgHash",
          "type": "bytes32[]"
        },
        {
          "name": "sigv",
          "type": "uint8[]"
        },
        {
          "name": "sigrs",
          "type": "bytes32[]"
        }
      ],
      "name": "callback",
      "outputs": [],
      "payable": false,
      "stateMutability": "nonpayable",
      "type": "function"
    },
    {
      "constant": false,
      "inputs": [],
      "name": "payout",
      "outputs": [],
      "payable": false,
      "stateMutability": "nonpayable",
      "type": "function"
    },
    {
      "constant": false,
      "inputs": [],
      "name": "withdrawBalance",
      "outputs": [],
      "payable": false,
      "stateMutability": "nonpayable",
      "type": "function"
    }
  ],
  "bytecode": "0x60806040527f4e6f6e70726f7669646572730000000000000000000000000000000000000000600b90600019169055606060405190810160405280600163ffffffff168152602001600163ffffffff168152602001633b9aca0063ffffffff16815250600c906003620000749291906200070b565b506000600d556000600e5560006010553480156200009157600080fd5b506040516040806200317183398101806040528101908080519060200190929190805190602001909291905050508173ffffffffffffffffffffffffffffffffffffffff1663358177736040518163ffffffff167c01000000000000000000000000000000000000000000000000000000000281526004018080602001828103825260088152602001807f5245474953545259000000000000000000000000000000000000000000000000815250602001915050602060405180830381600087803b1580156200016057600080fd5b505af115801562000175573d6000803e3d6000fd5b505050506040513d60208110156200018c57600080fd5b8101908080519060200190929190505050600760006101000a81548173ffffffffffffffffffffffffffffffffffffffff021916908373ffffffffffffffffffffffffffffffffffffffff160217905550600760009054906101000a900473ffffffffffffffffffffffffffffffffffffffff16600260006101000a81548173ffffffffffffffffffffffffffffffffffffffff021916908373ffffffffffffffffffffffffffffffffffffffff1602179055508173ffffffffffffffffffffffffffffffffffffffff1663358177736040518163ffffffff167c01000000000000000000000000000000000000000000000000000000000281526004018080602001828103825260088152602001807f4449535041544348000000000000000000000000000000000000000000000000815250602001915050602060405180830381600087803b158015620002e157600080fd5b505af1158015620002f6573d6000803e3d6000fd5b505050506040513d60208110156200030d57600080fd5b8101908080519060200190929190505050600560006101000a81548173ffffffffffffffffffffffffffffffffffffffff021916908373ffffffffffffffffffffffffffffffffffffffff160217905550600560009054906101000a900473ffffffffffffffffffffffffffffffffffffffff166000806101000a81548173ffffffffffffffffffffffffffffffffffffffff021916908373ffffffffffffffffffffffffffffffffffffffff1602179055508173ffffffffffffffffffffffffffffffffffffffff1663358177736040518163ffffffff167c01000000000000000000000000000000000000000000000000000000000281526004018080602001828103825260078152602001807f424f4e4441474500000000000000000000000000000000000000000000000000815250602001915050602060405180830381600087803b1580156200046157600080fd5b505af115801562000476573d6000803e3d6000fd5b505050506040513d60208110156200048d57600080fd5b8101908080519060200190929190505050600660006101000a81548173ffffffffffffffffffffffffffffffffffffffff021916908373ffffffffffffffffffffffffffffffffffffffff160217905550600660009054906101000a900473ffffffffffffffffffffffffffffffffffffffff16600160006101000a81548173ffffffffffffffffffffffffffffffffffffffff021916908373ffffffffffffffffffffffffffffffffffffffff1602179055508173ffffffffffffffffffffffffffffffffffffffff1663358177736040518163ffffffff167c01000000000000000000000000000000000000000000000000000000000281526004018080602001828103825260098152602001807f5a41505f544f4b454e0000000000000000000000000000000000000000000000815250602001915050602060405180830381600087803b158015620005e257600080fd5b505af1158015620005f7573d6000803e3d6000fd5b505050506040513d60208110156200060e57600080fd5b8101908080519060200190929190505050600860006101000a81548173ffffffffffffffffffffffffffffffffffffffff021916908373ffffffffffffffffffffffffffffffffffffffff160217905550600860009054906101000a900473ffffffffffffffffffffffffffffffffffffffff16600360006101000a81548173ffffffffffffffffffffffffffffffffffffffff021916908373ffffffffffffffffffffffffffffffffffffffff16021790555080600460006101000a81548173ffffffffffffffffffffffffffffffffffffffff021916908373ffffffffffffffffffffffffffffffffffffffff16021790555050506200078d565b82805482825590600052602060002090810192821562000752579160200282015b8281111562000751578251829063ffffffff169055916020019190600101906200072c565b5b50905062000761919062000765565b5090565b6200078a91905b80821115620007865760008160009055506001016200076c565b5090565b90565b6129d4806200079d6000396000f300608060405260043610610083576000357c0100000000000000000000000000000000000000000000000000000000900463ffffffff1680632ac9f6a3146100885780635fd8c7101461011557806363bd1d4a1461012c5780637ff94b621461014357806385aa92a714610176578063bd5b853b146101cd578063de26158314610233575b600080fd5b34801561009457600080fd5b50610113600480360381019080803590602001909291908035906020019082018035906020019190919293919293908035906020019082018035906020019190919293919293908035906020019082018035906020019190919293919293908035906020019082018035906020019190919293919293905050506102aa565b005b34801561012157600080fd5b5061012a610d56565b005b34801561013857600080fd5b5061014161113e565b005b34801561014f57600080fd5b50610158611ab9565b60405180826000191660001916815260200191505060405180910390f35b34801561018257600080fd5b5061018b611abf565b604051808273ffffffffffffffffffffffffffffffffffffffff1673ffffffffffffffffffffffffffffffffffffffff16815260200191505060405180910390f35b3480156101d957600080fd5b5061023160048036038101908080359060200190820180359060200190808060200260200160405190810160405280939291908181526020018383602002808284378201915050505050509192919290505050611ae5565b005b34801561023f57600080fd5b506102a8600480360381019080803590602001909291908035906020019082018035906020019190919293919293908035600019169060200190929190803590602001908201803590602001919091929391929390803515159060200190929190505050611e2a565b005b60008060006060600460009054906101000a900473ffffffffffffffffffffffffffffffffffffffff1673ffffffffffffffffffffffffffffffffffffffff16636cc9354f8e6040518263ffffffff167c010000000000000000000000000000000000000000000000000000000002815260040180828152602001915050602060405180830381600087803b15801561034257600080fd5b505af1158015610356573d6000803e3d6000fd5b505050506040513d602081101561036c57600080fd5b81019080805190602001909291905050509350600091505b898990508210156107b35760018a8a84818110151561039f57fe5b905060200201356000191689898581811015156103b857fe5b9050602002013560ff1688888660020281811015156103d357fe5b905060200201356000191689896001886002020181811015156103f257fe5b9050602002013560001916604051600081526020016040526040518085600019166000191681526020018460ff1660ff1681526020018360001916600019168152602001826000191660001916815260200194505050505060206040516020810390808403906000865af115801561046e573d6000803e3d6000fd5b505050602060405103519250600460009054906101000a900473ffffffffffffffffffffffffffffffffffffffff1673ffffffffffffffffffffffffffffffffffffffff1663e226a1b6846040518263ffffffff167c0100000000000000000000000000000000000000000000000000000000028152600401808273ffffffffffffffffffffffffffffffffffffffff1673ffffffffffffffffffffffffffffffffffffffff168152602001915050602060405180830381600087803b15801561053757600080fd5b505af115801561054b573d6000803e3d6000fd5b505050506040513d602081101561056157600080fd5b8101908080519060200190929190505050801561067b5750600460009054906101000a900473ffffffffffffffffffffffffffffffffffffffff1673ffffffffffffffffffffffffffffffffffffffff1663fe151a9685856040518363ffffffff167c0100000000000000000000000000000000000000000000000000000000028152600401808381526020018273ffffffffffffffffffffffffffffffffffffffff1673ffffffffffffffffffffffffffffffffffffffff16815260200192505050602060405180830381600087803b15801561063e57600080fd5b505af1158015610652573d6000803e3d6000fd5b505050506040513d602081101561066857600080fd5b8101908080519060200190929190505050155b156107a65760008c8c84818110151561069057fe5b905060200201351415156106b557600d600081548092919060010191905055506106c8565b600e600081548092919060010191905055505b600460009054906101000a900473ffffffffffffffffffffffffffffffffffffffff1673ffffffffffffffffffffffffffffffffffffffff1663287d3d3685856040518363ffffffff167c0100000000000000000000000000000000000000000000000000000000028152600401808381526020018273ffffffffffffffffffffffffffffffffffffffff1673ffffffffffffffffffffffffffffffffffffffff16815260200192505050600060405180830381600087803b15801561078d57600080fd5b505af11580156107a1573d6000803e3d6000fd5b505050505b8180600101925050610384565b6001600460009054906101000a900473ffffffffffffffffffffffffffffffffffffffff1673ffffffffffffffffffffffffffffffffffffffff16636f07abcc866040518263ffffffff167c010000000000000000000000000000000000000000000000000000000002815260040180828152602001915050602060405180830381600087803b15801561084657600080fd5b505af115801561085a573d6000803e3d6000fd5b505050506040513d602081101561087057600080fd5b81019080805190602001909291905050501415610d465760016040519080825280602002602001820160405280156108b75781602001602082028038833980820191505090505b509050600e54600d5411801561099a5750600460009054906101000a900473ffffffffffffffffffffffffffffffffffffffff1673ffffffffffffffffffffffffffffffffffffffff16634615d5e9856040518263ffffffff167c010000000000000000000000000000000000000000000000000000000002815260040180828152602001915050602060405180830381600087803b15801561095957600080fd5b505af115801561096d573d6000803e3d6000fd5b505050506040513d602081101561098357600080fd5b8101908080519060200190929190505050600d5410155b15610a7557600460009054906101000a900473ffffffffffffffffffffffffffffffffffffffff1673ffffffffffffffffffffffffffffffffffffffff166381f668448560026040518363ffffffff167c01000000000000000000000000000000000000000000000000000000000281526004018083815260200182815260200192505050600060405180830381600087803b158015610a3957600080fd5b505af1158015610a4d573d6000803e3d6000fd5b505050506001816000815181101515610a6257fe5b9060200190602002018181525050610d47565b600d54600e54118015610b555750600460009054906101000a900473ffffffffffffffffffffffffffffffffffffffff1673ffffffffffffffffffffffffffffffffffffffff16634615d5e9856040518263ffffffff167c010000000000000000000000000000000000000000000000000000000002815260040180828152602001915050602060405180830381600087803b158015610b1457600080fd5b505af1158015610b28573d6000803e3d6000fd5b505050506040513d6020811015610b3e57600080fd5b8101908080519060200190929190505050600e5410155b15610d4557600460009054906101000a900473ffffffffffffffffffffffffffffffffffffffff1673ffffffffffffffffffffffffffffffffffffffff166381f668448560026040518363ffffffff167c01000000000000000000000000000000000000000000000000000000000281526004018083815260200182815260200192505050600060405180830381600087803b158015610bf457600080fd5b505af1158015610c08573d6000803e3d6000fd5b505050506000816000815181101515610c1d57fe5b90602001906020020181815250506000809054906101000a900473ffffffffffffffffffffffffffffffffffffffff1673ffffffffffffffffffffffffffffffffffffffff1663ef05ab0b85836040518363ffffffff167c01000000000000000000000000000000000000000000000000000000000281526004018083815260200180602001828103825283818151815260200191508051906020019060200280838360005b83811015610cde578082015181840152602081019050610cc3565b505050509050019350505050602060405180830381600087803b158015610d0457600080fd5b505af1158015610d18573d6000803e3d6000fd5b505050506040513d6020811015610d2e57600080fd5b810190808051906020019092919050505050610d47565b5b5b50505050505050505050505050565b6000600f60003373ffffffffffffffffffffffffffffffffffffffff1673ffffffffffffffffffffffffffffffffffffffff16815260200190815260200160002054905060008114151515610e13576040517f08c379a00000000000000000000000000000000000000000000000000000000081526004018080602001828103825260138152602001807f4e6f207061796f757420617661696c61626c650000000000000000000000000081525060200191505060405180910390fd5b80600360009054906101000a900473ffffffffffffffffffffffffffffffffffffffff1673ffffffffffffffffffffffffffffffffffffffff166370a08231306040518263ffffffff167c0100000000000000000000000000000000000000000000000000000000028152600401808273ffffffffffffffffffffffffffffffffffffffff1673ffffffffffffffffffffffffffffffffffffffff168152602001915050602060405180830381600087803b158015610ed157600080fd5b505af1158015610ee5573d6000803e3d6000fd5b505050506040513d6020811015610efb57600080fd5b810190808051906020019092919050505010151515610f82576040517f08c379a000000000000000000000000000000000000000000000000000000000815260040180806020018281038252601c8152602001807f4e6f7420656e6f7567682066756e647320696e20636f6e74726163740000000081525060200191505060405180910390fd5b6000600f60003373ffffffffffffffffffffffffffffffffffffffff1673ffffffffffffffffffffffffffffffffffffffff16815260200190815260200160002081905550600360009054906101000a900473ffffffffffffffffffffffffffffffffffffffff1673ffffffffffffffffffffffffffffffffffffffff1663a9059cbb33836040518363ffffffff167c0100000000000000000000000000000000000000000000000000000000028152600401808373ffffffffffffffffffffffffffffffffffffffff1673ffffffffffffffffffffffffffffffffffffffff16815260200182815260200192505050602060405180830381600087803b15801561108c57600080fd5b505af11580156110a0573d6000803e3d6000fd5b505050506040513d60208110156110b657600080fd5b8101908080519060200190929190505050151561113b576040517f08c379a00000000000000000000000000000000000000000000000000000000081526004018080602001828103825260178152602001807f4661696c656420746f205472616e66657220546f6b656e00000000000000000081525060200191505060405180910390fd5b50565b600060606000600460009054906101000a900473ffffffffffffffffffffffffffffffffffffffff1673ffffffffffffffffffffffffffffffffffffffff1663e226a1b6336040518263ffffffff167c0100000000000000000000000000000000000000000000000000000000028152600401808273ffffffffffffffffffffffffffffffffffffffff1673ffffffffffffffffffffffffffffffffffffffff168152602001915050602060405180830381600087803b15801561120157600080fd5b505af1158015611215573d6000803e3d6000fd5b505050506040513d602081101561122b57600080fd5b810190808051906020019092919050505015156112b0576040517f08c379a000000000000000000000000000000000000000000000000000000000815260040180806020018281038252600d8152602001807f496e76616c696420566f7465720000000000000000000000000000000000000081525060200191505060405180910390fd5b6010600081548092919060010191905055506002600460009054906101000a900473ffffffffffffffffffffffffffffffffffffffff1673ffffffffffffffffffffffffffffffffffffffff1663602bb04f6040518163ffffffff167c0100000000000000000000000000000000000000000000000000000000028152600401602060405180830381600087803b15801561134a57600080fd5b505af115801561135e573d6000803e3d6000fd5b505050506040513d602081101561137457600080fd5b810190808051906020019092919050505081151561138e57fe5b046010541115611ab457600160009054906101000a900473ffffffffffffffffffffffffffffffffffffffff1673ffffffffffffffffffffffffffffffffffffffff1663bbee369430306040518363ffffffff167c0100000000000000000000000000000000000000000000000000000000028152600401808373ffffffffffffffffffffffffffffffffffffffff1673ffffffffffffffffffffffffffffffffffffffff1681526020018273ffffffffffffffffffffffffffffffffffffffff1673ffffffffffffffffffffffffffffffffffffffff168152602001807f4e6f6e70726f766964657273000000000000000000000000000000000000000081525060200192505050602060405180830381600087803b1580156114b157600080fd5b505af11580156114c5573d6000803e3d6000fd5b505050506040513d60208110156114db57600080fd5b81019080805190602001909291905050509250600083111515611566576040517f08c379a000000000000000000000000000000000000000000000000000000000815260040180806020018281038252600d8152602001807f4e6f20646f747320626f756e640000000000000000000000000000000000000081525060200191505060405180910390fd5b600160009054906101000a900473ffffffffffffffffffffffffffffffffffffffff1673ffffffffffffffffffffffffffffffffffffffff1663a06fe77530856040518363ffffffff167c0100000000000000000000000000000000000000000000000000000000028152600401808373ffffffffffffffffffffffffffffffffffffffff1673ffffffffffffffffffffffffffffffffffffffff168152602001807f4e6f6e70726f766964657273000000000000000000000000000000000000000081525060200182815260200192505050602060405180830381600087803b15801561165357600080fd5b505af1158015611667573d6000803e3d6000fd5b505050506040513d602081101561167d57600080fd5b810190808051906020019092919050505050600460009054906101000a900473ffffffffffffffffffffffffffffffffffffffff1673ffffffffffffffffffffffffffffffffffffffff1663602bb04f6040518163ffffffff167c0100000000000000000000000000000000000000000000000000000000028152600401602060405180830381600087803b15801561171557600080fd5b505af1158015611729573d6000803e3d6000fd5b505050506040513d602081101561173f57600080fd5b8101908080519060200190929190505050600360009054906101000a900473ffffffffffffffffffffffffffffffffffffffff1673ffffffffffffffffffffffffffffffffffffffff166370a08231306040518263ffffffff167c0100000000000000000000000000000000000000000000000000000000028152600401808273ffffffffffffffffffffffffffffffffffffffff1673ffffffffffffffffffffffffffffffffffffffff168152602001915050602060405180830381600087803b15801561180d57600080fd5b505af1158015611821573d6000803e3d6000fd5b505050506040513d602081101561183757600080fd5b810190808051906020019092919050505081151561185157fe5b049250600460009054906101000a900473ffffffffffffffffffffffffffffffffffffffff1673ffffffffffffffffffffffffffffffffffffffff166312faae936040518163ffffffff167c0100000000000000000000000000000000000000000000000000000000028152600401600060405180830381600087803b1580156118da57600080fd5b505af11580156118ee573d6000803e3d6000fd5b505050506040513d6000823e3d601f19601f82011682018060405250602081101561191857600080fd5b81019080805164010000000081111561193057600080fd5b8281019050602081018481111561194657600080fd5b815185602082028301116401000000008211171561196357600080fd5b50509291905050509150600090505b600460009054906101000a900473ffffffffffffffffffffffffffffffffffffffff1673ffffffffffffffffffffffffffffffffffffffff1663602bb04f6040518163ffffffff167c0100000000000000000000000000000000000000000000000000000000028152600401602060405180830381600087803b1580156119f857600080fd5b505af1158015611a0c573d6000803e3d6000fd5b505050506040513d6020811015611a2257600080fd5b8101908080519060200190929190505050811015611aab5782600f60008484815181101515611a4d57fe5b9060200190602002015173ffffffffffffffffffffffffffffffffffffffff1673ffffffffffffffffffffffffffffffffffffffff168152602001908152602001600020600082825401925050819055508080600101915050611972565b60006010819055505b505050565b600b5481565b600960009054906101000a900473ffffffffffffffffffffffffffffffffffffffff1681565b6000600460009054906101000a900473ffffffffffffffffffffffffffffffffffffffff1673ffffffffffffffffffffffffffffffffffffffff1663664c0bf9836040518263ffffffff167c01000000000000000000000000000000000000000000000000000000000281526004018080602001828103825283818151815260200191508051906020019060200280838360005b83811015611b94578082015181840152602081019050611b79565b5050505090500192505050600060405180830381600087803b158015611bb957600080fd5b505af1158015611bcd573d6000803e3d6000fd5b505050507f4d756c746950617274794f7261636c65000000000000000000000000000000009050600260009054906101000a900473ffffffffffffffffffffffffffffffffffffffff1673ffffffffffffffffffffffffffffffffffffffff1663af87c833613039836040518363ffffffff167c010000000000000000000000000000000000000000000000000000000002815260040180838152602001826000191660001916815260200192505050602060405180830381600087803b158015611c9757600080fd5b505af1158015611cab573d6000803e3d6000fd5b505050506040513d6020811015611cc157600080fd5b810190808051906020019092919050505050600260009054906101000a900473ffffffffffffffffffffffffffffffffffffffff1673ffffffffffffffffffffffffffffffffffffffff1663238b3aed600b54600c60006040518463ffffffff167c0100000000000000000000000000000000000000000000000000000000028152600401808460001916600019168152602001806020018373ffffffffffffffffffffffffffffffffffffffff1673ffffffffffffffffffffffffffffffffffffffff1681526020018281038252848181548152602001915080548015611dc857602002820191906000526020600020905b815481526020019060010190808311611db4575b5050945050505050602060405180830381600087803b158015611dea57600080fd5b505af1158015611dfe573d6000803e3d6000fd5b505050506040513d6020811015611e1457600080fd5b8101908080519060200190929190505050505050565b6000806000807f3029607cc6a3c9da1151808d70477d5629884ae9cf28dace18a0043d89460cf88a8a8a8a8a3360405180806020018660001916600019168152602001806020018473ffffffffffffffffffffffffffffffffffffffff1673ffffffffffffffffffffffffffffffffffffffff16815260200183810383528989828181526020019250808284378201915050838103825286868281815260200192506020028082843782019150509850505050505050505060405180910390a1600560009054906101000a900473ffffffffffffffffffffffffffffffffffffffff1673ffffffffffffffffffffffffffffffffffffffff163373ffffffffffffffffffffffffffffffffffffffff1614801561201257506000600460009054906101000a900473ffffffffffffffffffffffffffffffffffffffff1673ffffffffffffffffffffffffffffffffffffffff16636f07abcc8d6040518263ffffffff167c010000000000000000000000000000000000000000000000000000000002815260040180828152602001915050602060405180830381600087803b158015611fd557600080fd5b505af1158015611fe9573d6000803e3d6000fd5b505050506040513d6020811015611fff57600080fd5b8101908080519060200190929190505050145b1515612086576040517f08c379a000000000000000000000000000000000000000000000000000000000815260040180806020018281038252600d8152602001807f4469737061746368206f6e6c790000000000000000000000000000000000000081525060200191505060405180910390fd5b876040516020018082600019166000191681526020019150506040516020818303038152906040526040518082805190602001908083835b6020831015156120e357805182526020820191506020810190506020830392506120be565b6001836020036101000a0380198251168184511680821785525050505050509050019150506040518091039020935086866002818110151561212157fe5b90506020020135600019166001900492506000831180156122025750600460009054906101000a900473ffffffffffffffffffffffffffffffffffffffff1673ffffffffffffffffffffffffffffffffffffffff1663602bb04f6040518163ffffffff167c0100000000000000000000000000000000000000000000000000000000028152600401602060405180830381600087803b1580156121c357600080fd5b505af11580156121d7573d6000803e3d6000fd5b505050506040513d60208110156121ed57600080fd5b81019080805190602001909291905050508311155b1515612276576040517f08c379a00000000000000000000000000000000000000000000000000000000081526004018080602001828103825260188152602001807f496e76616c6964205468726573686f6c64204c656e677468000000000000000081525060200191505060405180910390fd5b600460009054906101000a900473ffffffffffffffffffffffffffffffffffffffff1673ffffffffffffffffffffffffffffffffffffffff1663b9c362098c856040518363ffffffff167c01000000000000000000000000000000000000000000000000000000000281526004018083815260200182815260200192505050600060405180830381600087803b15801561230f57600080fd5b505af1158015612323573d6000803e3d6000fd5b50505050600b546040516020018082600019166000191681526020019150506040516020818303038152906040526040518082805190602001908083835b6020831015156123865780518252602082019150602081019050602083039250612361565b6001836020036101000a0380198251168184511680821785525050505050509050019150506040518091039020600019168460001916141561299b57600460009054906101000a900473ffffffffffffffffffffffffffffffffffffffff1673ffffffffffffffffffffffffffffffffffffffff166381f668448c60016040518363ffffffff167c01000000000000000000000000000000000000000000000000000000000281526004018083815260200182815260200192505050600060405180830381600087803b15801561245c57600080fd5b505af1158015612470573d6000803e3d6000fd5b50505050600090505b600460009054906101000a900473ffffffffffffffffffffffffffffffffffffffff1673ffffffffffffffffffffffffffffffffffffffff1663602bb04f6040518163ffffffff167c0100000000000000000000000000000000000000000000000000000000028152600401602060405180830381600087803b1580156124ff57600080fd5b505af1158015612513573d6000803e3d6000fd5b505050506040513d602081101561252957600080fd5b810190808051906020019092919050505081101561299a5743428b8b8e600460009054906101000a900473ffffffffffffffffffffffffffffffffffffffff1673ffffffffffffffffffffffffffffffffffffffff16634155b850876040518263ffffffff167c010000000000000000000000000000000000000000000000000000000002815260040180828152602001915050602060405180830381600087803b1580156125d757600080fd5b505af11580156125eb573d6000803e3d6000fd5b505050506040513d602081101561260157600080fd5b81019080805190602001909291905050506040516020018087815260200186815260200185858082843782019150508381526020018273ffffffffffffffffffffffffffffffffffffffff1673ffffffffffffffffffffffffffffffffffffffff166c0100000000000000000000000002815260140196505050505050506040516020818303038152906040526040518082805190602001908083835b6020831015156126c3578051825260208201915060208101905060208303925061269e565b6001836020036101000a0380198251168184511680821785525050505050509050019150506040518091039020600190049150600460009054906101000a900473ffffffffffffffffffffffffffffffffffffffff1673ffffffffffffffffffffffffffffffffffffffff16638be8f272838d6040518363ffffffff167c01000000000000000000000000000000000000000000000000000000000281526004018083815260200182815260200192505050600060405180830381600087803b15801561278f57600080fd5b505af11580156127a3573d6000803e3d6000fd5b505050507f69741cc3ec0270f258feb6b53b42ef1e7d2251a3c8eea4f6ba1f72bd4b7beba782600460009054906101000a900473ffffffffffffffffffffffffffffffffffffffff1673ffffffffffffffffffffffffffffffffffffffff16634155b850846040518263ffffffff167c010000000000000000000000000000000000000000000000000000000002815260040180828152602001915050602060405180830381600087803b15801561285a57600080fd5b505af115801561286e573d6000803e3d6000fd5b505050506040513d602081101561288457600080fd5b8101908080519060200190929190505050308d8d8c8c6001604051808981526020018873ffffffffffffffffffffffffffffffffffffffff1673ffffffffffffffffffffffffffffffffffffffff1681526020018773ffffffffffffffffffffffffffffffffffffffff1673ffffffffffffffffffffffffffffffffffffffff16815260200180602001807f48656c6c6f3f0000000000000000000000000000000000000000000000000000815250602001806020018415151515815260200183810383528888828181526020019250808284378201915050838103825286868281815260200192506020028082843782019150509a505050505050505050505060405180910390a18080600101915050612479565b5b50505050505050505050505600a165627a7a723058204f6c4d9146fc3f461950aa5d99835c9f7fd7853cabcfb7eaa615f64b520d7c240029",
  "source": "pragma solidity ^0.4.24;\n\nimport \"./MPOStorage.sol\";\nimport \"./lib/Destructible.sol\";\nimport \"./lib/ZapInterface.sol\";\n// import \"./ECRecovery.sol\";\n// @title - A MultiPartyOracle contract that implements the client1 callback\n// @authors - Max Inciong, Jonathan Pang, Jon Morales\n// @notice the contract receives queries from dispatch and queries multiple providers to resolve the query\n\ncontract MultiPartyOracle {\n    event RecievedQuery(string query, bytes32 endpoint, bytes32[] params, address sender);\n    event ReceivedResponse(uint256 queryId, address responder, string response);\n    event Incoming(\n        uint256 id,\n        address provider,\n        address subscriber,\n        string query,\n        bytes32 endpoint,\n        bytes32[] endpointParams,\n        bool onchainSubscriber\n    );\n\n    event Result1(uint256 id, string response1);\n\n    ZapInterface dispatch;\n    ZapInterface bondage;\n    ZapInterface registry;\n    ZapInterface ztoken;\n    MPOStorage stor;\n    \n    //move dispatch address to storage\n    address dispatchAddress;\n    address bondageAddress;\n    address registryAddress;\n    address ztokenAddress;\n    address public storageAddress;\n    address aggregator; \n\n    bytes32 public spec3 = \"Nonproviders\";\n    int256[] curve3 = [1,1,1000000000];\n    // @notice constructor that sets up zap registry, dispatch, and MPO storage. Also sets up registry provider curve\n    // @param address registryAddress\n    // @param address _dispatchAddress\n    // @param address mpoStorageAddress\n    constructor(address _zapCoord, address mpoStorageAddress) public{\n        // require(_responders.length<=stor.getNumResponders(), \"Soft Cap reached\");\n        registryAddress = ZapInterface(_zapCoord).getContract(\"REGISTRY\");\n        registry = ZapInterface(registryAddress);\n        dispatchAddress = ZapInterface(_zapCoord).getContract(\"DISPATCH\");\n        dispatch = ZapInterface(dispatchAddress);\n        bondageAddress = ZapInterface(_zapCoord).getContract(\"BONDAGE\");\n        bondage = ZapInterface(bondageAddress);\n        ztokenAddress = ZapInterface(_zapCoord).getContract(\"ZAP_TOKEN\");\n        ztoken = ZapInterface(ztokenAddress);\n        stor = MPOStorage(mpoStorageAddress);\n    }\n    function setup(address[] _responders) public{\n        stor.setResponders(_responders);\n        bytes32 title = \"MultiPartyOracle\";\n        registry.initiateProvider(12345, title);\n        registry.initiateProviderCurve(spec3, curve3, address(0));\n\n    }\n    \n    // middleware function for handling queries\n    // @notice recieves query, called from dispatch\n    // @param uint256 id Dispatch created query ID\n    // @param string userQuery User provided query String\n    // @param bytes32 endpoint Determines whether to use Onchain Providers, Offchain Providers, Non-Providers\n    // @param bytes32[] endpointParams Parameters passed to providers\n    // @param bool onchainSubscriber Unused boolean that determines if subscriber is a smart contract\n    function receive(uint256 id, string userQuery, bytes32 endpoint, bytes32[] endpointParams, bool onchainSubscriber) external {\n        emit RecievedQuery(userQuery, endpoint, endpointParams, msg.sender);\n        require(msg.sender == dispatchAddress && stor.getQueryStatus(id) == 0, \"Dispatch only\");\n        // endpoint params [from, to, threshold, precision, delta]\n        bytes32 hash = keccak256(abi.encodePacked(endpoint));\n        uint256 threshold = uint(endpointParams[2]);\n        require(threshold > 0 && threshold <= stor.getNumResponders(),\"Invalid Threshold Length\");\n        stor.setThreshold(id, threshold );\n        \n        if(hash == keccak256(abi.encodePacked(spec3))) {\n            stor.setQueryStatus(id,1);\n            uint256 mpoid;\n            for(uint i=0; i<stor.getNumResponders(); i++) {      \n                mpoid=uint256(keccak256(abi.encodePacked(\n                                block.number, now, userQuery,id,stor.getResponderAddress(i)\n                                )));\n                stor.setClientQueryId(mpoid, id);\n                emit Incoming(mpoid, stor.getResponderAddress(i),this, userQuery, \"Hello?\", endpointParams, true);\n                \n            }\n        }\n    }\n\n    // @notice callback used by dispatch or nonproviders once a response has been created for the query\n    // @param queryId MPO or dispatch generated MPOID to used to determine client query ID\n    // @param response Response to be returned to client\n    // @param msgHash, sigv, sigr, sigs to be used in ecrecover\n    // @dev \n    uint numTrue = 0;\n    uint numFalse = 0;\n    function callback(uint256 mpoId, uint256[] responses, bytes32[] msgHash, uint8[] sigv, bytes32[] sigrs) external {\n        // require(msg.sender == aggregator, \"Invalid aggregator\");\n        \n        uint256 queryId = stor.getClientQueryId(mpoId);\n        address sender;\n        \n        for(uint i=0;i<msgHash.length;i++){\n            sender = ecrecover(msgHash[i],sigv[i],sigrs[2*i],sigrs[2*i+1]);\n            // If address is in whitelist\n            if( stor.getAddressStatus(sender) && !stor.onlyOneResponse(queryId,sender)){\n                    if(responses[i]!=0){\n                        numTrue++;\n                    }\n                    else{\n                        numFalse++;\n                    }\n                    stor.addResponse(queryId,sender);\n                }\n        }\n        \n        // Query status 0 = not started, 1 = in progress, 2 = complete\n        if(stor.getQueryStatus(queryId) == 1) {\n            // If enough answers meet the threshold send back the average of the answers\n            int256[] memory response=new int256[](1);\n            if(numTrue>numFalse && numTrue >= stor.getThreshold(queryId)){                \n                stor.setQueryStatus(queryId, 2);\n                response[0]=1;\n                return;\n            }\n            if(numFalse>numTrue && numFalse >= stor.getThreshold(queryId)){\n                stor.setQueryStatus(queryId, 2);\n                response[0]=0;\n                dispatch.respondIntArray(queryId, response);\n                return;\n            }\n        }\n        \n\n    }\n    mapping(address => uint) credits;\n    uint payoutTally = 0;\n    function payout() external {\n        require(stor.getAddressStatus(msg.sender), \"Invalid Voter\");\n        payoutTally++;\n        \n        if(payoutTally > stor.getNumResponders()/2){\n            uint payoutVal = bondage.getBoundDots(address(this),address(this),\"Nonproviders\");\n            require(payoutVal>0, \"No dots bound\");\n            bondage.unbond(address(this),\"Nonproviders\",payoutVal);\n            payoutVal = ztoken.balanceOf(address(this))/stor.getNumResponders();\n            address[] memory payArr = stor.getResponders();\n            for(uint i=0; i<stor.getNumResponders(); i++) {\n                credits[payArr[i]] += payoutVal;\n                // require(ztoken.transfer(payArr[i],payout), \"Failed to Tranfer Token\");\n            }\n            payoutTally=0;\n        }\n        \n        \n\n    }\n\n    function withdrawBalance() public {\n        uint amount = credits[msg.sender];\n\n        require(amount != 0, \"No payout available\");\n        require(ztoken.balanceOf(address(this)) >= amount, \"Not enough funds in contract\");\n\n        credits[msg.sender] = 0;\n\n        require(ztoken.transfer(msg.sender, amount), \"Failed to Tranfer Token\");\n    }\n\n  }\n    \n\n",
  "sourcePath": "/home/xv702/2zap/multiparty-oracle/contracts/MultiPartyOracle.sol",
  "compiler": {
    "name": "solc",
    "version": "0.4.24+commit.e67f0147.Emscripten.clang"
  },
  "schemaVersion": "2.0.1",
  "updatedAt": "2019-05-28T18:14:28.699Z"
}