{
  "contractName": "MultiPartyOracle",
  "abi": [
    {
      "constant": true,
      "inputs": [],
      "name": "storageAddress",
      "outputs": [
        {
          "name": "",
          "type": "address"
        }
      ],
      "payable": false,
      "stateMutability": "view",
      "type": "function"
    },
    {
      "inputs": [
        {
          "name": "_storageAddress",
          "type": "address"
        },
        {
          "name": "_responders",
          "type": "address[]"
        },
        {
          "name": "_threshold",
          "type": "uint256"
        }
      ],
      "payable": false,
      "stateMutability": "nonpayable",
      "type": "constructor"
    },
    {
      "constant": false,
      "inputs": [
        {
          "name": "queryId",
          "type": "uint256"
        },
        {
          "name": "response",
          "type": "string"
        }
      ],
      "name": "submitResponse1",
      "outputs": [],
      "payable": false,
      "stateMutability": "nonpayable",
      "type": "function"
    }
  ],
  "bytecode": "0x608060405234801561001057600080fd5b506040516107af3803806107af833981018060405281019080805190602001909291908051820192919060200180519060200190929190505050826000806101000a81548173ffffffffffffffffffffffffffffffffffffffff021916908373ffffffffffffffffffffffffffffffffffffffff1602179055506000809054906101000a900473ffffffffffffffffffffffffffffffffffffffff1673ffffffffffffffffffffffffffffffffffffffff1663664c0bf9836040518263ffffffff167c01000000000000000000000000000000000000000000000000000000000281526004018080602001828103825283818151815260200191508051906020019060200280838360005b8381101561013657808201518184015260208101905061011b565b5050505090500192505050600060405180830381600087803b15801561015b57600080fd5b505af115801561016f573d6000803e3d6000fd5b505050506000809054906101000a900473ffffffffffffffffffffffffffffffffffffffff1673ffffffffffffffffffffffffffffffffffffffff1663960bfe04826040518263ffffffff167c010000000000000000000000000000000000000000000000000000000002815260040180828152602001915050600060405180830381600087803b15801561020357600080fd5b505af1158015610217573d6000803e3d6000fd5b505050505050506105828061022d6000396000f30060806040526004361061004c576000357c0100000000000000000000000000000000000000000000000000000000900463ffffffff16806385aa92a714610051578063a1644a69146100a8575b600080fd5b34801561005d57600080fd5b5061006661011b565b604051808273ffffffffffffffffffffffffffffffffffffffff1673ffffffffffffffffffffffffffffffffffffffff16815260200191505060405180910390f35b3480156100b457600080fd5b5061011960048036038101908080359060200190929190803590602001908201803590602001908080601f0160208091040260200160405190810160405280939291908181526020018383808284378201915050505050509192919290505050610141565b005b600160009054906101000a900473ffffffffffffffffffffffffffffffffffffffff1681565b6000809054906101000a900473ffffffffffffffffffffffffffffffffffffffff1673ffffffffffffffffffffffffffffffffffffffff1663e226a1b6336040518263ffffffff167c0100000000000000000000000000000000000000000000000000000000028152600401808273ffffffffffffffffffffffffffffffffffffffff1673ffffffffffffffffffffffffffffffffffffffff168152602001915050602060405180830381600087803b1580156101fd57600080fd5b505af1158015610211573d6000803e3d6000fd5b505050506040513d602081101561022757600080fd5b8101908080519060200190929190505050151561024357600080fd5b6000809054906101000a900473ffffffffffffffffffffffffffffffffffffffff1673ffffffffffffffffffffffffffffffffffffffff1663a9a44b4b83836040518363ffffffff167c01000000000000000000000000000000000000000000000000000000000281526004018083815260200180602001828103825283818151815260200191508051906020019080838360005b838110156102f35780820151818401526020810190506102d8565b50505050905090810190601f1680156103205780820380516001836020036101000a031916815260200191505b509350505050600060405180830381600087803b15801561034057600080fd5b505af1158015610354573d6000803e3d6000fd5b505050506000809054906101000a900473ffffffffffffffffffffffffffffffffffffffff1673ffffffffffffffffffffffffffffffffffffffff1663e75235b86040518163ffffffff167c0100000000000000000000000000000000000000000000000000000000028152600401602060405180830381600087803b1580156103dd57600080fd5b505af11580156103f1573d6000803e3d6000fd5b505050506040513d602081101561040757600080fd5b81019080805190602001909291905050506000809054906101000a900473ffffffffffffffffffffffffffffffffffffffff1673ffffffffffffffffffffffffffffffffffffffff16631380556a84846040518363ffffffff167c01000000000000000000000000000000000000000000000000000000000281526004018083815260200180602001828103825283818151815260200191508051906020019080838360005b838110156104c85780820151818401526020810190506104ad565b50505050905090810190601f1680156104f55780820380516001836020036101000a031916815260200191505b509350505050602060405180830381600087803b15801561051557600080fd5b505af1158015610529573d6000803e3d6000fd5b505050506040513d602081101561053f57600080fd5b8101908080519060200190929190505050505050505600a165627a7a72305820103e17e3a83748ebcffe387c9ed604ba20658732e8709ccd002957530ca6c9cc0029",
  "source": "pragma solidity ^0.4.24;\n\n//import \"./MPOInterface.sol\";\n\nimport \"./MPOStorage.sol\";\n\n//import \"./~/Projects/ZapContracts/contracts/dispatch/DispatchInterface.sol\";\n\ncontract MultiPartyOracle {\n\n  MPOStorage stor;\n  address public storageAddress;\n\n  constructor(address _storageAddress, address[] _responders, uint256 _threshold) {\n    stor = MPOStorage(_storageAddress);\n    stor.setResponders(_responders);\n    stor.setThreshold(_threshold);\n  }\n\n  /* function setStorageAddress(address _storageAddress) {\n    storageAddress=_storageAddress;\n  } */\n\n  function submitResponse1(uint256 queryId, string response) {\n    require(stor.getAddressStatus(msg.sender));\n    stor.addResponse(queryId, response);\n    if(stor.getTally(queryId, response) >= stor.getThreshold()) {\n      //Dispatch.respond1(queryId, response);\n    }\n  }\n\n  /* function doTheThing(uint256 queryId) returns(string) {\n    Response[] responseArr = MPOStorage.getResponses(queryId);\n    string response=\"\";\n    while(MPOStorage.getResponses(queryId).length > 0) {\n      response += responseArr.pop().responseString;\n    }\n    return response;\n  } */\n\n}\n",
  "sourcePath": "/home/intern1/Projects/multipartyoracle/contracts/MultiPartyOracle.sol",
  "compiler": {
    "name": "solc",
    "version": "0.4.24+commit.e67f0147.Emscripten.clang"
  },
  "schemaVersion": "2.0.0",
  "updatedAt": "2018-06-19T23:17:49.935Z"
}