{
  "contractName": "Registry",
  "abi": [
    {
      "constant": true,
      "inputs": [],
      "name": "db",
      "outputs": [
        {
          "name": "",
          "type": "address"
        }
      ],
      "payable": false,
      "stateMutability": "view",
      "type": "function"
    },
    {
      "constant": false,
      "inputs": [],
      "name": "updateDependencies",
      "outputs": [],
      "payable": false,
      "stateMutability": "nonpayable",
      "type": "function"
    },
    {
      "constant": true,
      "inputs": [],
      "name": "owner",
      "outputs": [
        {
          "name": "",
          "type": "address"
        }
      ],
      "payable": false,
      "stateMutability": "view",
      "type": "function"
    },
    {
      "constant": false,
      "inputs": [],
      "name": "selfDestruct",
      "outputs": [],
      "payable": false,
      "stateMutability": "nonpayable",
      "type": "function"
    },
    {
      "constant": false,
      "inputs": [
        {
          "name": "newOwner",
          "type": "address"
        }
      ],
      "name": "transferOwnership",
      "outputs": [],
      "payable": false,
      "stateMutability": "nonpayable",
      "type": "function"
    },
    {
      "inputs": [
        {
          "name": "c",
          "type": "address"
        }
      ],
      "payable": false,
      "stateMutability": "nonpayable",
      "type": "constructor"
    },
    {
      "anonymous": false,
      "inputs": [
        {
          "indexed": true,
          "name": "provider",
          "type": "address"
        },
        {
          "indexed": true,
          "name": "title",
          "type": "bytes32"
        }
      ],
      "name": "NewProvider",
      "type": "event"
    },
    {
      "anonymous": false,
      "inputs": [
        {
          "indexed": true,
          "name": "provider",
          "type": "address"
        },
        {
          "indexed": true,
          "name": "endpoint",
          "type": "bytes32"
        },
        {
          "indexed": false,
          "name": "curve",
          "type": "int256[]"
        },
        {
          "indexed": true,
          "name": "broker",
          "type": "address"
        }
      ],
      "name": "NewCurve",
      "type": "event"
    },
    {
      "anonymous": false,
      "inputs": [
        {
          "indexed": true,
          "name": "previousOwner",
          "type": "address"
        },
        {
          "indexed": true,
          "name": "newOwner",
          "type": "address"
        }
      ],
      "name": "OwnershipTransferred",
      "type": "event"
    },
    {
      "constant": false,
      "inputs": [
        {
          "name": "publicKey",
          "type": "uint256"
        },
        {
          "name": "title",
          "type": "bytes32"
        }
      ],
      "name": "initiateProvider",
      "outputs": [
        {
          "name": "",
          "type": "bool"
        }
      ],
      "payable": false,
      "stateMutability": "nonpayable",
      "type": "function"
    },
    {
      "constant": false,
      "inputs": [
        {
          "name": "endpoint",
          "type": "bytes32"
        },
        {
          "name": "curve",
          "type": "int256[]"
        },
        {
          "name": "broker",
          "type": "address"
        }
      ],
      "name": "initiateProviderCurve",
      "outputs": [
        {
          "name": "",
          "type": "bool"
        }
      ],
      "payable": false,
      "stateMutability": "nonpayable",
      "type": "function"
    },
    {
      "constant": false,
      "inputs": [
        {
          "name": "key",
          "type": "bytes32"
        },
        {
          "name": "value",
          "type": "bytes32"
        }
      ],
      "name": "setProviderParameter",
      "outputs": [],
      "payable": false,
      "stateMutability": "nonpayable",
      "type": "function"
    },
    {
      "constant": true,
      "inputs": [
        {
          "name": "provider",
          "type": "address"
        },
        {
          "name": "key",
          "type": "bytes32"
        }
      ],
      "name": "getProviderParameter",
      "outputs": [
        {
          "name": "",
          "type": "bytes32"
        }
      ],
      "payable": false,
      "stateMutability": "view",
      "type": "function"
    },
    {
      "constant": true,
      "inputs": [
        {
          "name": "provider",
          "type": "address"
        }
      ],
      "name": "getAllProviderParams",
      "outputs": [
        {
          "name": "",
          "type": "bytes32[]"
        }
      ],
      "payable": false,
      "stateMutability": "view",
      "type": "function"
    },
    {
      "constant": false,
      "inputs": [
        {
          "name": "endpoint",
          "type": "bytes32"
        },
        {
          "name": "endpointParams",
          "type": "bytes32[]"
        }
      ],
      "name": "setEndpointParams",
      "outputs": [],
      "payable": false,
      "stateMutability": "nonpayable",
      "type": "function"
    },
    {
      "constant": true,
      "inputs": [
        {
          "name": "provider",
          "type": "address"
        }
      ],
      "name": "getProviderPublicKey",
      "outputs": [
        {
          "name": "",
          "type": "uint256"
        }
      ],
      "payable": false,
      "stateMutability": "view",
      "type": "function"
    },
    {
      "constant": true,
      "inputs": [
        {
          "name": "provider",
          "type": "address"
        }
      ],
      "name": "getProviderTitle",
      "outputs": [
        {
          "name": "",
          "type": "bytes32"
        }
      ],
      "payable": false,
      "stateMutability": "view",
      "type": "function"
    },
    {
      "constant": true,
      "inputs": [
        {
          "name": "provider",
          "type": "address"
        },
        {
          "name": "endpoint",
          "type": "bytes32"
        }
      ],
      "name": "getProviderCurve",
      "outputs": [
        {
          "name": "",
          "type": "int256[]"
        }
      ],
      "payable": false,
      "stateMutability": "view",
      "type": "function"
    },
    {
      "constant": true,
      "inputs": [
        {
          "name": "provider",
          "type": "address"
        },
        {
          "name": "endpoint",
          "type": "bytes32"
        }
      ],
      "name": "getProviderCurveLength",
      "outputs": [
        {
          "name": "",
          "type": "uint256"
        }
      ],
      "payable": false,
      "stateMutability": "view",
      "type": "function"
    },
    {
      "constant": true,
      "inputs": [
        {
          "name": "oracleAddress",
          "type": "address"
        }
      ],
      "name": "isProviderInitiated",
      "outputs": [
        {
          "name": "",
          "type": "bool"
        }
      ],
      "payable": false,
      "stateMutability": "view",
      "type": "function"
    },
    {
      "constant": true,
      "inputs": [
        {
          "name": "provider",
          "type": "address"
        }
      ],
      "name": "getPublicKey",
      "outputs": [
        {
          "name": "",
          "type": "uint256"
        }
      ],
      "payable": false,
      "stateMutability": "view",
      "type": "function"
    },
    {
      "constant": true,
      "inputs": [
        {
          "name": "provider",
          "type": "address"
        }
      ],
      "name": "getTitle",
      "outputs": [
        {
          "name": "",
          "type": "bytes32"
        }
      ],
      "payable": false,
      "stateMutability": "view",
      "type": "function"
    },
    {
      "constant": true,
      "inputs": [
        {
          "name": "provider",
          "type": "address"
        }
      ],
      "name": "getProviderEndpoints",
      "outputs": [
        {
          "name": "",
          "type": "bytes32[]"
        }
      ],
      "payable": false,
      "stateMutability": "view",
      "type": "function"
    },
    {
      "constant": true,
      "inputs": [
        {
          "name": "provider",
          "type": "address"
        },
        {
          "name": "endpoint",
          "type": "bytes32"
        }
      ],
      "name": "getEndpointParams",
      "outputs": [
        {
          "name": "",
          "type": "bytes32[]"
        }
      ],
      "payable": false,
      "stateMutability": "view",
      "type": "function"
    },
    {
      "constant": true,
      "inputs": [
        {
          "name": "oracleAddress",
          "type": "address"
        },
        {
          "name": "endpoint",
          "type": "bytes32"
        }
      ],
      "name": "getEndpointBroker",
      "outputs": [
        {
          "name": "",
          "type": "address"
        }
      ],
      "payable": false,
      "stateMutability": "view",
      "type": "function"
    },
    {
      "constant": true,
      "inputs": [
        {
          "name": "provider",
          "type": "address"
        },
        {
          "name": "endpoint",
          "type": "bytes32"
        }
      ],
      "name": "getCurveUnset",
      "outputs": [
        {
          "name": "",
          "type": "bool"
        }
      ],
      "payable": false,
      "stateMutability": "view",
      "type": "function"
    },
    {
      "constant": true,
      "inputs": [
        {
          "name": "index",
          "type": "uint256"
        }
      ],
      "name": "getOracleAddress",
      "outputs": [
        {
          "name": "",
          "type": "address"
        }
      ],
      "payable": false,
      "stateMutability": "view",
      "type": "function"
    },
    {
      "constant": true,
      "inputs": [],
      "name": "getAllOracles",
      "outputs": [
        {
          "name": "",
          "type": "address[]"
        }
      ],
      "payable": false,
      "stateMutability": "view",
      "type": "function"
    }
  ],
  "bytecode": "0x60806040523480156200001157600080fd5b50604051602080620048db8339810180604052810190808051906020019092919050505080336000806101000a81548173ffffffffffffffffffffffffffffffffffffffff021916908373ffffffffffffffffffffffffffffffffffffffff16021790555080600160006101000a81548173ffffffffffffffffffffffffffffffffffffffff021916908373ffffffffffffffffffffffffffffffffffffffff16021790555080600260006101000a81548173ffffffffffffffffffffffffffffffffffffffff021916908373ffffffffffffffffffffffffffffffffffffffff160217905550506200011262000119640100000000026401000000009004565b5062000261565b6000600260009054906101000a900473ffffffffffffffffffffffffffffffffffffffff1673ffffffffffffffffffffffffffffffffffffffff1663358177736040518163ffffffff167c01000000000000000000000000000000000000000000000000000000000281526004018080602001828103825260088152602001807f4441544142415345000000000000000000000000000000000000000000000000815250602001915050602060405180830381600087803b158015620001de57600080fd5b505af1158015620001f3573d6000803e3d6000fd5b505050506040513d60208110156200020a57600080fd5b8101908080519060200190929190505050905080600360006101000a81548173ffffffffffffffffffffffffffffffffffffffff021916908373ffffffffffffffffffffffffffffffffffffffff16021790555050565b61466a80620002716000396000f30060806040526004361061013e576000357c0100000000000000000000000000000000000000000000000000000000900463ffffffff168063186b79c9146101435780632316a9ff1461019e578063238b3aed14610244578063275601f6146102f05780634d655aff146103885780634d9bcac4146103df5780634ff6e86e1461044c5780635481f43e146104a357806354a365df1461050257806365a6bb291461056b5780636e5ecdff146105d7578063857cdbb8146105ee57806387cd29a4146106455780638da5cb5b146106aa5780638e2c2e50146107015780639217c438146107405780639c39c8ea146107ad5780639cb8a26a1461083e578063a72460d114610855578063af87c833146108ed578063e95d618214610940578063f2fde38b146109e6578063f51d7d5f14610a29578063fcf0c24814610a88575b600080fd5b34801561014f57600080fd5b50610184600480360381019080803573ffffffffffffffffffffffffffffffffffffffff169060200190929190505050610afc565b604051808215151515815260200191505060405180910390f35b3480156101aa57600080fd5b506101ed600480360381019080803573ffffffffffffffffffffffffffffffffffffffff1690602001909291908035600019169060200190929190505050610b18565b6040518080602001828103825283818151815260200191508051906020019060200280838360005b83811015610230578082015181840152602081019050610215565b505050509050019250505060405180910390f35b34801561025057600080fd5b506102d6600480360381019080803560001916906020019092919080359060200190820180359060200190808060200260200160405190810160405280939291908181526020018383602002808284378201915050505050509192919290803573ffffffffffffffffffffffffffffffffffffffff169060200190929190505050610de7565b604051808215151515815260200191505060405180910390f35b3480156102fc57600080fd5b50610331600480360381019080803573ffffffffffffffffffffffffffffffffffffffff16906020019092919050505061138e565b6040518080602001828103825283818151815260200191508051906020019060200280838360005b83811015610374578082015181840152602081019050610359565b505050509050019250505060405180910390f35b34801561039457600080fd5b5061039d611670565b604051808273ffffffffffffffffffffffffffffffffffffffff1673ffffffffffffffffffffffffffffffffffffffff16815260200191505060405180910390f35b3480156103eb57600080fd5b5061042e600480360381019080803573ffffffffffffffffffffffffffffffffffffffff1690602001909291908035600019169060200190929190505050611696565b60405180826000191660001916815260200191505060405180910390f35b34801561045857600080fd5b5061048d600480360381019080803573ffffffffffffffffffffffffffffffffffffffff1690602001909291905050506119d7565b6040518082815260200191505060405180910390f35b3480156104af57600080fd5b506104e4600480360381019080803573ffffffffffffffffffffffffffffffffffffffff1690602001909291905050506119e9565b60405180826000191660001916815260200191505060405180910390f35b34801561050e57600080fd5b50610551600480360381019080803573ffffffffffffffffffffffffffffffffffffffff16906020019092919080356000191690602001909291905050506119fb565b604051808215151515815260200191505060405180910390f35b34801561057757600080fd5b50610580611bf7565b6040518080602001828103825283818151815260200191508051906020019060200280838360005b838110156105c35780820151818401526020810190506105a8565b505050509050019250505060405180910390f35b3480156105e357600080fd5b506105ec611dc9565b005b3480156105fa57600080fd5b5061062f600480360381019080803573ffffffffffffffffffffffffffffffffffffffff169060200190929190505050611e98565b6040518082815260200191505060405180910390f35b34801561065157600080fd5b50610694600480360381019080803573ffffffffffffffffffffffffffffffffffffffff1690602001909291908035600019169060200190929190505050612081565b6040518082815260200191505060405180910390f35b3480156106b657600080fd5b506106bf612351565b604051808273ffffffffffffffffffffffffffffffffffffffff1673ffffffffffffffffffffffffffffffffffffffff16815260200191505060405180910390f35b34801561070d57600080fd5b5061073e60048036038101908080356000191690602001909291908035600019169060200190929190505050612376565b005b34801561074c57600080fd5b5061076b600480360381019080803590602001909291905050506129ae565b604051808273ffffffffffffffffffffffffffffffffffffffff1673ffffffffffffffffffffffffffffffffffffffff16815260200191505060405180910390f35b3480156107b957600080fd5b506107fc600480360381019080803573ffffffffffffffffffffffffffffffffffffffff1690602001909291908035600019169060200190929190505050612b34565b604051808273ffffffffffffffffffffffffffffffffffffffff1673ffffffffffffffffffffffffffffffffffffffff16815260200191505060405180910390f35b34801561084a57600080fd5b50610853612d32565b005b34801561086157600080fd5b50610896600480360381019080803573ffffffffffffffffffffffffffffffffffffffff169060200190929190505050612dc7565b6040518080602001828103825283818151815260200191508051906020019060200280838360005b838110156108d95780820151818401526020810190506108be565b505050509050019250505060405180910390f35b3480156108f957600080fd5b50610926600480360381019080803590602001909291908035600019169060200190929190505050613006565b604051808215151515815260200191505060405180910390f35b34801561094c57600080fd5b5061098f600480360381019080803573ffffffffffffffffffffffffffffffffffffffff1690602001909291908035600019169060200190929190505050613112565b6040518080602001828103825283818151815260200191508051906020019060200280838360005b838110156109d25780820151818401526020810190506109b7565b505050509050019250505060405180910390f35b3480156109f257600080fd5b50610a27600480360381019080803573ffffffffffffffffffffffffffffffffffffffff169060200190929190505050613362565b005b348015610a3557600080fd5b50610a6a600480360381019080803573ffffffffffffffffffffffffffffffffffffffff1690602001909291905050506134b7565b60405180826000191660001916815260200191505060405180910390f35b348015610a9457600080fd5b50610afa6004803603810190808035600019169060200190929190803590602001908201803590602001908080602002602001604051908101604052809392919081815260200183836020028082843782019150505050505091929192905050506136a0565b005b600080600102610b0b836119e9565b6000191614159050919050565b6060610b2483836119fb565b151515610b99576040517f08c379a000000000000000000000000000000000000000000000000000000000815260040180806020018281038252601b8152602001807f4572726f723a204375727665206973206e6f742079657420736574000000000081525060200191505060405180910390fd5b600360009054906101000a900473ffffffffffffffffffffffffffffffffffffffff1673ffffffffffffffffffffffffffffffffffffffff16632d2899b6848460405160200180807f6f7261636c6573000000000000000000000000000000000000000000000000008152506007018373ffffffffffffffffffffffffffffffffffffffff1673ffffffffffffffffffffffffffffffffffffffff166c01000000000000000000000000028152601401807f63757276657300000000000000000000000000000000000000000000000000008152506006018260001916600019168152602001925050506040516020818303038152906040526040518082805190602001908083835b602083101515610cc75780518252602082019150602081019050602083039250610ca2565b6001836020036101000a03801982511681845116808217855250505050505090500191505060405180910390206040518263ffffffff167c0100000000000000000000000000000000000000000000000000000000028152600401808260001916600019168152602001915050600060405180830381600087803b158015610d4e57600080fd5b505af1158015610d62573d6000803e3d6000fd5b505050506040513d6000823e3d601f19601f820116820180604052506020811015610d8c57600080fd5b810190808051640100000000811115610da457600080fd5b82810190506020810184811115610dba57600080fd5b8151856020820283011164010000000082111715610dd757600080fd5b5050929190505050905092915050565b6000610df233610afc565b1515610e8c576040517f08c379a00000000000000000000000000000000000000000000000000000000081526004018080602001828103825260248152602001807f4572726f723a2050726f7669646572206973206e6f742079657420696e69746981526020017f617465640000000000000000000000000000000000000000000000000000000081525060400191505060405180910390fd5b610e9633856119fb565b1515610f0a576040517f08c379a000000000000000000000000000000000000000000000000000000000815260040180806020018281038252601b8152602001807f4572726f723a20437572766520697320616c726561647920736574000000000081525060200191505060405180910390fd5b610f153385856139dc565b600360009054906101000a900473ffffffffffffffffffffffffffffffffffffffff1673ffffffffffffffffffffffffffffffffffffffff16638d152d783360405160200180807f6f7261636c6573000000000000000000000000000000000000000000000000008152506007018273ffffffffffffffffffffffffffffffffffffffff1673ffffffffffffffffffffffffffffffffffffffff166c01000000000000000000000000028152601401807f656e64706f696e747300000000000000000000000000000000000000000000008152506009019150506040516020818303038152906040526040518082805190602001908083835b602083101515611033578051825260208201915060208101905060208303925061100e565b6001836020036101000a0380198251168184511680821785525050505050509050019150506040518091039020866040518363ffffffff167c0100000000000000000000000000000000000000000000000000000000028152600401808360001916600019168152602001826000191660001916815260200192505050600060405180830381600087803b1580156110ca57600080fd5b505af11580156110de573d6000803e3d6000fd5b50505050600360009054906101000a900473ffffffffffffffffffffffffffffffffffffffff1673ffffffffffffffffffffffffffffffffffffffff16634e91db08338660405160200180807f6f7261636c6573000000000000000000000000000000000000000000000000008152506007018373ffffffffffffffffffffffffffffffffffffffff1673ffffffffffffffffffffffffffffffffffffffff166c010000000000000000000000000281526014018260001916600019168152602001807f62726f6b65720000000000000000000000000000000000000000000000000000815250600601925050506040516020818303038152906040526040518082805190602001908083835b60208310151561121057805182526020820191506020810190506020830392506111eb565b6001836020036101000a03801982511681845116808217855250505050505090500191505060405180910390208473ffffffffffffffffffffffffffffffffffffffff166001026040518363ffffffff167c0100000000000000000000000000000000000000000000000000000000028152600401808360001916600019168152602001826000191660001916815260200192505050600060405180830381600087803b1580156112c057600080fd5b505af11580156112d4573d6000803e3d6000fd5b505050508173ffffffffffffffffffffffffffffffffffffffff1684600019163373ffffffffffffffffffffffffffffffffffffffff167fadd7c8d34ea3b815721e4441e9d375f523912507ae885dfabba0d2e892ca350c866040518080602001828103825283818151815260200191508051906020019060200280838360005b83811015611370578082015181840152602081019050611355565b505050509050019250505060405180910390a4600190509392505050565b606061139982610afc565b1515611433576040517f08c379a00000000000000000000000000000000000000000000000000000000081526004018080602001828103825260248152602001807f4572726f723a2050726f7669646572206973206e6f742079657420696e69746981526020017f617465640000000000000000000000000000000000000000000000000000000081525060400191505060405180910390fd5b600360009054906101000a900473ffffffffffffffffffffffffffffffffffffffff1673ffffffffffffffffffffffffffffffffffffffff16638db0e83b8360405160200180807f6f7261636c6573000000000000000000000000000000000000000000000000008152506007018273ffffffffffffffffffffffffffffffffffffffff1673ffffffffffffffffffffffffffffffffffffffff166c01000000000000000000000000028152601401807f70726f7669646572506172616d73000000000000000000000000000000000000815250600e019150506040516020818303038152906040526040518082805190602001908083835b602083101515611551578051825260208201915060208101905060208303925061152c565b6001836020036101000a03801982511681845116808217855250505050505090500191505060405180910390206040518263ffffffff167c0100000000000000000000000000000000000000000000000000000000028152600401808260001916600019168152602001915050600060405180830381600087803b1580156115d857600080fd5b505af11580156115ec573d6000803e3d6000fd5b505050506040513d6000823e3d601f19601f82011682018060405250602081101561161657600080fd5b81019080805164010000000081111561162e57600080fd5b8281019050602081018481111561164457600080fd5b815185602082028301116401000000008211171561166157600080fd5b50509291905050509050919050565b600360009054906101000a900473ffffffffffffffffffffffffffffffffffffffff1681565b60006116a183610afc565b151561173b576040517f08c379a00000000000000000000000000000000000000000000000000000000081526004018080602001828103825260248152602001807f4572726f723a2050726f7669646572206973206e6f742079657420696e69746981526020017f617465640000000000000000000000000000000000000000000000000000000081525060400191505060405180910390fd5b6117458383613dc9565b15156117df576040517f08c379a00000000000000000000000000000000000000000000000000000000081526004018080602001828103825260308152602001807f4572726f723a2050726f766964657220506172616d65746572206973206e6f7481526020017f2079657420696e697469616c697a65640000000000000000000000000000000081525060400191505060405180910390fd5b600360009054906101000a900473ffffffffffffffffffffffffffffffffffffffff1673ffffffffffffffffffffffffffffffffffffffff1663a6ed563e848460405160200180807f6f7261636c6573000000000000000000000000000000000000000000000000008152506007018373ffffffffffffffffffffffffffffffffffffffff1673ffffffffffffffffffffffffffffffffffffffff166c01000000000000000000000000028152601401807f70726f7669646572506172616d73000000000000000000000000000000000000815250600e018260001916600019168152602001925050506040516020818303038152906040526040518082805190602001908083835b60208310151561190d57805182526020820191506020810190506020830392506118e8565b6001836020036101000a03801982511681845116808217855250505050505090500191505060405180910390206040518263ffffffff167c0100000000000000000000000000000000000000000000000000000000028152600401808260001916600019168152602001915050602060405180830381600087803b15801561199457600080fd5b505af11580156119a8573d6000803e3d6000fd5b505050506040513d60208110156119be57600080fd5b8101908080519060200190929190505050905092915050565b60006119e282611e98565b9050919050565b60006119f4826134b7565b9050919050565b600080600360009054906101000a900473ffffffffffffffffffffffffffffffffffffffff1673ffffffffffffffffffffffffffffffffffffffff1663a21a65ae858560405160200180807f6f7261636c6573000000000000000000000000000000000000000000000000008152506007018373ffffffffffffffffffffffffffffffffffffffff1673ffffffffffffffffffffffffffffffffffffffff166c01000000000000000000000000028152601401807f63757276657300000000000000000000000000000000000000000000000000008152506006018260001916600019168152602001925050506040516020818303038152906040526040518082805190602001908083835b602083101515611b2c5780518252602082019150602081019050602083039250611b07565b6001836020036101000a03801982511681845116808217855250505050505090500191505060405180910390206040518263ffffffff167c0100000000000000000000000000000000000000000000000000000000028152600401808260001916600019168152602001915050602060405180830381600087803b158015611bb357600080fd5b505af1158015611bc7573d6000803e3d6000fd5b505050506040513d6020811015611bdd57600080fd5b810190808051906020019092919050505014905092915050565b6060600360009054906101000a900473ffffffffffffffffffffffffffffffffffffffff1673ffffffffffffffffffffffffffffffffffffffff16635948f73360405160200180807f6f7261636c65496e646578000000000000000000000000000000000000000000815250600b0190506040516020818303038152906040526040518082805190602001908083835b602083101515611cac5780518252602082019150602081019050602083039250611c87565b6001836020036101000a03801982511681845116808217855250505050505090500191505060405180910390206040518263ffffffff167c0100000000000000000000000000000000000000000000000000000000028152600401808260001916600019168152602001915050600060405180830381600087803b158015611d3357600080fd5b505af1158015611d47573d6000803e3d6000fd5b505050506040513d6000823e3d601f19601f820116820180604052506020811015611d7157600080fd5b810190808051640100000000811115611d8957600080fd5b82810190506020810184811115611d9f57600080fd5b8151856020820283011164010000000082111715611dbc57600080fd5b5050929190505050905090565b600160009054906101000a900473ffffffffffffffffffffffffffffffffffffffff1673ffffffffffffffffffffffffffffffffffffffff163373ffffffffffffffffffffffffffffffffffffffff16141515611e8e576040517f08c379a00000000000000000000000000000000000000000000000000000000081526004018080602001828103825260208152602001807f4572726f723a20436f6f7264696e61746f72204f6e6c792046756e6374696f6e81525060200191505060405180910390fd5b611e96613fd9565b565b6000600360009054906101000a900473ffffffffffffffffffffffffffffffffffffffff1673ffffffffffffffffffffffffffffffffffffffff16632ecb0d648360405160200180807f6f7261636c6573000000000000000000000000000000000000000000000000008152506007018273ffffffffffffffffffffffffffffffffffffffff1673ffffffffffffffffffffffffffffffffffffffff166c01000000000000000000000000028152601401807f7075626c69634b657900000000000000000000000000000000000000000000008152506009019150506040516020818303038152906040526040518082805190602001908083835b602083101515611fb85780518252602082019150602081019050602083039250611f93565b6001836020036101000a03801982511681845116808217855250505050505090500191505060405180910390206040518263ffffffff167c0100000000000000000000000000000000000000000000000000000000028152600401808260001916600019168152602001915050602060405180830381600087803b15801561203f57600080fd5b505af1158015612053573d6000803e3d6000fd5b505050506040513d602081101561206957600080fd5b81019080805190602001909291905050509050919050565b600061208d83836119fb565b151515612102576040517f08c379a000000000000000000000000000000000000000000000000000000000815260040180806020018281038252601b8152602001807f4572726f723a204375727665206973206e6f742079657420736574000000000081525060200191505060405180910390fd5b600360009054906101000a900473ffffffffffffffffffffffffffffffffffffffff1673ffffffffffffffffffffffffffffffffffffffff16632d2899b6848460405160200180807f6f7261636c6573000000000000000000000000000000000000000000000000008152506007018373ffffffffffffffffffffffffffffffffffffffff1673ffffffffffffffffffffffffffffffffffffffff166c01000000000000000000000000028152601401807f63757276657300000000000000000000000000000000000000000000000000008152506006018260001916600019168152602001925050506040516020818303038152906040526040518082805190602001908083835b602083101515612230578051825260208201915060208101905060208303925061220b565b6001836020036101000a03801982511681845116808217855250505050505090500191505060405180910390206040518263ffffffff167c0100000000000000000000000000000000000000000000000000000000028152600401808260001916600019168152602001915050600060405180830381600087803b1580156122b757600080fd5b505af11580156122cb573d6000803e3d6000fd5b505050506040513d6000823e3d601f19601f8201168201806040525060208110156122f557600080fd5b81019080805164010000000081111561230d57600080fd5b8281019050602081018481111561232357600080fd5b815185602082028301116401000000008211171561234057600080fd5b505092919050505051905092915050565b6000809054906101000a900473ffffffffffffffffffffffffffffffffffffffff1681565b61237f33610afc565b1515612419576040517f08c379a00000000000000000000000000000000000000000000000000000000081526004018080602001828103825260248152602001807f4572726f723a2050726f7669646572206973206e6f742079657420696e69746981526020017f617465640000000000000000000000000000000000000000000000000000000081525060400191505060405180910390fd5b6124233383613dc9565b15156127cd57600360009054906101000a900473ffffffffffffffffffffffffffffffffffffffff1673ffffffffffffffffffffffffffffffffffffffff166354c552db338460405160200180807f6f7261636c6573000000000000000000000000000000000000000000000000008152506007018373ffffffffffffffffffffffffffffffffffffffff1673ffffffffffffffffffffffffffffffffffffffff166c01000000000000000000000000028152601401807f69735f706172616d5f7365740000000000000000000000000000000000000000815250600c018260001916600019168152602001925050506040516020818303038152906040526040518082805190602001908083835b6020831015156125575780518252602082019150602081019050602083039250612532565b6001836020036101000a038019825116818451168082178552505050505050905001915050604051809103902060016040518363ffffffff167c010000000000000000000000000000000000000000000000000000000002815260040180836000191660001916815260200182815260200192505050600060405180830381600087803b1580156125e757600080fd5b505af11580156125fb573d6000803e3d6000fd5b50505050600360009054906101000a900473ffffffffffffffffffffffffffffffffffffffff1673ffffffffffffffffffffffffffffffffffffffff16638d152d783360405160200180807f6f7261636c6573000000000000000000000000000000000000000000000000008152506007018273ffffffffffffffffffffffffffffffffffffffff1673ffffffffffffffffffffffffffffffffffffffff166c01000000000000000000000000028152601401807f70726f7669646572506172616d73000000000000000000000000000000000000815250600e019150506040516020818303038152906040526040518082805190602001908083835b60208310151561271d57805182526020820191506020810190506020830392506126f8565b6001836020036101000a0380198251168184511680821785525050505050509050019150506040518091039020846040518363ffffffff167c0100000000000000000000000000000000000000000000000000000000028152600401808360001916600019168152602001826000191660001916815260200192505050600060405180830381600087803b1580156127b457600080fd5b505af11580156127c8573d6000803e3d6000fd5b505050505b600360009054906101000a900473ffffffffffffffffffffffffffffffffffffffff1673ffffffffffffffffffffffffffffffffffffffff16634e91db08338460405160200180807f6f7261636c6573000000000000000000000000000000000000000000000000008152506007018373ffffffffffffffffffffffffffffffffffffffff1673ffffffffffffffffffffffffffffffffffffffff166c01000000000000000000000000028152601401807f70726f7669646572506172616d73000000000000000000000000000000000000815250600e018260001916600019168152602001925050506040516020818303038152906040526040518082805190602001908083835b6020831015156128fb57805182526020820191506020810190506020830392506128d6565b6001836020036101000a0380198251168184511680821785525050505050509050019150506040518091039020836040518363ffffffff167c0100000000000000000000000000000000000000000000000000000000028152600401808360001916600019168152602001826000191660001916815260200192505050600060405180830381600087803b15801561299257600080fd5b505af11580156129a6573d6000803e3d6000fd5b505050505050565b6000600360009054906101000a900473ffffffffffffffffffffffffffffffffffffffff1673ffffffffffffffffffffffffffffffffffffffff1663e16e934060405160200180807f6f7261636c65496e646578000000000000000000000000000000000000000000815250600b0190506040516020818303038152906040526040518082805190602001908083835b602083101515612a635780518252602082019150602081019050602083039250612a3e565b6001836020036101000a0380198251168184511680821785525050505050509050019150506040518091039020846040518363ffffffff167c010000000000000000000000000000000000000000000000000000000002815260040180836000191660001916815260200182815260200192505050602060405180830381600087803b158015612af257600080fd5b505af1158015612b06573d6000803e3d6000fd5b505050506040513d6020811015612b1c57600080fd5b81019080805190602001909291905050509050919050565b6000600360009054906101000a900473ffffffffffffffffffffffffffffffffffffffff1673ffffffffffffffffffffffffffffffffffffffff1663a6ed563e848460405160200180807f6f7261636c6573000000000000000000000000000000000000000000000000008152506007018373ffffffffffffffffffffffffffffffffffffffff1673ffffffffffffffffffffffffffffffffffffffff166c010000000000000000000000000281526014018260001916600019168152602001807f62726f6b65720000000000000000000000000000000000000000000000000000815250600601925050506040516020818303038152906040526040518082805190602001908083835b602083101515612c645780518252602082019150602081019050602083039250612c3f565b6001836020036101000a03801982511681845116808217855250505050505090500191505060405180910390206040518263ffffffff167c0100000000000000000000000000000000000000000000000000000000028152600401808260001916600019168152602001915050602060405180830381600087803b158015612ceb57600080fd5b505af1158015612cff573d6000803e3d6000fd5b505050506040513d6020811015612d1557600080fd5b810190808051906020019092919050505060019004905092915050565b6000809054906101000a900473ffffffffffffffffffffffffffffffffffffffff1673ffffffffffffffffffffffffffffffffffffffff163373ffffffffffffffffffffffffffffffffffffffff16141515612d8d57600080fd5b6000809054906101000a900473ffffffffffffffffffffffffffffffffffffffff1673ffffffffffffffffffffffffffffffffffffffff16ff5b6060600360009054906101000a900473ffffffffffffffffffffffffffffffffffffffff1673ffffffffffffffffffffffffffffffffffffffff16638db0e83b8360405160200180807f6f7261636c6573000000000000000000000000000000000000000000000000008152506007018273ffffffffffffffffffffffffffffffffffffffff1673ffffffffffffffffffffffffffffffffffffffff166c01000000000000000000000000028152601401807f656e64706f696e747300000000000000000000000000000000000000000000008152506009019150506040516020818303038152906040526040518082805190602001908083835b602083101515612ee75780518252602082019150602081019050602083039250612ec2565b6001836020036101000a03801982511681845116808217855250505050505090500191505060405180910390206040518263ffffffff167c0100000000000000000000000000000000000000000000000000000000028152600401808260001916600019168152602001915050600060405180830381600087803b158015612f6e57600080fd5b505af1158015612f82573d6000803e3d6000fd5b505050506040513d6000823e3d601f19601f820116820180604052506020811015612fac57600080fd5b810190808051640100000000811115612fc457600080fd5b82810190506020810184811115612fda57600080fd5b8151856020820283011164010000000082111715612ff757600080fd5b50509291905050509050919050565b600061301133610afc565b1515156130ac576040517f08c379a00000000000000000000000000000000000000000000000000000000081526004018080602001828103825260248152602001807f4572726f723a2050726f766964657220697320616c726561647920696e69746981526020017f617465640000000000000000000000000000000000000000000000000000000081525060400191505060405180910390fd5b6130b733848461411e565b6130c0336144b5565b81600019163373ffffffffffffffffffffffffffffffffffffffff167f96c4fc31a3e383225857c821101daf68248108597da8ddde0ac2b431eb9a16be60405160405180910390a36001905092915050565b6060600360009054906101000a900473ffffffffffffffffffffffffffffffffffffffff1673ffffffffffffffffffffffffffffffffffffffff16638db0e83b848460405160200180807f6f7261636c6573000000000000000000000000000000000000000000000000008152506007018373ffffffffffffffffffffffffffffffffffffffff1673ffffffffffffffffffffffffffffffffffffffff166c01000000000000000000000000028152601401807f656e64706f696e74506172616d73000000000000000000000000000000000000815250600e018260001916600019168152602001925050506040516020818303038152906040526040518082805190602001908083835b602083101515613242578051825260208201915060208101905060208303925061321d565b6001836020036101000a03801982511681845116808217855250505050505090500191505060405180910390206040518263ffffffff167c0100000000000000000000000000000000000000000000000000000000028152600401808260001916600019168152602001915050600060405180830381600087803b1580156132c957600080fd5b505af11580156132dd573d6000803e3d6000fd5b505050506040513d6000823e3d601f19601f82011682018060405250602081101561330757600080fd5b81019080805164010000000081111561331f57600080fd5b8281019050602081018481111561333557600080fd5b815185602082028301116401000000008211171561335257600080fd5b5050929190505050905092915050565b6000809054906101000a900473ffffffffffffffffffffffffffffffffffffffff1673ffffffffffffffffffffffffffffffffffffffff163373ffffffffffffffffffffffffffffffffffffffff161415156133bd57600080fd5b600073ffffffffffffffffffffffffffffffffffffffff168173ffffffffffffffffffffffffffffffffffffffff16141515156133f957600080fd5b8073ffffffffffffffffffffffffffffffffffffffff166000809054906101000a900473ffffffffffffffffffffffffffffffffffffffff1673ffffffffffffffffffffffffffffffffffffffff167f8be0079c531659141344cd1fd0a4f28419497f9722a3daafe3b4186f6b6457e060405160405180910390a3806000806101000a81548173ffffffffffffffffffffffffffffffffffffffff021916908373ffffffffffffffffffffffffffffffffffffffff16021790555050565b6000600360009054906101000a900473ffffffffffffffffffffffffffffffffffffffff1673ffffffffffffffffffffffffffffffffffffffff1663a6ed563e8360405160200180807f6f7261636c6573000000000000000000000000000000000000000000000000008152506007018273ffffffffffffffffffffffffffffffffffffffff1673ffffffffffffffffffffffffffffffffffffffff166c01000000000000000000000000028152601401807f7469746c650000000000000000000000000000000000000000000000000000008152506005019150506040516020818303038152906040526040518082805190602001908083835b6020831015156135d757805182526020820191506020810190506020830392506135b2565b6001836020036101000a03801982511681845116808217855250505050505090500191505060405180910390206040518263ffffffff167c0100000000000000000000000000000000000000000000000000000000028152600401808260001916600019168152602001915050602060405180830381600087803b15801561365e57600080fd5b505af1158015613672573d6000803e3d6000fd5b505050506040513d602081101561368857600080fd5b81019080805190602001909291905050509050919050565b6136a933610afc565b1515613743576040517f08c379a00000000000000000000000000000000000000000000000000000000081526004018080602001828103825260268152602001807f4572726f723a2050726f7669646572206973206e6f742079657420696e69746981526020017f616c697a6564000000000000000000000000000000000000000000000000000081525060400191505060405180910390fd5b61374d33836119fb565b1515156137c2576040517f08c379a000000000000000000000000000000000000000000000000000000000815260040180806020018281038252601b8152602001807f4572726f723a204375727665206973206e6f742079657420736574000000000081525060200191505060405180910390fd5b600360009054906101000a900473ffffffffffffffffffffffffffffffffffffffff1673ffffffffffffffffffffffffffffffffffffffff166356e5cf2e338460405160200180807f6f7261636c6573000000000000000000000000000000000000000000000000008152506007018373ffffffffffffffffffffffffffffffffffffffff1673ffffffffffffffffffffffffffffffffffffffff166c01000000000000000000000000028152601401807f656e64706f696e74506172616d73000000000000000000000000000000000000815250600e018260001916600019168152602001925050506040516020818303038152906040526040518082805190602001908083835b6020831015156138f057805182526020820191506020810190506020830392506138cb565b6001836020036101000a0380198251168184511680821785525050505050509050019150506040518091039020836040518363ffffffff167c010000000000000000000000000000000000000000000000000000000002815260040180836000191660001916815260200180602001828103825283818151815260200191508051906020019060200280838360005b8381101561399a57808201518184015260208101905061397f565b505050509050019350505050600060405180830381600087803b1580156139c057600080fd5b505af11580156139d4573d6000803e3d6000fd5b505050505050565b600080600080600060019450600093505b8551841015613ba9578584815181101515613a0457fe5b906020019060200201519250600083131515613a88576040517f08c379a00000000000000000000000000000000000000000000000000000000081526004018080602001828103825260148152602001807f4572726f723a20496e76616c696420437572766500000000000000000000000081525060200191505060405180910390fd5b6001838501019150855182101515613b08576040517f08c379a00000000000000000000000000000000000000000000000000000000081526004018080602001828103825260148152602001807f4572726f723a20496e76616c696420437572766500000000000000000000000081525060200191505060405180910390fd5b8582815181101515613b1657fe5b9060200190602002015190508481111515613b99576040517f08c379a00000000000000000000000000000000000000000000000000000000081526004018080602001828103825260148152602001807f4572726f723a20496e76616c696420437572766500000000000000000000000081525060200191505060405180910390fd5b80945060028301840193506139ed565b600360009054906101000a900473ffffffffffffffffffffffffffffffffffffffff1673ffffffffffffffffffffffffffffffffffffffff1663a9fcf76b898960405160200180807f6f7261636c6573000000000000000000000000000000000000000000000000008152506007018373ffffffffffffffffffffffffffffffffffffffff1673ffffffffffffffffffffffffffffffffffffffff166c01000000000000000000000000028152601401807f63757276657300000000000000000000000000000000000000000000000000008152506006018260001916600019168152602001925050506040516020818303038152906040526040518082805190602001908083835b602083101515613cd75780518252602082019150602081019050602083039250613cb2565b6001836020036101000a0380198251168184511680821785525050505050509050019150506040518091039020886040518363ffffffff167c010000000000000000000000000000000000000000000000000000000002815260040180836000191660001916815260200180602001828103825283818151815260200191508051906020019060200280838360005b83811015613d81578082015181840152602081019050613d66565b505050509050019350505050600060405180830381600087803b158015613da757600080fd5b505af1158015613dbb573d6000803e3d6000fd5b505050505050505050505050565b600080600360009054906101000a900473ffffffffffffffffffffffffffffffffffffffff1673ffffffffffffffffffffffffffffffffffffffff16632ecb0d64858560405160200180807f6f7261636c6573000000000000000000000000000000000000000000000000008152506007018373ffffffffffffffffffffffffffffffffffffffff1673ffffffffffffffffffffffffffffffffffffffff166c01000000000000000000000000028152601401807f69735f706172616d5f7365740000000000000000000000000000000000000000815250600c018260001916600019168152602001925050506040516020818303038152906040526040518082805190602001908083835b602083101515613efa5780518252602082019150602081019050602083039250613ed5565b6001836020036101000a03801982511681845116808217855250505050505090500191505060405180910390206040518263ffffffff167c0100000000000000000000000000000000000000000000000000000000028152600401808260001916600019168152602001915050602060405180830381600087803b158015613f8157600080fd5b505af1158015613f95573d6000803e3d6000fd5b505050506040513d6020811015613fab57600080fd5b8101908080519060200190929190505050905060018114613fcd576000613fd0565b60015b91505092915050565b6000600260009054906101000a900473ffffffffffffffffffffffffffffffffffffffff1673ffffffffffffffffffffffffffffffffffffffff1663358177736040518163ffffffff167c01000000000000000000000000000000000000000000000000000000000281526004018080602001828103825260088152602001807f4441544142415345000000000000000000000000000000000000000000000000815250602001915050602060405180830381600087803b15801561409d57600080fd5b505af11580156140b1573d6000803e3d6000fd5b505050506040513d60208110156140c757600080fd5b8101908080519060200190929190505050905080600360006101000a81548173ffffffffffffffffffffffffffffffffffffffff021916908373ffffffffffffffffffffffffffffffffffffffff16021790555050565b600360009054906101000a900473ffffffffffffffffffffffffffffffffffffffff1673ffffffffffffffffffffffffffffffffffffffff166354c552db8460405160200180807f6f7261636c6573000000000000000000000000000000000000000000000000008152506007018273ffffffffffffffffffffffffffffffffffffffff1673ffffffffffffffffffffffffffffffffffffffff166c01000000000000000000000000028152601401807f7075626c69634b657900000000000000000000000000000000000000000000008152506009019150506040516020818303038152906040526040518082805190602001908083835b60208310151561423c5780518252602082019150602081019050602083039250614217565b6001836020036101000a0380198251168184511680821785525050505050509050019150506040518091039020846040518363ffffffff167c010000000000000000000000000000000000000000000000000000000002815260040180836000191660001916815260200182815260200192505050600060405180830381600087803b1580156142cb57600080fd5b505af11580156142df573d6000803e3d6000fd5b50505050600360009054906101000a900473ffffffffffffffffffffffffffffffffffffffff1673ffffffffffffffffffffffffffffffffffffffff16634e91db088460405160200180807f6f7261636c6573000000000000000000000000000000000000000000000000008152506007018273ffffffffffffffffffffffffffffffffffffffff1673ffffffffffffffffffffffffffffffffffffffff166c01000000000000000000000000028152601401807f7469746c650000000000000000000000000000000000000000000000000000008152506005019150506040516020818303038152906040526040518082805190602001908083835b60208310151561440157805182526020820191506020810190506020830392506143dc565b6001836020036101000a0380198251168184511680821785525050505050509050019150506040518091039020836040518363ffffffff167c0100000000000000000000000000000000000000000000000000000000028152600401808360001916600019168152602001826000191660001916815260200192505050600060405180830381600087803b15801561449857600080fd5b505af11580156144ac573d6000803e3d6000fd5b50505050505050565b600360009054906101000a900473ffffffffffffffffffffffffffffffffffffffff1673ffffffffffffffffffffffffffffffffffffffff1663dd151d1e60405160200180807f6f7261636c65496e646578000000000000000000000000000000000000000000815250600b0190506040516020818303038152906040526040518082805190602001908083835b6020831015156145685780518252602082019150602081019050602083039250614543565b6001836020036101000a0380198251168184511680821785525050505050509050019150506040518091039020836040518363ffffffff167c01000000000000000000000000000000000000000000000000000000000281526004018083600019166000191681526020018273ffffffffffffffffffffffffffffffffffffffff1673ffffffffffffffffffffffffffffffffffffffff16815260200192505050600060405180830381600087803b15801561462357600080fd5b505af1158015614637573d6000803e3d6000fd5b50505050505600a165627a7a723058204b64447a96ca7dca0a1981accab1d75d4ce97e0158e029cbb766febc843c8e660029",
  "source": "pragma solidity ^0.4.24;\n// v1.0\n\nimport \"../../lib/lifecycle/Destructible.sol\";\nimport \"../../lib/ownership/Upgradable.sol\";\nimport \"../database/DatabaseInterface.sol\";\nimport \"./RegistryInterface.sol\";\n\ncontract Registry is Destructible, RegistryInterface, Upgradable {\n\n    event NewProvider(\n        address indexed provider,\n        bytes32 indexed title\n    );\n\n    event NewCurve(\n        address indexed provider,\n        bytes32 indexed endpoint,\n        int[] curve,\n        address indexed broker\n    );\n\n    DatabaseInterface public db;\n\n    constructor(address c) Upgradable(c) public {\n        _updateDependencies();\n    }\n\n    function _updateDependencies() internal {\n        address databaseAddress = coordinator.getContract(\"DATABASE\");\n        db = DatabaseInterface(databaseAddress);\n    }\n\n    /// @dev initiates a provider.\n    /// If no address->Oracle mapping exists, Oracle object is created\n    /// @param publicKey unique id for provider. used for encyrpted key swap for subscription endpoints\n    /// @param title name\n    function initiateProvider(\n        uint256 publicKey,\n        bytes32 title\n    )\n        public\n        returns (bool)\n    {\n        require(!isProviderInitiated(msg.sender), \"Error: Provider is already initiated\");\n        createOracle(msg.sender, publicKey, title);\n        addOracle(msg.sender);\n        emit NewProvider(msg.sender, title);\n        return true;\n    }\n\n    /// @dev initiates an endpoint specific provider curve\n    /// If oracle[specfifier] is uninitialized, Curve is mapped to endpoint\n    /// @param endpoint specifier of endpoint. currently \"smart_contract\" or \"socket_subscription\"\n    /// @param curve flattened array of all segments, coefficients across all polynomial terms, [e0,l0,c0,c1,c2,...]\n    /// @param broker address for endpoint. if non-zero address, only this address will be able to bond/unbond \n    function initiateProviderCurve(\n        bytes32 endpoint,\n        int256[] curve,\n        address broker\n    )\n        returns (bool)\n    {\n        // Provider must be initiated\n        require(isProviderInitiated(msg.sender), \"Error: Provider is not yet initiated\");\n        // Can't reset their curve\n        require(getCurveUnset(msg.sender, endpoint), \"Error: Curve is already set\");\n\n        setCurve(msg.sender, endpoint, curve);        \n        db.pushBytesArray(keccak256(abi.encodePacked('oracles', msg.sender, 'endpoints')), endpoint);\n        db.setBytes32(keccak256(abi.encodePacked('oracles', msg.sender, endpoint, 'broker')), bytes32(broker));\n\n        emit NewCurve(msg.sender, endpoint, curve, broker);\n\n        return true;\n    }\n\n    // Sets provider data\n    function setProviderParameter(bytes32 key, bytes32 value) public {\n        // Provider must be initiated\n        require(isProviderInitiated(msg.sender), \"Error: Provider is not yet initiated\");\n\n        if(!isProviderParamInitialized(msg.sender, key)){\n            // initialize this provider param\n            db.setNumber(keccak256(abi.encodePacked('oracles', msg.sender, 'is_param_set', key)), 1);\n            db.pushBytesArray(keccak256(abi.encodePacked('oracles', msg.sender, 'providerParams')), key);\n        }\n        db.setBytes32(keccak256(abi.encodePacked('oracles', msg.sender, 'providerParams', key)), value);\n    }\n\n    // Gets provider data\n    function getProviderParameter(address provider, bytes32 key) public view returns (bytes32){\n        // Provider must be initiated\n        require(isProviderInitiated(provider), \"Error: Provider is not yet initiated\");\n        require(isProviderParamInitialized(provider, key), \"Error: Provider Parameter is not yet initialized\");\n        return db.getBytes32(keccak256(abi.encodePacked('oracles', provider, 'providerParams', key)));\n    }\n\n    // Gets keys of all provider params\n    function getAllProviderParams(address provider) public view returns (bytes32[]){\n        // Provider must be initiated\n        require(isProviderInitiated(provider), \"Error: Provider is not yet initiated\");\n        return db.getBytesArray(keccak256(abi.encodePacked('oracles', provider, 'providerParams')));\n    }\n\n    // Set endpoint specific parameters for a given endpoint\n    function setEndpointParams(bytes32 endpoint, bytes32[] endpointParams) public {\n        // Provider must be initiated\n        require(isProviderInitiated(msg.sender), \"Error: Provider is not yet initialized\");\n        // Can't set endpoint params on an unset provider\n        require(!getCurveUnset(msg.sender, endpoint), \"Error: Curve is not yet set\");\n\n        db.setBytesArray(keccak256(abi.encodePacked('oracles', msg.sender, 'endpointParams', endpoint)), endpointParams);\n    }\n\n    /// @return public key\n    function getProviderPublicKey(address provider) public view returns (uint256) {\n        return getPublicKey(provider);\n    }\n\n    /// @return oracle name\n    function getProviderTitle(address provider) public view returns (bytes32) {\n        return getTitle(provider);\n    }\n\n\n    /// @dev get curve paramaters from oracle\n    function getProviderCurve(\n        address provider,\n        bytes32 endpoint\n    )\n        public\n        view\n        returns (int[])\n    {\n        require(!getCurveUnset(provider, endpoint), \"Error: Curve is not yet set\");\n        return db.getIntArray(keccak256(abi.encodePacked('oracles', provider, 'curves', endpoint)));\n    }\n\n    function getProviderCurveLength(address provider, bytes32 endpoint) public view returns (uint256){\n        require(!getCurveUnset(provider, endpoint), \"Error: Curve is not yet set\");\n        return db.getIntArray(keccak256(abi.encodePacked('oracles', provider, 'curves', endpoint))).length;\n    }\n\n    /// @dev is provider initiated\n    /// @param oracleAddress the provider address\n    /// @return Whether or not the provider has initiated in the Registry.\n    function isProviderInitiated(address oracleAddress) public view returns (bool) {\n        return getProviderTitle(oracleAddress) != 0;\n    }\n\n    /*** STORAGE FUNCTIONS ***/\n    /// @dev get public key of provider\n    function getPublicKey(address provider) public view returns (uint256) {\n        return db.getNumber(keccak256(abi.encodePacked(\"oracles\", provider, \"publicKey\")));\n    }\n\n    /// @dev get title of provider\n    function getTitle(address provider) public view returns (bytes32) {\n        return db.getBytes32(keccak256(abi.encodePacked(\"oracles\", provider, \"title\")));\n    }\n\n    /// @dev get the endpoints of a provider\n    function getProviderEndpoints(address provider) public view returns (bytes32[]) {\n        return db.getBytesArray(keccak256(abi.encodePacked(\"oracles\", provider, \"endpoints\")));\n    }\n\n    /// @dev get all endpoint params\n    function getEndpointParams(address provider, bytes32 endpoint) public view returns (bytes32[]) {\n        return db.getBytesArray(keccak256(abi.encodePacked('oracles', provider, 'endpointParams', endpoint)));\n    }\n\n    /// @dev get broker address for endpoint\n    function getEndpointBroker(address oracleAddress, bytes32 endpoint) public view returns (address) {\n        return address(db.getBytes32(keccak256(abi.encodePacked('oracles', oracleAddress, endpoint, 'broker'))));\n    }\n\n    function getCurveUnset(address provider, bytes32 endpoint) public view returns (bool) {\n        return db.getIntArrayLength(keccak256(abi.encodePacked('oracles', provider, 'curves', endpoint))) == 0;\n    }\n\n    /// @dev get provider address by index\n    function getOracleAddress(uint256 index) public view returns (address) {\n        return db.getAddressArrayIndex(keccak256(abi.encodePacked('oracleIndex')), index);\n    }\n\n    /// @dev get all oracle addresses\n    function getAllOracles() external view returns (address[]) {\n        return db.getAddressArray(keccak256(abi.encodePacked('oracleIndex')));\n    }\n\n    ///  @dev add new provider to mapping\n    function createOracle(address provider, uint256 publicKey, bytes32 title) private {\n        db.setNumber(keccak256(abi.encodePacked('oracles', provider, \"publicKey\")), uint256(publicKey));\n        db.setBytes32(keccak256(abi.encodePacked('oracles', provider, \"title\")), title);\n    }\n\n    /// @dev add new provider address to oracles array\n    function addOracle(address provider) private {\n        db.pushAddressArray(keccak256(abi.encodePacked('oracleIndex')), provider);\n    }\n\n    /// @dev initialize new curve for provider\n    /// @param provider address of provider\n    /// @param endpoint endpoint specifier\n    /// @param curve flattened array of all segments, coefficients across all polynomial terms, [l0,c0,c1,c2,..., ck, e0, ...]\n    function setCurve(\n        address provider,\n        bytes32 endpoint,\n        int[] curve\n    )\n        private\n    {\n        uint prevEnd = 1;\n        uint index = 0;\n\n        // Validate the curve\n        while ( index < curve.length ) {\n            // Validate the length of the piece\n            int len = curve[index];\n            require(len > 0, \"Error: Invalid Curve\");\n\n            // Validate the end index of the piece\n            uint endIndex = index + uint(len) + 1;\n            require(endIndex < curve.length, \"Error: Invalid Curve\");\n\n            // Validate that the end is continuous\n            int end = curve[endIndex];\n            require(uint(end) > prevEnd, \"Error: Invalid Curve\");\n\n            prevEnd = uint(end);\n            index += uint(len) + 2; \n        }\n\n        db.setIntArray(keccak256(abi.encodePacked('oracles', provider, 'curves', endpoint)), curve);\n    }\n\n    // Determines whether this parameter has been initialized\n    function isProviderParamInitialized(address provider, bytes32 key) private view returns (bool){\n        uint256 val = db.getNumber(keccak256(abi.encodePacked('oracles', provider, 'is_param_set', key)));\n        return (val == 1) ? true : false;\n    }\n\n    /*************************************** STORAGE ****************************************\n    * 'oracles', provider, 'endpoints' => {bytes32[]} array of endpoints for this oracle\n    * 'oracles', provider, 'endpointParams', endpoint => {bytes32[]} array of params for this endpoint\n    * 'oracles', provider, 'curves', endpoint => {uint[]} curve array for this endpoint\n    * 'oracles', provider, 'broker', endpoint => {bytes32} broker address for this endpoint\n    * 'oracles', provider, 'is_param_set', key => {uint} Is this provider parameter set (0/1)\n    * 'oracles', provider, \"publicKey\" => {uint} public key for this oracle\n    * 'oracles', provider, \"title\" => {bytes32} title of this oracle\n    ****************************************************************************************/\n}\n",
  "sourcePath": "/home/xv702/2zap/multiparty-oracle/contracts/zap/platform/registry/Registry.sol",
  "compiler": {
    "name": "solc",
    "version": "0.4.24+commit.e67f0147.Emscripten.clang"
  },
  "schemaVersion": "2.0.1",
  "updatedAt": "2019-05-28T18:14:28.709Z"
}