{
  "contractName": "TestClient",
  "abi": [
    {
      "anonymous": false,
      "inputs": [
        {
          "indexed": false,
          "name": "id",
          "type": "uint256"
        },
        {
          "indexed": false,
          "name": "response1",
          "type": "string"
        }
      ],
      "name": "Result1",
      "type": "event"
    },
    {
      "constant": false,
      "inputs": [
        {
          "name": "id",
          "type": "uint256"
        },
        {
          "name": "response1",
          "type": "string"
        }
      ],
      "name": "callback",
      "outputs": [],
      "payable": false,
      "stateMutability": "nonpayable",
      "type": "function"
    },
    {
      "constant": false,
      "inputs": [
        {
          "name": "oracleAddr",
          "type": "address"
        },
        {
          "name": "query",
          "type": "string"
        },
        {
          "name": "specifier",
          "type": "bytes32"
        },
        {
          "name": "params",
          "type": "bytes32[]"
        }
      ],
      "name": "testQuery",
      "outputs": [],
      "payable": false,
      "stateMutability": "nonpayable",
      "type": "function"
    }
  ],
  "bytecode": "0x608060405234801561001057600080fd5b5061030b806100206000396000f30060806040526004361061004c576000357c0100000000000000000000000000000000000000000000000000000000900463ffffffff168063b69a375d14610051578063d075f20f14610096575b600080fd5b34801561005d57600080fd5b5061009460048036038101908080359060200190929190803590602001908201803590602001919091929391929390505050610117565b005b3480156100a257600080fd5b50610115600480360381019080803573ffffffffffffffffffffffffffffffffffffffff16906020019092919080359060200190820180359060200191909192939192939080356000191690602001909291908035906020019082018035906020019190919293919293905050506101f8565b005b606082828080601f01602080910402602001604051908101604052809392919081815260200183838082843782019150505050505090507f5d599109d8427016e4c93bff9b5f27e4cd24a83316a010d9ef7e15b7105d30e784826040518083815260200180602001828103825283818151815260200191508051906020019080838360005b838110156101b757808201518184015260208101905061019c565b50505050905090810190601f1680156101e45780820380516001836020036101000a031916815260200191505b50935050505060405180910390a150505050565b8573ffffffffffffffffffffffffffffffffffffffff1663cac2cce0606487878787876040518763ffffffff167c01000000000000000000000000000000000000000000000000000000000281526004018087815260200180602001856000191660001916815260200180602001838103835288888281815260200192508082843782019150508381038252858582818152602001925060200280828437820191505098505050505050505050600060405180830381600087803b1580156102bf57600080fd5b505af11580156102d3573d6000803e3d6000fd5b505050505050505050505600a165627a7a72305820e92e8c463219a988dadca8f8ced68f7e4786c2c5198d4a5be2cdc0de9cbed05c0029",
  "source": "pragma solidity ^0.4.24;\n\nimport \"./OnChainProvider.sol\";\nimport \"./Client.sol\";\n\ncontract TestProvider is OnChainProvider {\n\tevent RecievedQuery(string query, bytes32 endpoint, bytes32[] params);\n\n    event TEST(uint res, bytes32 b, string s);\n\n    // specifier doesn't matter in this case\n    bytes32 public spec1 = \"Hello?\";\n\n    string response;\n\n    constructor(string _response) public {\n        response = _response;    \n    }\n\n    // middleware function for handling queries\n\tfunction receive(uint256 id, string userQuery, bytes32 endpoint, bytes32[] endpointParams) external {\n        emit RecievedQuery(userQuery, endpoint, endpointParams);\n        Client1(msg.sender).callback(id, response);\n\t}\n}\n\n/* Test Subscriber Client */\ncontract TestClient is Client1{\n\n\tevent Result1(uint256 id, string response1);\n\n    /*\n    Implements overloaded callback functions for Client1\n    */\n    function callback(uint256 id, string response1) external {\n    \tstring memory _response1 = response1;\n    \temit Result1(id, _response1);\n        // do something with result\n    }\n\n    function testQuery(address oracleAddr, string query, bytes32 specifier, bytes32[] params) external {\n    \tOnChainProvider(oracleAddr).receive(100, query, specifier, params);\n    }\n\n}\n",
  "sourcePath": "/home/intern1/MultiPartyOracle/contracts/TestContracts.sol",
  "compiler": {
    "name": "solc",
    "version": "0.4.24+commit.e67f0147.Emscripten.clang"
  },
  "schemaVersion": "2.0.0",
  "updatedAt": "2018-06-21T19:59:00.801Z"
}